:020000040000FA
:1000000080311C28080008007E1480310B1F1A283C
:100010002100111F12282000111F1228AD31BA250E
:1000200080311A282100111C1A282000111C1A28BE
:10003000A03100207E10090080311E288D30840000
:10004000A3308500F0308600253087000230FF00A5
:100050000030B7316D278031F601F701F801F90161
:10006000A0308400003085003430FE000030FF00F6
:10007000B73161278031203084000130850038306D
:10008000FE000030FF00B73161278031A0308400CE
:10009000013085004030FE000030FF00B73161279D
:1000A000803120308400023085004030FE00003076
:1000B000FF00B73161277E102000AE312E2E0034B4
:1000C0000034003400340034003400340034003490
:1000D0000034003400340034003400340034003480
:1000E0000034003400340034003400340034003470
:1000F0000034003400340034003400340034003460
:100100000034F03437340034003400340034003428
:10011000003400340034003400340034003400343F
:1001200000340034003400340034003400347834B7
:1001300000340034003400340034783400340034A7
:10014000003400340034003400340034003400340F
:100150000034003400340034043480343C34C0347F
:100160000734B034043480343C34C0340734B03401
:10017000043480340034003400340034003400345B
:1001800000340034003400340034C03411342034DE
:10019000223420342234F834FF34203422344034E2
:1001A0001C34003400340034003400340034E034B3
:1001B0000134103402341034023410342234E03468
:1001C0001934003406348034013460341E34103461
:1001D0002134003421340034213400341E340034FE
:1001E000003400340034E0341E3410342134103430
:1001F00021341034233490342434603418340034DF
:100200001734003420340034003400340034003417
:10021000003400340034003400340034003400343E
:1002200000340034003478340034003400340034B6
:10023000003400340034003400340034003400341E
:10024000003400340034003400340034003400340E
:10025000003480341F346034603410348034083407
:1002600000340034003400340034003400340034EE
:1002700000340034003400340034003400340834D6
:100280000034103480346034603480341F340034DF
:1002900000340034003400340034003400340234BC
:1002A0000034C5340F34E2341F34F8343F34F834AA
:1002B0003F343C3478341C3470341C3470341C3477
:1002C00070341C34703438343834003428340034FA
:1002D000003400340034003402340034023400347A
:1002E0000234C0341F340034023400340234003489
:1002F000023400340034003400340034003400345C
:10030000003400340034003400340034003400344D
:10031000003400348034003470340034003400344D
:10032000003400340034003400340034003400342D
:10033000003400340034003400340034003400341D
:100340000234003402340034023400340234003405
:1003500000340034003400340034003400340034FD
:1003600000340034003400340034003400340034ED
:1003700000340034303400340034003400340034AD
:1003800000340034003400340034003400340034CD
:1003900000340034003400340034003400340034BD
:1003A000C0340034383400340734E03400341834B6
:1003B000003400340034003400340034003400349D
:1003C000003400340034C0340F342034103410347E
:1003D0002034103420341034203420341034C0340D
:1003E0000F3400340034003400340034003400345E
:1003F000003400340034003400340034003420343D
:10040000203420342034F0343F340034203400349D
:10041000203400340034003400340034003400341C
:1004200000340034003400340034203430341034CC
:100430002834103424341034223410342134E0347D
:1004400020340034003400340034003400340034EC
:1004500000340034003400340034203410341034BC
:100460002034103421341034213410342134E03459
:100470001E340034003400340034003400340034BE
:100480000034003400340034063400340534803441
:1004900004344034043420340434F0343F34003421
:1004A00004340034003400340034003400340034A8
:1004B00000340034003400340034F034113410348B
:1004C00021341034213410342134103421341034C8
:1004D0001E3400340034003400340034003400345E
:1004E00000340034003480340F346034113420344C
:1004F00021341034213410342134103412340034B7
:100500000C3400340034003400340034003400343F
:10051000003400340034003400341034003410341B
:1005200020341034183410340634D03401343034CC
:10053000003400340034003400340034003400341B
:10054000003400340034E0341E34103421341034CC
:100550002134103421341034213410342134E03467
:100560001E340034003400340034003400340034CD
:10057000003400340034C0340034203421341034CA
:100580002234103422341034123420341A34C0345B
:1005900007340034003400340034003400340034B4
:1005A00000340034003400340034003400340034AB
:1005B000003400340034C0343034003400340034AB
:1005C000003400340034003400340034003400348B
:1005D000003400340034003400340034003400347B
:1005E000003400348034C0347034003400340034BB
:1005F000003400340034003400340034003400345B
:100600000034003400340034023400340234003446
:1006100005340034053480340834803408344034E0
:10062000103400340034003400340034003400341A
:100630000034003400340034093400340934003408
:1006400009340034093400340934003409340034E6
:1006500009340034093400340034003400340034E8
:100660000034003400344034103480340834803492
:1006700008340034053400340534003402340034C6
:1006800002340034003400340034003400340234C6
:100690000034C5340F34E2341F34F8343F34F834B6
:1006A0003F343C3478341C3470341C3470341C3483
:1006B00070341C3470343834383400342834003406
:1006C0000F34C03430342034403420344E341034AD
:1006D00091349034903490349034903490349034F9
:1006E0009F34203410344034103480340F340034BC
:1006F0000034003400340034303400340E34E0343C
:10070000053410340434E034053400340E3400343D
:100710003034003400340034003400340034003409
:10072000003400340034F0343F34103421341034B9
:1007300021341034213410342134E03412340034A4
:100740000C340034003400340034003400340034FD
:1007500000340034003480340734603418342034DA
:100760001034103420341034203410342034103439
:100770002034203410340034003400340034003489
:100780000034F0343F34103420341034203410342A
:1007900020341034203410342034203410346034A9
:1007A000183480340734003400340034003400340A
:1007B000003400340034F0343F3410342134103429
:1007C00021341034213410342134103421341034C5
:1007D0002134003400340034003400340034003458
:1007E00000340034003400340034F0343F3410342A
:1007F0000134103401341034013410340134103415
:100800000134003400340034003400340034003447
:100810000034003400348034073460341834203419
:100820001034103420341034223410342234103474
:10083000223420341E3400340034003400340034B8
:10084000003400340034F0343F34003401340034D8
:1008500001340034013400340134003401340034F4
:100860000134F0343F3400340034003400340034B8
:1008700000340034003400340034003400341034C8
:100880002034F0343F341034203400340034003449
:1008900000340034003400340034003400340034B8
:1008A0000034003400340034003400342034103478
:1008B00020341034203410342034F0341F34003409
:1008C0000034003400340034003400340034003488
:1008D000003400340034F0343F3400340234003447
:1008E0000334803404344034083420341034103459
:1008F0002034003400340034003400340034003438
:1009000000340034003400340034F0343F34003418
:1009100020340034203400342034003420340034B7
:100920002034003400340034003400340034003407
:100930000034F0343F3430340034C03400340034F8
:10094000033400340C3400340334C0340034303405
:100950000034F0343F3400340034003400340034C8
:10096000003400340034F0343F3430340034C034C8
:1009700000340034013400340634003408340034C8
:100980003034F0343F340034003400340034003468
:100990000034803407346034183420341034103478
:1009A0002034103420341034203420341034603497
:1009B00018348034073400340034003400340034F8
:1009C000003400340034F0343F3410340234103436
:1009D0000234103402341034023420340134C03470
:1009E0000034003400340034003400340034003467
:1009F0000034803407346034183420341034103418
:100A00002034103420341034E03420341034603476
:100A10001834803407340034003400340034003497
:100A2000003400340034F0343F34103402341034D5
:100A300002341034023410340634E0340934003403
:100A400010340034203400340034003400340034D6
:100A5000003400340034E0341034103421341034C5
:100A60002134103421341034223410342234203410
:100A70001C340034003400340034003400340034BA
:100A80000034103400341034003410340034103486
:100A90000034F0343F341034003410340034103457
:100AA0000034103400340034003400340034003496
:100AB000003400340034F0340F3400341034003487
:100AC0002034003420340034203400342034003406
:100AD0001034F0340F340034003400340034003467
:100AE00000340034003430340034C0340134003475
:100AF0000E340034303400340E34C0340134303419
:100B00000034003400340034003400340034C03485
:100B1000033400341C340034303400340E34E034F8
:100B2000013410340034E034013400340E34003425
:100B3000303400341C34C0340334303400340034D6
:100B400000340034003410342034603418348034DD
:100B500004340034033480340434603418341034E2
:100B600020340034003400340034003400340034C5
:100B700000340034003410340034603400348034E5
:100B8000013400343E348034013460340034103495
:100B900000340034003400340034003400340034B5
:100BA000003400340034103430341034283410341D
:100BB00024341034233490342034503420343034EE
:100BC0002034003400340034003400340034003465
:100BD0000034003400340034003400340034F8347D
:100BE000FF3408340034083400340834003400344E
:100BF0000034003400340034003400340034003455
:100C0000003400340034003400340034003418342C
:100C10000034E03400340034073400343834003415
:100C2000C034003400340034003400340034003464
:100C3000003400340034003400340034003408340C
:100C400000340834003408340034F834FF340034FD
:100C500000340034003400340034003400340034F4
:100C60000034003400340034013480340034603403
:100C700000341034003410340034603400348034D4
:100C800000340034013400340034003400340034C3
:100C900000340034003400348034003480340034B4
:100CA00080340034803400348034003480340034A4
:100CB0008034003480340034003400340034003494
:100CC0000034003400340034003400340034003484
:100CD00000340C3400341034003400340034003458
:100CE0000034003400340034003400340034003464
:100CF00000340034003400340034003418348034BC
:100D00002434403422344034223440341234803489
:100D10003F340034003400340034003400340034F4
:100D2000003400340034F8343F348034203440340C
:100D300020344034203440342034803410340034A3
:100D40000F340034003400340034003400340034F4
:100D50000034003400340034003400340F34803464
:100D60001034403420344034203440342034803433
:100D700010340034003400340034003400340034C3
:100D800000340034003400340F34803410344034E4
:100D90002034403420344034203440341034F8348B
:100DA0003F34003400340034003400340034003464
:100DB0000034003400340034003400340F34803404
:100DC00012344034223440342234403422348034CB
:100DD0001334003400340034003400340034003460
:100DE0000034003400340034003400340034403423
:100DF0000034F0343F34483400344834003408348C
:100E00000034003400340034003400340034003442
:100E100000340034003400340F34803490344034D3
:100E20002034403420344034203440349034C034B2
:100E30007F34003400340034003400340034003493
:100E4000003400340034F8343F348034003440340B
:100E500000344034003440340034403400348034B2
:100E60003F340034003400340034003400340034A3
:100E700000340034003400340034003400340034D2
:100E80000034D0343F3400340034003400340034B3
:100E900000340034003400340034003400340034B2
:100EA0000034003400340034003400340034403462
:100EB000003440340034D034FF3400340034003483
:100EC0000034003400340034003400340034003482
:100ED00000340034003400340034F8343F3400343B
:100EE0000234003405348034083440341034003483
:100EF0002034003400340034003400340034003432
:100F00000034003400340034003400340034003441
:100F10000034F8343F3400340034003400340034FA
:100F20000034003400340034003400340034003421
:100F30000034C0343F348034003440340034403412
:100F4000003480343F348034003440340034403442
:100F5000003480343F340034003400340034003432
:100F6000003400340034C0343F3480340034403422
:100F70000034403400344034003440340034803491
:100F80003F34003400340034003400340034003482
:100F900000340034003400340F34803410344034D2
:100FA0002034403420344034203480341034003431
:100FB0000F34003400340034003400340034003482
:100FC000003400340034C034FF34803420344034E2
:100FD0002034403420344034203480341034003401
:100FE0000F34003400340034003400340034003452
:100FF00000340034003400340F3480341034403472
:101000002034403420344034203440341034C03450
:10101000FF34003400340034003400340034003431
:101020000034003400340034003400340034C03460
:101030003F348034003440340034403400340034D1
:101040000034003400340034003400340034003400
:10105000003400340034003400348034113440341F
:101060002234403422344034243480341834003460
:1010700000340034003400340034003400340034D0
:101080000034003400340034003400340034403480
:101090000034F0341F3440342034403420344034A1
:1010A0002034003400340034003400340034003480
:1010B000003400340034C0341F3400342034003491
:1010C0002034003420340034203400341034C03450
:1010D0003F34003400340034003400340034003431
:1010E000003400340034C03400340034033400349D
:1010F0000C340034303400340C3400340334C03445
:10110000003400340034003400340034003400343F
:101110000034C034003400340F3400343034003430
:101120000F34C034003400340F3400343034003411
:101130000F34C03400340034003400340034003440
:10114000003400340034403420348034103400340F
:101150000934003406340034093480341034403407
:1011600020340034003400340034003400340034BF
:10117000003400340034C03400340034033400340C
:101180008C340034703400340C3400340334C034F4
:1011900000340034003400340034003400340034AF
:1011A00000340034003400340034403430344034EF
:1011B00028344034263440342134C03420340034C0
:1011C000003400340034003400340034003400347F
:1011D000003400340034003400340034023400346D
:1011E0000234F034FD340834003408340034003460
:1011F000003400340034003400340034003400344F
:10120000003400340034003400340034003400343E
:10121000003400340034F834FF3400340034003437
:10122000003400340034003400340034003400341E
:101230000034003400340034003400340034083406
:10124000003408340034F034FD3400340234003407
:1012500002340034003400340034003400340034EC
:1012600000340034003400340734803400348034D7
:1012700000340034013400340234003404340034C7
:101280000434803403340034003400340034003437
:1012900000340034003400340034003400340034AE
:1012A000003400340034003400340034003400349E
:1012B000003400340034003400340034003400348E
:1012C000003400340034003400340034003400347E
:1012D0000034F03437340034003400340034003447
:1012E000003400340034003400340034003400345E
:1012F00000340034003400340034003400347834D6
:1013000000340034003400340034783400340034C5
:10131000003400340034003400340034003400342D
:101320000034003400340034043480343C34C0349D
:101330000734B034043480343C34C0340734B0341F
:101340000434803400340034003400340034003479
:1013500000340034003400340034C03411342034FC
:10136000223420342234F834FF3420342234403400
:101370001C34003400340034003400340034E034D1
:101380000134103402341034023410342234E03486
:101390001934003406348034013460341E3410347F
:1013A0002134003421340034213400341E3400341C
:1013B000003400340034E0341E341034213410344E
:1013C00021341034233490342434603418340034FD
:1013D0001734003420340034003400340034003436
:1013E000003400340034003400340034003400345D
:1013F00000340034003478340034003400340034D5
:10140000003400340034003400340034003400343C
:10141000003400340034003400340034003400342C
:10142000003480341F346034603410348034083425
:10143000003400340034003400340034003400340C
:1014400000340034003400340034003400340834F4
:101450000034103480346034603480341F340034FD
:1014600000340034003400340034003400340234DA
:101470000034C5340F34E2341F34F8343F34F834C8
:101480003F343C3478341C3470341C3470341C3495
:1014900070341C3470343834383400342834003418
:1014A0000034003400340034023400340234003498
:1014B0000234C0341F3400340234003402340034A7
:1014C000023400340034003400340034003400347A
:1014D000003400340034003400340034003400346C
:1014E000003400348034003470340034003400346C
:1014F000003400340034003400340034003400344C
:10150000003400340034003400340034003400343B
:101510000234003402340034023400340234003423
:10152000003400340034003400340034003400341B
:10153000003400340034003400340034003400340B
:1015400000340034303400340034003400340034CB
:1015500000340034003400340034003400340034EB
:1015600000340034003400340034003400340034DB
:10157000C0340034383400340734E03400341834D4
:1015800000340034003400340034003400340034BB
:10159000003400340034C0340F342034103410349C
:1015A0002034103420341034203420341034C0342B
:1015B0000F3400340034003400340034003400347C
:1015C000003400340034003400340034003420345B
:1015D000203420342034F0343F34003420340034BC
:1015E000203400340034003400340034003400343B
:1015F00000340034003400340034203430341034EB
:101600002834103424341034223410342134E0349B
:10161000203400340034003400340034003400340A
:1016200000340034003400340034203410341034DA
:101630002034103421341034213410342134E03477
:101640001E340034003400340034003400340034DC
:10165000003400340034003406340034053480345F
:1016600004344034043420340434F0343F3400343F
:1016700004340034003400340034003400340034C6
:1016800000340034003400340034F03411341034A9
:1016900021341034213410342134103421341034E6
:1016A0001E3400340034003400340034003400347C
:1016B00000340034003480340F346034113420346A
:1016C00021341034213410342134103412340034D5
:1016D0000C3400340034003400340034003400345E
:1016E000003400340034003400341034003410343A
:1016F00020341034183410340634D03401343034EB
:101700000034003400340034003400340034003439
:10171000003400340034E0341E34103421341034EA
:101720002134103421341034213410342134E03485
:101730001E340034003400340034003400340034EB
:10174000003400340034C0340034203421341034E8
:101750002234103422341034123420341A34C03479
:1017600007340034003400340034003400340034D2
:1017700000340034003400340034003400340034C9
:10178000003400340034C0343034003400340034C9
:1017900000340034003400340034003400340034A9
:1017A0000034003400340034003400340034003499
:1017B000003400348034C0347034003400340034D9
:1017C0000034003400340034003400340034003479
:1017D0000034003400340034023400340234003465
:1017E00005340034053480340834803408344034FF
:1017F0001034003400340034003400340034003439
:101800000034003400340034093400340934003426
:101810000934003409340034093400340934003404
:101820000934003409340034003400340034003406
:1018300000340034003440341034803408348034B0
:1018400008340034053400340534003402340034E4
:1018500002340034003400340034003400340234E4
:101860000034C5340F34E2341F34F8343F34F834D4
:101870003F343C3478341C3470341C3470341C34A1
:1018800070341C3470343834383400342834003424
:101890000F34C03430342034403420344E341034CB
:1018A0009134903490349034903490349034903417
:1018B0009F34203410344034103480340F340034DA
:1018C0000034003400340034303400340E34E0345A
:1018D000053410340434E034053400340E3400345C
:1018E0003034003400340034003400340034003428
:1018F000003400340034F0343F34103421341034D8
:1019000021341034213410342134E03412340034C2
:101910000C3400340034003400340034003400341B
:1019200000340034003480340734603418342034F8
:101930001034103420341034203410342034103457
:1019400020342034103400340034003400340034A7
:101950000034F0343F341034203410342034103448
:1019600020341034203410342034203410346034C7
:101970001834803407340034003400340034003428
:10198000003400340034F0343F3410342134103447
:1019900021341034213410342134103421341034E3
:1019A0002134003400340034003400340034003476
:1019B00000340034003400340034F0343F34103448
:1019C0000134103401341034013410340134103433
:1019D0000134003400340034003400340034003466
:1019E0000034003400348034073460341834203438
:1019F0001034103420341034223410342234103493
:101A0000223420341E3400340034003400340034D6
:101A1000003400340034F0343F34003401340034F6
:101A20000134003401340034013400340134003412
:101A30000134F0343F3400340034003400340034D6
:101A400000340034003400340034003400341034E6
:101A50002034F0343F341034203400340034003467
:101A600000340034003400340034003400340034D6
:101A70000034003400340034003400342034103496
:101A800020341034203410342034F0341F34003427
:101A900000340034003400340034003400340034A6
:101AA000003400340034F0343F3400340234003465
:101AB0000334803404344034083420341034103477
:101AC0002034003400340034003400340034003456
:101AD00000340034003400340034F0343F34003437
:101AE00020340034203400342034003420340034D6
:101AF0002034003400340034003400340034003426
:101B00000034F0343F3430340034C0340034003416
:101B1000033400340C3400340334C0340034303423
:101B20000034F0343F3400340034003400340034E6
:101B3000003400340034F0343F3430340034C034E6
:101B400000340034013400340634003408340034E6
:101B50003034F0343F340034003400340034003486
:101B60000034803407346034183420341034103496
:101B700020341034203410342034203410346034B5
:101B80001834803407340034003400340034003416
:101B9000003400340034F0343F3410340234103454
:101BA0000234103402341034023420340134C0348E
:101BB0000034003400340034003400340034003485
:101BC0000034803407346034183420341034103436
:101BD0002034103420341034E03420341034603495
:101BE00018348034073400340034003400340034B6
:101BF000003400340034F0343F34103402341034F4
:101C000002341034023410340634E0340934003421
:101C100010340034203400340034003400340034F4
:101C2000003400340034E0341034103421341034E3
:101C3000213410342134103422341034223420342E
:101C40001C340034003400340034003400340034D8
:101C500000341034003410340034103400341034A4
:101C60000034F0343F341034003410340034103475
:101C700000341034003400340034003400340034B4
:101C8000003400340034F0340F34003410340034A5
:101C90002034003420340034203400342034003424
:101CA0001034F0340F340034003400340034003485
:101CB00000340034003430340034C0340134003493
:101CC0000E340034303400340E34C0340134303437
:101CD0000034003400340034003400340034C034A4
:101CE000033400341C340034303400340E34E03417
:101CF000013410340034E034013400340E34003444
:101D0000303400341C34C0340334303400340034F4
:101D100000340034003410342034603418348034FB
:101D20000434003403348034043460341834103400
:101D300020340034003400340034003400340034E3
:101D40000034003400341034003460340034803403
:101D5000013400343E3480340134603400341034B3
:101D600000340034003400340034003400340034D3
:101D7000003400340034103430341034283410343B
:101D8000243410342334903420345034203430340C
:101D90002034003400340034003400340034003483
:101DA0000034003400340034003400340034F8349B
:101DB000FF3408340034083400340834003400346C
:101DC0000034003400340034003400340034003473
:101DD000003400340034003400340034003418344B
:101DE0000034E03400340034073400343834003434
:101DF000C034003400340034003400340034003483
:101E0000003400340034003400340034003408342A
:101E100000340834003408340034F834FF3400341B
:101E20000034003400340034003400340034003412
:101E30000034003400340034013480340034603421
:101E400000341034003410340034603400348034F2
:101E500000340034013400340034003400340034E1
:101E600000340034003400348034003480340034D2
:101E700080340034803400348034003480340034C2
:101E800080340034803400340034003400340034B2
:101E900000340034003400340034003400340034A2
:101EA00000340C3400341034003400340034003476
:101EB0000034003400340034003400340034003482
:101EC00000340034003400340034003418348034DA
:101ED00024344034223440342234403412348034A8
:101EE0003F34003400340034003400340034003413
:101EF000003400340034F8343F348034203440342B
:101F000020344034203440342034803410340034C1
:101F10000F34003400340034003400340034003412
:101F20000034003400340034003400340F34803482
:101F30001034403420344034203440342034803451
:101F400010340034003400340034003400340034E1
:101F500000340034003400340F3480341034403402
:101F60002034403420344034203440341034F834A9
:101F70003F34003400340034003400340034003482
:101F80000034003400340034003400340F34803422
:101F900012344034223440342234403422348034E9
:101FA000133400340034003400340034003400347E
:101FB0000034003400340034003400340034403441
:101FC0000034F0343F3448340034483400340834AA
:101FD0000034003400340034003400340034003461
:101FE00000340034003400340F34803490344034F2
:101FF0002034403420344034203440349034C034D1
:102000007F340034003400340034003400340034B1
:10201000003400340034F8343F3480340034403429
:1020200000344034003440340034403400348034D0
:102030003F340034003400340034003400340034C1
:1020400000340034003400340034003400340034F0
:102050000034D0343F3400340034003400340034D1
:1020600000340034003400340034003400340034D0
:102070000034003400340034003400340034403480
:10208000003440340034D034FF34003400340034A1
:1020900000340034003400340034003400340034A0
:1020A00000340034003400340034F8343F34003459
:1020B00002340034053480340834403410340034A1
:1020C0002034003400340034003400340034003450
:1020D0000034003400340034003400340034003460
:1020E0000034F8343F340034003400340034003419
:1020F0000034003400340034003400340034003440
:102100000034C0343F348034003440340034403430
:10211000003480343F348034003440340034403460
:10212000003480343F340034003400340034003450
:10213000003400340034C0343F3480340034403440
:1021400000344034003440340034403400348034AF
:102150003F340034003400340034003400340034A0
:1021600000340034003400340F34803410344034F0
:10217000203440342034403420348034103400344F
:102180000F340034003400340034003400340034A0
:10219000003400340034C034FF3480342034403400
:1021A000203440342034403420348034103400341F
:1021B0000F34003400340034003400340034003470
:1021C00000340034003400340F3480341034403490
:1021D0002034403420344034203440341034C0346F
:1021E000FF34003400340034003400340034003450
:1021F0000034003400340034003400340034C0347F
:102200003F348034003440340034403400340034EF
:10221000003400340034003400340034003400341E
:10222000003400340034003400348034113440343D
:10223000223440342234403424348034183400347E
:1022400000340034003400340034003400340034EE
:10225000003400340034003400340034003440349E
:102260000034F0341F3440342034403420344034BF
:10227000203400340034003400340034003400349E
:10228000003400340034C0341F34003420340034AF
:102290002034003420340034203400341034C0346E
:1022A0003F3400340034003400340034003400344F
:1022B000003400340034C0340034003403340034BB
:1022C0000C340034303400340C3400340334C03463
:1022D000003400340034003400340034003400345E
:1022E0000034C034003400340F340034303400344F
:1022F0000F34C034003400340F3400343034003430
:102300000F34C0340034003400340034003400345E
:10231000003400340034403420348034103400342D
:102320000934003406340034093480341034403425
:1023300020340034003400340034003400340034DD
:10234000003400340034C03400340034033400342A
:102350008C340034703400340C3400340334C03412
:1023600000340034003400340034003400340034CD
:10237000003400340034003400344034303440340D
:1023800028344034263440342134C03420340034DE
:10239000003400340034003400340034003400349D
:1023A000003400340034003400340034023400348B
:1023B0000234F034FD34083400340834003400347E
:1023C000003400340034003400340034003400346D
:1023D000003400340034003400340034003400345D
:1023E000003400340034F834FF3400340034003456
:1023F000003400340034003400340034003400343D
:102400000034003400340034003400340034083424
:10241000003408340034F034FD3400340234003425
:10242000023400340034003400340034003400340A
:1024300000340034003400340734803400348034F5
:1024400000340034013400340234003404340034E5
:102450000434803403340034003400340034003455
:10246000003400340034003400340034FF340134CC
:102470008034FF340334C034FF340734E034FF3495
:102480000F34E03401340F34E03400340E34E034DF
:1024900001340F34E034FF340F34C034FF340734D8
:1024A0008034FF3403340034FF340134003400340A
:1024B000003400340034003400340034003400347C
:1024C00000340034003400340034803403340E34DB
:1024D000803403340E34803403340E34E034FF345B
:1024E0000F34E034FF340F34E034FF340F34E03481
:1024F000FF340F34003400340E34003400340E3412
:10250000003400340E34003400340034003400341D
:102510000034003400340034003400340034C0345B
:1025200001340E34E03401340F34E03400340F341D
:10253000E03480340F34E034C0340F34E034E0341D
:102540000F34E034F1340E34E0347F340E34C034D0
:102550003F340E34C0341F340E3480340F340E3404
:10256000003400340E3400340034003400340034BD
:102570000034003400340034C03401340734E03413
:1025800001340F34E03400340E34E03438340E3487
:10259000E03438340E34E03438340E34E0343C3433
:1025A0000F34E034FF340F34C034EF340734C03418
:1025B000EF3407348034C73403340034003400343B
:1025C000003400340034003400340034003400346B
:1025D00000340034F03400340034F8340034003473
:1025E000FC3400340034E73400348034E334003405
:1025F000C034E1340034E034FF340F34E034FF34CD
:102600000F34E034FF340F34E034FF340F3400343F
:10261000E03400340034E03400340034003400345A
:10262000003400340034003400340034003400340A
:102630000734E0341F340E34E0341F340E34E034F9
:102640001F340E34E0341F340E34E0341C340E34A6
:10265000E0343C340F34E034FC340F34E034FC34E8
:102660000734E034F8340334E034F0340134003417
:1026700000340034003400340034003400340034BA
:102680000034003400340034FC3401340034FF34AE
:1026900003348034FF340734C034FF340F34E03463
:1026A0001B340F34E0341D340E34E0341C340E344B
:1026B000E034FC340F34E034FC340734E034F834D4
:1026C00007340034F0340134003400340034003472
:1026D000003400340034003400340034003400345A
:1026E000E03400340834E03400340E34E034803414
:1026F0000F34E034C0340F34E034F0340F34E034BD
:10270000FC340334E034FF340034E0347F340034EC
:10271000E0341F340034E03407340034E034013452
:102720000034003400340034003400340034003409
:10273000003400340034003400348034C7340334AF
:10274000C034EF340734C034FF340734E034FF348E
:102750000F34E0341C340E34E03438340E34E034BA
:1027600038340E34E034FF340F34E034FF340734AF
:10277000C034E73407348034C334033400340034C5
:1027800000340034003400340034003400340034A9
:102790000034003400341F340034C0343F340E346D
:1027A000C0347F340E34E0347F340E34E03470347F
:1027B0000E34E03470340F34E034B1340F34E0348C
:1027C000FF340734C034FF3403348034FF34013421
:1027D00000347F34003400340034003400340034DA
:1027E00000341C340034003414347C3400341C3481
:1027F000FF3401348034FF340334C034C734073429
:10280000C03400340634603400340C3420340034D6
:1028100008342034003408342034003408342034A0
:102820000034083460340034083440340034043454
:10283000C03401340434E0340334023400348034CE
:1028400000340034C03400340034E0340034003448
:10285000F03400340034F83400340034FC340034F4
:102860000034FE3400340034FF3400340034FE34CD
:1028700000340034FC3400340034F83400340034C4
:10288000F03400340034E03400340034C034003418
:102890000034803400340034013400340034033414
:1028A000003400340734003400340F340034003472
:1028B0001F34003400343F34003400347F3400349B
:1028C0000034FF34003400347F34003400343F34AB
:1028D000003400341F34003400340F34003400342A
:1028E000073400340034033400340034013400343D
:1028F000003400340034003480340F340034603449
:102900003034003420346034003400344034003437
:102910000034C0340034003480340034FE34803459
:1029200000340034803400340034C03400340034C7
:1029300040340034203460340034603430340034A7
:1029400080340F3400340034003400343034C03468
:1029500000347034E0340034E03470340034C23475
:1029600018340034EE340E340034FC340D340034AA
:10297000F8340334003480340734003420340F3406
:10298000003470341E34003478343C3400343C3429
:10299000783400341E34F03400340C3460340034A5
:1029A0000034003400348034033400348034033481
:1029B00000348034033400348034033400348034F1
:1029C000033400348034033400348034033400345E
:1029D000D03417340034F8343F340034F8343F3402
:1029E0000034F0341F340034E0340F340034C03489
:1029F00007340034803403340034003401340034AC
:102A0000FE3400348034FF340334C034FF340734E0
:102A1000C034FF340734E03483340F34E0340034FE
:102A20000E34E03400340E34E03400340E34E0343C
:102A300000340E34E03483340F34C034FF340734B0
:102A4000C034FF3407348034FF3403340034FE34A0
:102A500000340034003400340034003400340034D6
:102A600000340034E034FF340F34E034FF340F34EA
:102A7000E034FF340F34E034FF340F34E0343834C2
:102A80000034E03438340034E03438340034E03496
:102A900038340034E03438340034E034383400342E
:102AA000E03438340034003400340034003400346E
:102AB0000034003400340034E03400340034E034B6
:102AC00000340034E03400340034E03400340034A6
:102AD000E034FF340F34E034FF340F34E034FF349B
:102AE0000F34E034FF340F34E03400340034E03489
:102AF00000340034E03400340034E0340034003476
:102B00000034003400340034003400340034003425
:102B10000034003400340034003400340034E03435
:102B200000340E34E03400340E34E034FF340F341B
:102B3000E034FF340F34E034FF340F34E034FF343A
:102B40000F34E03400340E34E03400340E340034FA
:102B500000340034003400340034003400340034D5
:102B600000340034003400340034003400340034C5
:102B70000034E034FF340F34E034FF340F34E034F9
:102B8000FF340F34E034FF340F34E0347034003459
:102B9000E03470340034E03470340034E03479349C
:102BA0000034E0347F340034C0343F340034C03467
:102BB0001F34003480340F340034003400340034C7
:102BC000003480347F340034C034C03400344034A6
:102BD000C03400344034C03400344034C63400348F
:102BE0000034CC3400340034D8340034FC34DF34C6
:102BF00000340034D83400344034CC340034403411
:102C0000C63400344034C03400344034C03400345E
:102C1000C0347F34003480343F3400340034003416
:102C20000034803407340034F0341F340034383436
:102C3000383400341C34603400340C3460340034D4
:102C4000C434C63400348434C33400348434C334CC
:102C50000034C434C63400340C34603400341C34C2
:102C600060340034383438340034F0341F340034E5
:102C7000803407340034003400340034203400340D
:102C800000347C34003400347F34C034C0347F34AA
:102C9000F034F0347F347E34FC34FF341F34FF349E
:102CA000FF340F34FF34FF340734FF34FF34013472
:102CB000FF34FF3400347F347E3400343F341E341C
:0E2CC00000340F340E34003402340434003477
:102CD000D101C601C901B73140279631AC31E92491
:102CE00096312100CB01C7010030B731552796310D
:102CF0002000A00020082100C4000130B731552772
:102D000096312000A00020082100C5000230B73114
:102D1000552796312000A00020082100C30005306F
:102D20004402031C992E04302000A000200821003A
:102D3000C4004408031D9E2EC401C40A2E3045025F
:102D4000031CA82E23302000A00020082100C5006D
:102D500005304302031C080004302000A0002008B6
:102D60002100C3000800C5003A08CE003B08CF0090
:102D70003C08D0003D08D1003E08D2003F08D300F7
:102D80004008D4004108D5004E308600003087004E
:102D9000473FC200C21FCE2E0130CF2E0030200090
:102DA000C300C4014308CC004408CD004C084D04C6
:102DB0000319F82ECE09CF09D009D109D209D309B8
:102DC000D409D509CE0A031DF82ECF0A031DF82E0B
:102DD000D00A031DF82ED10A031DF82ED20A031DB6
:102DE000F82ED30A031DF82ED40A031DF82ED50A97
:102DF0002100A31BFF2EFD30A405FF30A5052308ED
:102E0000803A2000C20080304202031D0A2F0130A8
:102E1000210022020318122F01302000C8000030C8
:102E2000C9001A2F210023082000C9002100220810
:102E30002000C800210021082000CB00210020082C
:102E40002000CA004C084D04031D292F2100241D19
:102E50002E2FFF302000CA07FF30CB3D1F3020004F
:102E6000D6000030D7002300DF01C22F20004E081B
:102E70004F04500451045204530454045504031DD8
:102E80005B2F4908803AC20080304202031D4A2F5E
:102E90000130480203185B2F20004B08803AC20023
:102EA00080304202031D562F01304A02031CCE2FF0
:102EB0002100A41CCE2FFF302000D607FF30D73DC5
:102EC0000A30A000A101A201A301A401A501A6014D
:102ED000A7014E08A8004F08A9005008AA005108F1
:102EE000AB005208AC005308AD005408AE005508C2
:102EF000AF00A031B82096312108B3002008B200FD
:102F0000A931CF21963120003208303EC200560848
:102F1000C03E86000130870042088100FF30C807AC
:102F2000FF30C93DFF30CA07FF30CB3D0A30A0005B
:102F3000A101A201A301A401A501A601A7014E08B8
:102F4000A8004F08A9005008AA005108AB00520879
:102F5000AC005308AD005408AE005508AF00A131D5
:102F6000952196312008CE002108CF002208D000FC
:102F70002308D1002408D2002508D3002608D40055
:102F80002708D50020005708803AC200803042024E
:102F9000031DCC2F013056020318362F20004C0899
:102FA0004D04031DD62F2100241DEE2FFF302000DD
:102FB000D607FF30D73D4C084D04031DE12F2B30C1
:102FC000E22F2D30C6000030C7004608C200560868
:102FD000C03E86000130870042088100200056086C
:102FE000C03EC2004208AF004B08B1004A08B00022
:102FF0004508983103203008BB002F08BA000800AC
:10300000200018140800B7002100241C10282000FC
:103010003708B2003208F4002F08AA318D22983107
:103020002000B11B18283108B6003008B5001A2856
:10303000B501B601B301B4013408803AB2003608D4
:10304000803A3202031D26283508330203183A2835
:1030500020302000A0000030A1003708B200320864
:10306000A200AB31A123983101302000B30700301A
:10307000B43D1C2821002418462820003708B2003F
:103080003208F4002F08AA318D22983120002F0831
:10309000A931E72135087407AF003608753DB00047
:1030A00008002000EA00580886008701403FDA0047
:1030B000413FDB005A0884005B0885001200253A76
:1030C000031D6C29580886008701013081074131B2
:1030D0000318810A2100A001A101A401A501FF306C
:1030E000A200FF30A3002000580886008701403F5F
:1030F000DA00413FDB005A0884005B0885001200BB
:103100002A3A031DA128580886008701013081074B
:1031100041310318810A590886008701010884009B
:10312000850102308107003F2100A000013FA1007E
:10313000A11FE2282414A009A109A00A0319A10AC9
:10314000E228580886008701403FA400413FA500BF
:10315000AE31A626983125082100A10020002408C0
:103160002100A000BB285808860087010130810794
:1031700041310318810A2000580886008701403F2A
:10318000DA00413FDB005A0884005B088500000834
:10319000D03EDC00FF3003180030DD0000305D025F
:1031A0000A3003195C020318D7280130D8280030F0
:1031B000DE00DF015E08E8005F08E90068086904D6
:1031C000031DB3282000580886008701403FDA001D
:1031D000413FDB005A0884005B0885001200643A16
:1031E00003190129580886008701403FDA00413F52
:1031F000DB005A0884005B0885001200693A031D51
:103200003A295808860087010130810741310318A7
:10321000810A59088600870101088400850102306F
:103220008107003FDA00013FDB005A08E0005B083D
:10323000E100890D893B8909E200E300E400E50033
:10324000E600E7006008BA006108BB006208BC0045
:103250006308BD006408BE006508BF006608C000C2
:103260006708C1006A089631B3263B08D9003A08BE
:10327000D8000800580886008701403FDA00413F27
:10328000DB005A0884005B0885001200253A031D04
:1032900061295808860087010130810741310318F0
:1032A000810A2530A0000030A1006A08DA005A081F
:1032B000A200AB31A12301302000D8000030D9009A
:1032C0000800580886008701013081074131031842
:1032D000810AD801D9010800580886008701403FBB
:1032E000DA00413FDB005A0884005B0885000008D3
:1032F000DC00DD015C08A0005D08A1006A08DE00BA
:103300005E08A200AB31A123983120005808860046
:1033100087010130810741310318810A5B29AD31F2
:103320004D259931E9006908ED0001302200A4071C
:103330000030A53D21006D03031DAA294908031D86
:10334000A6290130E9006908CA07AA29C901220093
:10335000A401A501103021006D06031DBD294908F7
:10336000031DB829CA010230E9006908C700B9295C
:10337000C9012200A401A501F42902306D06031D34
:10338000D32949080319C9290130E9006908C80788
:10339000F4290330E9006908C700CA01D2012200FC
:1033A000AA01AB01B92920306D06031DF4290430B0
:1033B0004A06031DE82949080319E029C901F22931
:1033C000C901C90A2200AA01AB012100C801F229E2
:1033D0000330E9006908C700D2012200AA01AB014D
:1033E000A401A5012100CA0121004903031D522B9C
:1033F0000130E9006908D10704305106031D042A91
:103400000230A931A421993106305106031D822AC8
:10341000003022002B02C83003192A02031C592A4B
:1034200009302100E9006908C800592A432A0A30F6
:103430002200A6000030A7000E14512A432A14309F
:103440002200A6000030A7000E148E1021008E145A
:103450003E2A432A1E302200A6000030A7000E1488
:103460008E1021008E10542A432A28302200A600F4
:103470000030A7000E148E1021008E1022000E11B5
:1034800021000E11822A2200A601A7010E10512A46
:1034900022000E102100C901C801822A2200A601C3
:1034A000A7018E1021008E1422000E1121000E158E
:1034B000822A21004808E900EA016A08003A031953
:1034C000622A4E2A6908003A0319162A013A03199A
:1034D000172A033A03191E2A013A03191F2A073A29
:1034E0000319292A013A03192A2A033A0319342A0B
:1034F000013A0319352A0F3A0319432A013A0319ED
:10350000482A4E2A64305102031C0800D1010130C0
:103510002200AA070030AB3D0E1021003108F50053
:103520003008F400B731EA27993175082100AD0061
:103530007408AC002F08F5002E08F400B731A3275B
:10354000993175082100AB007408AA00A931FF2148
:10355000993116302100D700B830D8000A30200049
:10356000A4000030A50021002B082000A7002100A6
:103570002A082000A600AB316D23993125082100CF
:10358000DA00200024082100D9000A302000A00021
:103590000030A10021002B082000A30021002A08F0
:1035A0002000A200AA31D922993121082100DC0093
:1035B000200020082100DB003A30AA31B2229931E4
:1035C00000302000A400A5000030A600A7003A307B
:1035D000A8000130A900AF31452799316B30210097
:1035E000D700B830D800220027082100DA002200D6
:1035F00026082100D9003A30AA31B2229931403050
:103600002000A4000030A5000030A600A7003A303A
:10361000A8000130A900AF31452799317030210051
:10362000D700B830D8003A30AA31B22299310030F0
:103630002000A400A5000230A6000030A7003A3008
:10364000A8000130A900AF31452799310130210090
:103650002D02F43003192C020318372B4830D70001
:10366000B830D8002D08DA002C08D9003B2B613087
:10367000D700B830D8003A30AA31B2229931403060
:103680002000A4000030A5000230A6000030A700F2
:103690003A30A8000130A900AF3145279931B73140
:1036A0003827080022000E1001302502F4300319DB
:1036B0002402031C080021002F08F5002E08F40046
:1036C000B731A327993175082100AB007408AA000F
:1036D0002200A401A501A931FF2199310030A400E5
:1036E000A5000030A600A7000E30A8000030A900F9
:1036F000A2318A2299312830A4000030A50001307F
:10370000A6000030A7001030A8000030A900A231A8
:103710008A2299313730A4000030A5000130A6007C
:103720000030A7001130A8000030A900A2318A2281
:1037300099314630A4000030A5000130A6000030C9
:10374000A7001130A8000030A900A2318A229931C7
:103750007030A4000030A5000030A600A7000D3096
:10376000A8000030A900A2318A2299312100440822
:10377000E900EA0169082000A00021006A08200091
:10378000A1000A30A2000030A300AA311922993109
:1037900021082100EC00200020082100EB0000306F
:1037A000D700B830D8006C08DA006B08D9000A30AE
:1037B0002000A4000030A50021002B082000A70055
:1037C00021002A082000A600AB316D23993125087D
:1037D0002100DC00200024082100DB000A3020004A
:1037E000A0000030A10021002B082000A300210030
:1037F0002A082000A200AA31D922993121082100EB
:10380000DE00200020082100DD003A30AA31B2227B
:10381000993128302000B4000030B5000030B600E7
:10382000B7003A302100E90069082000B800AC3147
:103830008C249931B731382799310230A931A4212C
:103840000800AD314D259C31E9006908ED006D039C
:10385000031D392C2200AA01AB01003021002902EE
:10386000973003192802031C392C0A30A8020030B3
:10387000A93B02306D06031D4C2C2200AA01AB01AE
:10388000013021002902C2300319280203184C2CF0
:103890000A30A8070030A93D20306D06031D522CC8
:1038A000C701C70A0130E9006908B20704303206CF
:1038B000031D5E2C0230A931A4219C310630320652
:1038C000031DEC2C3108F5003008F400B731EA276D
:1038D0009C3175082100AD007408AC004B35A03E4A
:1038E0008600013087002C08C03F2D08C13F013001
:1038F000E9006908CB0708304B020318CB01A60189
:10390000A701C2014235A03E860001308700403F3A
:10391000E900413FEA006908A6076A08A73D0130AF
:10392000E9006908C20708304202031C822C2D08F6
:10393000A7002C08A600B92CB02C22008E10210064
:103940008E14AB2C22008E1021008E10B42C22007D
:103950008E1021008E1022000E1121000E11CF2C8E
:1039600022008E1021008E1422000E1121000E154F
:10397000CF2C4408E900EA016A08003A0319C12C77
:10398000B02C6908013A03199C2C033A03199D2CA9
:10399000013A0319A22C073A0319A72CB02C2908C5
:1039A0002D02031DD52C28082C020318E02C220020
:1039B0000E1421003408E9006908B300B401E22CB8
:1039C00022000E1001302100E9006908B40701301F
:1039D0002200AC070030AD3D643021003202031CF0
:1039E0000800B20101302200AA070030AB3D0130CF
:1039F0002B022C3003192A02031C302DAA01AB0123
:103A000001302100E9006908D207172DD201302DBD
:103A100002305202031C302DC701C70A062D0530A3
:103A2000092D0A30092D0F30092D1E30092D4308AC
:103A3000E900EA016A08003A03191F2D152D6908EB
:103A4000003A0319062D013A0319082D033A031908
:103A50000F2D013A0319112D073A0319132D152DB6
:103A600001302100E9006908B50722000E1021008D
:103A70002F08F5002E08F400B731A3279C317508F4
:103A80002100AB007408AA004603031D0E2EA931C5
:103A9000FF219C3116302100D700B830D8000A3001
:103AA0002000A4000030A50021002B082000A70062
:103AB00021002A082000A600AB316D239C31250887
:103AC0002100DA00200024082100D9000A3020005B
:103AD000A0000030A10021002B082000A30021003D
:103AE0002A082000A200AA31D9229C3121082100F5
:103AF000DC00200020082100DB003A30AA31B2228D
:103B00009C3100302000A400A5000030A600A700D2
:103B10003A30A8000130A900AF3145279C3121007F
:103B20004408E900EA0169082000A00021006A08B1
:103B30002000A1000A30A2000030A300AA311922FF
:103B40009C3121082100EC00200020082100EB001E
:103B50006B30D700B830D8006C08DA006B08D90099
:103B60003A30AA31B2229C3140302000A40000300B
:103B7000A5000030A600A7003A30A8000130A90037
:103B8000AF3145279C3175302100D700B830D800BF
:103B90003308E900EA016908D9006A08DA003A3016
:103BA000AA31B2229C3100302000A400A5000230CE
:103BB000A6000030A7003A30A8000130A900AF31BC
:103BC00045279C31013021002D02F43003192C02CD
:103BD0000318F32D4830D700B830D8002D08DA008C
:103BE0002C08D900F72D6130D700B830D8003A3012
:103BF000AA31B2229C3140302000A4000030A50040
:103C00000230A6000030A7003A30A8000130A90019
:103C1000AF3145279C31B731382708004608031DCE
:103C20000800A931FF219C31013021002D02EB3029
:103C300003192C02031C592E00302000A400A500FB
:103C40000130A6000030A7000C30A8000030A90009
:103C5000A2318A229C313230A4000030A50001300C
:103C6000A6000030A7001230A8000030A900A23141
:103C70008A229C314130A4000030A5000130A6000A
:103C80000030A7001330A8000030A900A2318A221A
:103C90009C315030A4000030A5000130A600003057
:103CA000A7001430A8000030A900A2318A229C315C
:103CB0003E2F0F3035020318B5012808E23EE90017
:103CC000FF30293DEA006A082702031D692E6908B2
:103CD00026020318802E053035020318842E143076
:103CE0002000A4000030A5000130A6000030A7008D
:103CF0001730A8000030A900A2318A229C31842EFE
:103D00002908A7002808A60064302000A40000307D
:103D1000A500210027082000A70021002608200078
:103D2000A600AB316D239C3124082100E90069080D
:103D3000B8000A302000A4000030A50021002708A8
:103D40002000A300210026082000A2006430A0006B
:103D50000030A100AA31D9229C312108A7002008F7
:103D6000A600AB316D239C3124082100E9006908CD
:103D7000B7000A302000A0000030A1002100270871
:103D80002000A300210026082000A200AA31D92289
:103D90009C3120082100E9006908B60000302000AD
:103DA000A400A5000130A6000030A7000C30A80038
:103DB0000030A900A2318A229C3121003808031961
:103DC000FA2E28302000A4000030A5000130A60003
:103DD0000030A70021003808E900EA016908200046
:103DE000A80021006A082000A900A2318A229C3183
:103DF0003730FF2E37080319162F37302000A40064
:103E00000030A5000130A6000030A70021003708CF
:103E1000E900EA0169082000A80021006A082000E2
:103E2000A900A2318A229C314630182F463020004A
:103E3000A4000030A5000130A6000030A70021003A
:103E40003608E900EA0169082000A80021006A0894
:103E50002000A900A2318A229C315730A4000030F2
:103E6000A5000130A6000030A7003F302100E90086
:103E700069082000A800A03114209C317030A400F3
:103E80000030A5000130A6000030A7000B30A800CC
:103E90000030A900A2318A229C3100302100290281
:103EA000973003192802031C742F7530D700B830DF
:103EB000D8002808F63ED900FF30293DDA003A3014
:103EC000AA31B2229C3101302000B4000030B5008C
:103ED0000030B600B7003A302100E9006908200040
:103EE000B800AC318C249C3121004408E900EA017F
:103EF00069082000A00021006A082000A1000A3003
:103F0000A2000030A300AA3119229C31210821000F
:103F1000EC00200020082100EB000030D700B83072
:103F2000D8006C08DA006B08D9000A302000A40021
:103F30000030A50021002B082000A70021002A083E
:103F40002000A600AB316D239C3125082100DC0048
:103F5000200024082100DB000A302000A0000030EF
:103F6000A10021002B082000A30021002A08200026
:103F7000A200AA31D9229C3121082100DE002000B4
:103F800020082100DD003A30AA31B2229C312830CD
:103F90002000B4000030B5000030B600B7003A3061
:103FA0002100E90069082000B800AC318C249C3164
:103FB000013021002902C2300319280203180B2EF8
:103FC0007530D700B830D80028080A3ED900003034
:103FD000293DDA003A30AA31B2229C3171302000FA
:103FE000B4000030B5000030B600B7003A30210010
:103FF000E90069082000B800AC318C249C310B2EFC
:10400000111022003308F1003208F000B731942774
:10401000A0312200300831040319080031088A0059
:1040200030080A00A0310800BE013E08A900AA011C
:10403000A935AA0D2808AB00AC012B08A0002C085C
:10404000A1001830A2000030A300AA311922A0312B
:104050004730AD008630AE0020082D07AF002108A4
:104060002E3DB0002F082907840030082A3D850026
:104070000008B1003E08B200B3012708B5002608C9
:10408000B4000730B435B50D890B4228F030B600C6
:104090002530B70034083607B8003508373DB90079
:1040A00032083807BA003308393DBB0024083A0704
:1040B000BC0025083B3DBD003C0886003D0887004C
:1040C000310881003E08A900AA01A935AA0D2808D7
:1040D000AB00AC012B08A0002C08A1001830A200F6
:1040E0000030A300AA311922A0314830AD0086303B
:1040F000AE0020082D07AF0021082E3DB0002F088C
:104100002907840030082A3D85000008B1003E08D8
:10411000B200B3012708B5002608B4000730B43553
:10412000B50D890B8F287030B6002630B7003408E3
:104130003607B8003508373DB90032083807BA00ED
:104140003308393DBB0024083A07BC0025083B3D35
:10415000BD003C0886003D08870031088100013021
:10416000A9002908BE070C303E02031808001528D4
:10417000B1012830860000308700473FF400F41F6B
:10418000E3282000A809A909AA09AB09AC09AD09CF
:10419000AE09AF09A80A031DE028A90A031DE028FB
:1041A000AA0A031DE028AB0A031DE028AC0A031D80
:1041B000E028AD0A031DE028AE0A031DE028AF0A7F
:1041C0002000B101B10A2030860000308700473F4F
:1041D000F400F41F0A292000A009A109A209A309DB
:1041E000A409A509A609A709A00A031D0A29A10A6D
:1041F000031D0A29A20A031D0A29A30A031D0A296D
:10420000A40A031D0A29A50A031D0A29A60A031DDB
:104210000A29A70A200020082104220423042404D8
:1042200025042604270403196229B001B00AA71B3C
:104230002629A035A10DA20DA30DA40DA50DA60D37
:10424000A70D0130F4007408B007172927082F02C2
:10425000031D442926082E02031D442925082D028A
:10426000031D442924082C02031D442923082B0282
:10427000031D442922082A02031D4429210829027A
:10428000031D442920082802031C56292008A802DF
:104290002108A93B2208AA3B2308AB3B2408AC3BDE
:1042A0002508AD3B2608AE3B2708AF3BA736A60C3A
:1042B000A50CA40CA30CA20CA10CA00C0130B00204
:1042C000031D2629310803198329A809A909AA0968
:1042D000AB09AC09AD09AE09AF09A80A031D8329D2
:1042E000A90A031D8329AA0A031D8329AB0A031DFA
:1042F0008329AC0A031D8329AD0A031D8329AE0A55
:10430000031D8329AF0A20002808A0002908A10066
:104310002A08A2002B08A3002C08A4002D08A50041
:104320002E08A6002F08A7000800B1012030860043
:1043300000308700473FF400F41FC0292000A00987
:10434000A109A209A309A409A509A609A709A00A08
:10435000031DBD29A10A031DBD29A20A031DBD29F4
:10436000A30A031DBD29A40A031DBD29A50A031D17
:10437000BD29A60A031DBD29A70A2000B101B10A63
:104380002830860000308700473FF400F41FEC29F6
:104390002000A809A909AA09AB09AC09AD09AE0911
:1043A000AF09A80A031DE729A90A031DE729AA0ADC
:1043B000031DE729AB0A031DE729AC0A031DE72902
:1043C000AD0A031DE729AE0A031DE729AF0A013034
:1043D000F40074082000B1063230860000308700F7
:1043E0000830F40000301E00F40BF32920002008F0
:1043F0002104220423042404250426042704031989
:10440000572AB001B00AA71B122AA035A10DA20D90
:10441000A30DA40DA50DA60DA70D0130F400740881
:10442000B007032AB235B30DB40DB50DB60DB70DF7
:10443000B80DB90D27082F02031D382A26082E02B1
:10444000031D382A25082D02031D382A24082C02B2
:10445000031D382A23082B02031D382A22082A02AA
:10446000031D382A21082902031D382A20082802A2
:10447000031C4B2A2008A8022108A93B2208AA3BBA
:104480002308AB3B2408AC3B2508AD3B2608AE3BDC
:104490002708AF3B3214A736A60CA50CA40CA30C1E
:1044A000A20CA10CA00C0130B002031D122A31088D
:1044B0000319782AB209B309B409B509B609B709CD
:1044C000B809B909B20A031D782AB30A031D782A6C
:1044D000B40A031D782AB50A031D782AB60A031DFB
:1044E000782AB70A031D782AB80A031D782AB90A60
:1044F00020003208A0003308A1003408A2003508CB
:10450000A3003608A4003708A5003808A60039081B
:10451000A7000800BD012908A1002808A0002D302F
:10452000A2000030A300AA311922A2312F30AA0024
:104530009230AB0020082A07AC0021082B3DAD00CB
:104540003D08AE00AF012E08A0002F08A1000330E7
:10455000A2000030A300AA311922A2312C082007A2
:1045600084002D08213D85000008B0003D08B10001
:10457000B2012708B4002608B3000730B335B40DE4
:10458000890BBE2AF030B5002530B6003308350758
:10459000B7003408363DB80031083707B900320893
:1045A000383DBA0024083907BB0025083A3DBC0055
:1045B0003B0886003C088700300881002908A100DC
:1045C0002808A0002D30A2000030A300AA31192233
:1045D000A2313030AA009230AB0020082A07AC008C
:1045E00021082B3DAD003D08AE00AF012E08A00014
:1045F0002F08A1000330A2000030A300AA31192225
:10460000A2312C08200784002D08213D85000008D8
:10461000B0003D08B100B2012708B4002608B3007D
:104620000730B335B40D890B112B7030B50026302F
:10463000B60033083507B7003408363DB8003108F6
:104640003707B9003208383DBA0024083907BB00E3
:1046500025083A3DBC003B0886003C08870030082E
:1046600081002908A1002808A0002D30A2000030F8
:10467000A300AA311922A2313130AA009230AB0036
:1046800020082A07AC0021082B3DAD003D08AE00F4
:10469000AF012E08A0002F08A1000330A2000030B7
:1046A000A300AA311922A2312C08200784002D086A
:1046B000213D85000008B0003D08B100B201270887
:1046C000B4002608B3000730B335B40D890B642B52
:1046D000F030B5002630B60033083507B70034088F
:1046E000363DB80031083707B9003208383DBA0006
:1046F00024083907BB0025083A3DBC003B0886006A
:104700003C088700300881000130AA002A08BD0754
:104710000F303D02031808008B2A003400340034A7
:10472000003400340034C034003400340034003429
:1047300000340034003400340034003400340034D9
:1047400000340034003400340034003400340034C9
:1047500000340034003400340034003400340034B9
:104760000034003400348034C034C034C0344034A9
:1047700060346034603420343034303430341034B9
:1047800018341834183408340C340C340C34043411
:1047900006340634063406340C340C347834F034E1
:1047A000C0341C34FC34F834C0341C347C347034D1
:1047B00000341C341C340034003400340034003421
:1047C0000034003400340034003400340034003449
:1047D0000034003400340034003400340034003439
:1047E0000034003400340034003400340034003429
:1047F0000034003400340034003400340034003419
:104800000034003400340034003400340034003408
:1048100000340034003400340034003400343034C8
:10482000C83434340B34C4342134503426341E3468
:1048300000340034003400340034003400340034D8
:1048400000340034003400340034003400340034C8
:104850000034003400347E34FF34FF34FF34FF343E
:10486000FF34FE34FF34F934C034003400340034F3
:104870000034003400340034003400340034003498
:104880000034003400340034003400340034003488
:10489000003400340034003480348034C034E334D5
:1048A0007F341E34003403340334013400340034C4
:1048B0000034003400340034003400340034003458
:1048C0000034003400340034003400340034003448
:1048D0000034003400340034003400340034003438
:1048E0000034003400340034003400340034003428
:1048F0000034003400340034003400340034003418
:104900000034003400340034003400340034003407
:1049100000340034003400340034003400340734F0
:1049200009340E341F342434793400340034003414
:1049300000340034803480348034C034C034C03417
:104940006034603460343034303410341834183407
:1049500088348C34CC34C634C7347F347F34FF344D
:10496000FF34FF34FF34FF34FF34FE34F03480343E
:104970000034203430343034183498349834C0340F
:10498000C0346034603430343034183418340C346B
:104990000C3406340234033401340134003404345A
:1049A0000E34FC34FE34FE34FE341E340434003441
:1049B00000340034003400348434CE34CE34EE3449
:1049C000E634E034EE34EE34CE34CE3404346034A5
:1049D0006034F034F834F834FC34F8346034603443
:1049E0002034F834FC34FC34EE34CE34DE349C34E1
:1049F0000834C434EC34EE34EE34E434003400349F
:104A00006034E034E034E034E034E034E0348034E6
:104A1000E034E034603400340034003400340034D6
:104A20000034603460347034303428342C343E34F4
:104A30003F343B34313431341934183418340C34A5
:104A40000C340C3406340634023403340334013499
:104A500001340134003400340034003400340334B1
:104A60000F341F341F341F341F341F340F340334EA
:104A70000334023402340334033401340134003487
:104A80000034003400340034003400340034003486
:104A90000034003400340034003400340034203456
:104AA00070347F347F347F347F34783470347034A2
:104AB000703478343C3408341F343F347F347F34CE
:104AC0007C34703477343F343F341F340F34003437
:104AD00000341F343F347F347F347F3470343034BB
:104AE000103421347F347F347F347F347F34213459
:104AF000003470347F347F347F347F34703400343A
:104B0000603470347D340F340F347F347F347F341D
:104B10007F347834603400340034AD314D25A53114
:104B2000E9006908ED0020306D06031DE92FA93169
:104B3000FF21A5311430A4000030A5000130A600EB
:104B40000030A7004D30A800B830A900AF3145278C
:104B5000A531B73138272100B901C701C70A0800BC
:104B6000A931FF21A5311430A4000030A500003088
:104B7000A600A7005B30A800B830A900AF314527D8
:104B8000A53121004508E900EA0169082000A000DC
:104B900021006A082000A1000A30A2000030A30012
:104BA000AA311922A53121082100EC00200020089B
:104BB0002100EB004630D700B830D8006C08DA008E
:104BC0006B08D9003A30AA31B222A5311430200046
:104BD000A4000030A5000230A6000030A7003A3043
:104BE000A8000130A900AF314527A5310030A4004D
:104BF000A5000030A600A7000F30A8000030A900D3
:104C0000A2318A22A5316830A4000030A50000300E
:104C1000A600A7001630A8000030A900A2318A2201
:104C2000A531B73138272100B901B90A0800103081
:104C30006D06031D842EA931FF21A5311430A40077
:104C40000030A5000030A600A7005B30A800B830F7
:104C5000A900AF314527A53121004408E900EA0148
:104C600069082000A00021006A082000A1000A3085
:104C7000A2000030A300AA311922A5312108210089
:104C8000EC00200020082100EB005430D700B830A1
:104C9000D8006C08DA006B08D9003A30AA31B22289
:104CA000A53114302000A4000030A5000230A60079
:104CB0000030A7003A30A8000130A900AF314527E5
:104CC000A5310030A400A5000030A600A7000F30D9
:104CD000A8000030A900A2318A22A5316830A400C2
:104CE0000030A5000030A600A7001630A800003054
:104CF000A900A2318A22A531B7313827023021001C
:104D0000E9006908B90008006D03031DC42E1030C6
:104D10004502031C08000130C5024508E900EA010C
:104D200069082000A00021006A082000A1000A30C4
:104D3000A2000030A300AA311922A53121082100C8
:104D4000EC00200020082100EB004630D700B830EE
:104D5000D8006C08DA006B08D9003A30AA31B222C8
:104D6000A53114302000A4000030A5000230A600B8
:104D70000030A7003A30A8000130A900AF31452724
:104D8000A531B7313827080002306D06031D080031
:104D90002B304502031808000130E9006908C507F7
:104DA0008D2E10306D06031D482FA931FF21A5312E
:104DB0001430A4000030A5000030A600A7005B302E
:104DC000A800B830A900AF314527A5310030A400B4
:104DD000A5000030A600A7001530A8000030A900EB
:104DE000A2318A22A5316830A4000030A50000302D
:104DF000A600A7001630A8000030A900A2318A2220
:104E0000A53121004308031D092F0E30D700B8300B
:104E10002B2F4303031D102F2E30D700B8302B2F1C
:104E200002304306031D182F3630D700B8302B2F21
:104E300003304306031D202F1E30D700B8302B2F20
:104E400004304306031D282F3E30D700B8302B2FE7
:104E50002630D700B830D8003A30AA31B222A53176
:104E600014302000A4000030A5000230A60000305D
:104E7000A7003A30A8000130A900AF314527A5317D
:104E8000B731382703302100E9006908B90008006C
:104E90006D03031D522F02304402031C0800013031
:104EA000C4025E2F02306D06031D08000430440268
:104EB000031808000130E9006908C4074408E90044
:104EC000EA0169082000A00021006A082000A10072
:104ED0000A30A2000030A300AA311922A53121080E
:104EE0002100EC00200020082100EB005430D70006
:104EF000B830A82E10306D06031DA72F4408E90016
:104F00006908F4000030AA316D22A531210045085E
:104F1000E9006908F4000130AA316D22A5312100B1
:104F20004308E9006908F4000230AA316D22A53176
:104F3000A931FF21A5311430A4000030A5000130B3
:104F4000A6000030A7006630A800B830A52D6D037C
:104F5000031DB02F4308031908000130C302BC2F02
:104F600002306D06031D08000430430203180800D8
:104F70000130E9006908C3074308031DC32F0E3041
:104F8000D700B830E52F4303031DCA2F2E30D700BA
:104F9000B830E52F02304306031DD22F3630D7003C
:104FA000B830E52F03304306031DDA2F1E30D7003B
:104FB000B830E52F04304306031DE22F3E30D70002
:104FC000B830E52F2630D700B830D800AD2EB90163
:104FD00008003908E900EA016A08003A0319F12FCC
:104FE000E72F6908003A0319B02D013A0319172E6B
:104FF000033A0319D12E013A03197A2FE72F08003B
:105000000134003401345E34033406340034063491
:10501000053428347C3428347C3428340534243452
:105020002A347F342A34103403346234183446343A
:10503000053430344C345A3424345034013406347A
:1050400002343C344234023442343C340534283493
:1050500010347C3410342834033410343834103491
:105060000134C0340334103410341034013440346B
:10507000033460341834063404343C34423442344B
:105080003C34033444347E34403404344434623495
:1050900052344C3403344A344A34343404341E34E5
:1050A00010347C34103403344E344A3432340434F3
:1050B0003C344A344A3430340334623412340E34CB
:1050C000043434344A344A34343404340C345234DE
:1050D00052343C340134483402348034683403346C
:1050E0001034283444340334283428342834033426
:1050F0004434283410340334023452340C3405342C
:105100003C34423452342A343C3404347C34123437
:1051100012347C3404347E344A344A343434043413
:105120003C3442344234243404347E3442344234F5
:105130003C3403347E344A344A3403347E340A34F3
:105140000A3404343C3442345234343404347E342B
:10515000083408347E34033442347E344234033419
:10516000423442343E3404347E34083414346234DD
:1051700003347E344034403405347E3404340834FF
:1051800004347E3405347E340434183420347E34C0
:1051900004343C34423442343C3404347E341234DB
:1051A00012340C3404343C3442344234BC340434BD
:1051B0007E34123412346C34043444344A344A3465
:1051C0003034033402347E34023404343E34403408
:1051D00040343E3405340634183460341834063410
:1051E00005343E3440343E3440343E340534423499
:1051F000243418342434423404349E34A034A0348B
:105200007E340434623452344A34463402347E34B8
:1052100042340334063418346034023442347E3469
:105220000334203410342034043480348034803407
:105230008034023404340834043420345434543474
:10524000783404347E3444344434383404343834C8
:1052500044344434283404343834443444347E34BC
:105260000434383454345434583402347C340A34DA
:1052700004349834A434A4347C3404347E340434A8
:105280000434783401347A34023440343A34043407
:105290007E3410342834443401347E3405347C3474
:1052A000043478340434783404347C3404340434DE
:1052B0007834043438344434443438340434FC34DA
:1052C0002434243418340434183424342434FC347E
:1052D00002347C3404340434483454345434203498
:1052E000033404343E34443404343C3440344034D5
:1052F0003C3405340C343034403430340C34053410
:105300003C3440343C3440343C3405344434283458
:1053100010342834443404349C34A034A0347C3415
:105320000334643454344C34033408343634413454
:105330000134FF3403344134363408340434203427
:065340001034203410348B
:10534800F5007508F400F40DF40D21001D0874062D
:10535800833974069D001D144230890BB12900322F
:1053680021009D1408007408D03E2000A000FF30E2
:10537800753DA100003021020A30031920020318EC
:10538800C7290130C8290030A200A3012208F4006F
:105398002308F50008003308803AB400803034024E
:1053A800031DD829013032020318080020003209F1
:1053B800B4003309B500B40A0319B50A3408B200B9
:1053C8003508B3000800A2002208A0002008A100A8
:1053D800220886000130870001080319F8290130E6
:1053E800A0002008A207EC2921082202F400F501F8
:1053F800F41BF50308002000A001A101F030F4001F
:105408002530F5002008740786002108753D8700BF
:1054180081010130A0070030A13D02302102003097
:105428000319200203180800022AF401F501201CC0
:10543800212A2208F4072308F53D0130A235A30DDF
:10544800890B222A0130A136A00C890B272A2008B3
:105458002104031D1B2A7508A1007408A000080078
:10546800013020009900F830970030309600170876
:105478002200B300200016082200B20020001110FC
:10548800210011140230F4000030F500B7311C2758
:1054980031302000980008002000A201A20A203024
:1054A800740675040319652A7408F73EA000FF30D6
:1054B800753DA100003021020530031920020318B0
:1054C800A2012208A000A1012008F4002108F5008B
:1054D80008002000A0002008230091007408930011
:1054E80095131513151500308B1B01302000A100F2
:1054F8008B13553023009600AA3096009514951802
:10550800832A15112000210C031C8B1303188B17F9
:105518000800AE00AC01AD012C082E07A800280831
:105528008600013087000108A9002908AB002B0874
:10553800031908002B08A800A9012808A0002908B9
:10554800A1007408AA002A08A200AB31A123AA313D
:1055580001302000AC070030AD3D902AE800D9307A
:10556800DF005F08E2006808DF005F08E300E4018D
:10557800E501E601E70158082000EC002100570882
:105588002000EB00E2302100DF005F082000ED0082
:10559800E330AB313923210064086807DF005F0876
:1055A80086000130870081010800200821040319C2
:1055B800002BF501F50AA11BEB2A0130A035A10D3E
:1055C800890BE22A0130F4007408F507DF2A210864
:1055D8002302031DF12A20082202031CF72A2008AF
:1055E800A2022108A33B0130A136A00C890BF82A9E
:1055F8000130F502031DEB2A2308A1002208A000B0
:10560800080022008C011A308D008E01083021001C
:1056180090007D308C00CB308D00FE308E00230052
:105628008E0140308D003E308C0024009001013006
:105638008D0040308C008E012100951325008C01CF
:105648008D018E0126008C018D018E0122009D01A5
:1056580001309C0027001310121411100030F400C0
:105668000030F500B731162708002100D4002000CB
:105678006C082100D60020006B082100D50022000C
:10568800A001A101210055088400560885001200D8
:105698000319642BD5302000EE006E08D8006D0881
:1056A800EF006F08D9002100540898315120AB3120
:1056B80058082200A007200059082200A13D462BC7
:1056C800220021082000EC00220020082000EB0026
:1056D8000800A901AA012408250403199C2BAB0181
:1056E800AB0AA51B812B0130A435A50D890B782B9E
:1056F8000130A8002808AB07752B0130A935AA0D81
:10570800890B822B25082702031D8C2B24082602CF
:10571800031C932B2408A6022508A73B2914013053
:10572800A536A40C890B942B0130AB02031D812BE9
:105738002A08A5002908A40008002208031D220839
:10574800031DAA2B20088031032008002208033EED
:1057580086008701160001040319CD2B2208033E99
:1057680086008701403FA300413FA400220A86002B
:105778008701403FA500413FA6002608803AA700C0
:105788002408803A2702031DCB2B2308250203187F
:10579800080020002008A300220886008701220AAA
:1057A8008400850100080107A40024088600013050
:1057B800870023088100220A8600870101308107BB
:1057C80041310318810A08002308A7002208A6000F
:1057D8000730A635A70D890BED2B20082607B10049
:1057E8002108273DB200B30125088500240884005C
:1057F80000308407A830853D0008330203180800EC
:105808003308A600A7010130A800A830A90026087F
:105818002807AA002708293DAB002A082407840086
:105828002B08253D85000008AC003308F03EAD008C
:10583800AE012530AE3D31082D07AF0032082E3DB0
:10584800B0002F088600300887002C08810001303E
:10585800A6002608B307F82B2130B731D727AC317B
:105868000030B731D727AC317F30B731D727AC31CB
:105878002230B731D727AC310030B731D727AC3118
:105888000730B731D727AC312000A801B73122271C
:10589800AC317830B7318627AC314030B731862704
:1058A800AC312000A9012908A200A3012808A400FE
:1058B800A501A40EA50EF030A50524080F39A504EE
:1058C800F030A40524082007A6002508213DA700DC
:1058D8002208260786002308273D87000108B731DC
:1058E8008627AC3101302000A2002208A907103019
:1058F8002902031C572CB7312927AC31013020006D
:10590800A2002208A80720302802031808004A2C01
:105918003808860001308700010803190800BB0118
:10592800BC01B901BA0138088600013087000108B6
:10593800E03EF400FF3003180030F50075083A0225
:10594800031DA82C740839020318C22C3C088500D2
:105958003B08840000308407A830853D0008013EDC
:10596800F400003003180130F5007408BB0775080F
:10597800BC3D0130B9070030BA3D972C3508A1006D
:105988003408A0003708A3003608A2003C08A50088
:105998003B08A400AB31E823AC313C0885003B0848
:1059A800840000308407A830853D0008013EF400DB
:1059B800003003180130F5007408B4077508B53DC8
:1059C8000130F4007408B8078C2CAE30B731D727F3
:1059D800AC31D530B731D727AC318030B731D72784
:1059E800AC31A830B731D727AC311F30B731D72702
:1059F800AC31D330B731D727AC310030B731D727E6
:105A0800AC314030B731D727AC318D30B731D727DB
:105A1800AC311430B731D727AC312030B731D72764
:105A2800AC310030B731D727AC31A130B731D727E7
:105A3800AC31C830B731D727AC31DA30B731D727D6
:105A4800AC310230B731D727AC318130B731D727E5
:105A5800AC318F30B731D727AC31D930B731D727F0
:105A6800AC31F130B731D727AC31DB30B731D7277C
:105A7800AC314030B731D727AC31A430B731D72754
:105A8800AC31A630B731D727AC31AF30B731D727D3
:105A98000800F501003020000C1B0130F700003031
:105AA8000D180130F6000130F40074082100BB071E
:105AB80032303B02031C8F2DBB01BA01BA0A7708AA
:105AC800031D6B2D0130F4007408BF076C2DBF0156
