:020000040000FA
:1000000080311C28080008007E1480310B1F1A283C
:100010002100111F12282000111F1228AE316F2657
:1000200080311A282100111C1A282000111C1A28BE
:10003000A931DD217E10090080311E2800308400A6
:10004000A6308500F0308600253087000230FF00A2
:100050000030B731A8278031F601F701F801F90126
:10006000A0308400003085003430FE000030FF00F6
:10007000B7319C2780312030840001308500363034
:10008000FE000030FF00B7319C278031A030840093
:10009000013085004030FE000030FF00B7319C2762
:1000A000803120308400023085004030FE00003076
:1000B000FF00B7319C277E102000AE31E72E0034C0
:1000C0000034003400340034003400340034003490
:1000D0000034003400340034003400340034003480
:1000E0000034003400340034003400340034003470
:1000F0000034003400340034003400340034003460
:100100000034F03437340034003400340034003428
:10011000003400340034003400340034003400343F
:1001200000340034003400340034003400347834B7
:1001300000340034003400340034783400340034A7
:10014000003400340034003400340034003400340F
:100150000034003400340034043480343C34C0347F
:100160000734B034043480343C34C0340734B03401
:10017000043480340034003400340034003400345B
:1001800000340034003400340034C03411342034DE
:10019000223420342234F834FF34203422344034E2
:1001A0001C34003400340034003400340034E034B3
:1001B0000134103402341034023410342234E03468
:1001C0001934003406348034013460341E34103461
:1001D0002134003421340034213400341E340034FE
:1001E000003400340034E0341E3410342134103430
:1001F00021341034233490342434603418340034DF
:100200001734003420340034003400340034003417
:10021000003400340034003400340034003400343E
:1002200000340034003478340034003400340034B6
:10023000003400340034003400340034003400341E
:10024000003400340034003400340034003400340E
:10025000003480341F346034603410348034083407
:1002600000340034003400340034003400340034EE
:1002700000340034003400340034003400340834D6
:100280000034103480346034603480341F340034DF
:1002900000340034003400340034003400340234BC
:1002A0000034C5340F34E2341F34F8343F34F834AA
:1002B0003F343C3478341C3470341C3470341C3477
:1002C00070341C34703438343834003428340034FA
:1002D000003400340034003402340034023400347A
:1002E0000234C0341F340034023400340234003489
:1002F000023400340034003400340034003400345C
:10030000003400340034003400340034003400344D
:10031000003400348034003470340034003400344D
:10032000003400340034003400340034003400342D
:10033000003400340034003400340034003400341D
:100340000234003402340034023400340234003405
:1003500000340034003400340034003400340034FD
:1003600000340034003400340034003400340034ED
:1003700000340034303400340034003400340034AD
:1003800000340034003400340034003400340034CD
:1003900000340034003400340034003400340034BD
:1003A000C0340034383400340734E03400341834B6
:1003B000003400340034003400340034003400349D
:1003C000003400340034C0340F342034103410347E
:1003D0002034103420341034203420341034C0340D
:1003E0000F3400340034003400340034003400345E
:1003F000003400340034003400340034003420343D
:10040000203420342034F0343F340034203400349D
:10041000203400340034003400340034003400341C
:1004200000340034003400340034203430341034CC
:100430002834103424341034223410342134E0347D
:1004400020340034003400340034003400340034EC
:1004500000340034003400340034203410341034BC
:100460002034103421341034213410342134E03459
:100470001E340034003400340034003400340034BE
:100480000034003400340034063400340534803441
:1004900004344034043420340434F0343F34003421
:1004A00004340034003400340034003400340034A8
:1004B00000340034003400340034F034113410348B
:1004C00021341034213410342134103421341034C8
:1004D0001E3400340034003400340034003400345E
:1004E00000340034003480340F346034113420344C
:1004F00021341034213410342134103412340034B7
:100500000C3400340034003400340034003400343F
:10051000003400340034003400341034003410341B
:1005200020341034183410340634D03401343034CC
:10053000003400340034003400340034003400341B
:10054000003400340034E0341E34103421341034CC
:100550002134103421341034213410342134E03467
:100560001E340034003400340034003400340034CD
:10057000003400340034C0340034203421341034CA
:100580002234103422341034123420341A34C0345B
:1005900007340034003400340034003400340034B4
:1005A00000340034003400340034003400340034AB
:1005B000003400340034C0343034003400340034AB
:1005C000003400340034003400340034003400348B
:1005D000003400340034003400340034003400347B
:1005E000003400348034C0347034003400340034BB
:1005F000003400340034003400340034003400345B
:100600000034003400340034023400340234003446
:1006100005340034053480340834803408344034E0
:10062000103400340034003400340034003400341A
:100630000034003400340034093400340934003408
:1006400009340034093400340934003409340034E6
:1006500009340034093400340034003400340034E8
:100660000034003400344034103480340834803492
:1006700008340034053400340534003402340034C6
:1006800002340034003400340034003400340234C6
:100690000034C5340F34E2341F34F8343F34F834B6
:1006A0003F343C3478341C3470341C3470341C3483
:1006B00070341C3470343834383400342834003406
:1006C0000F34C03430342034403420344E341034AD
:1006D00091349034903490349034903490349034F9
:1006E0009F34203410344034103480340F340034BC
:1006F0000034003400340034303400340E34E0343C
:10070000053410340434E034053400340E3400343D
:100710003034003400340034003400340034003409
:10072000003400340034F0343F34103421341034B9
:1007300021341034213410342134E03412340034A4
:100740000C340034003400340034003400340034FD
:1007500000340034003480340734603418342034DA
:100760001034103420341034203410342034103439
:100770002034203410340034003400340034003489
:100780000034F0343F34103420341034203410342A
:1007900020341034203410342034203410346034A9
:1007A000183480340734003400340034003400340A
:1007B000003400340034F0343F3410342134103429
:1007C00021341034213410342134103421341034C5
:1007D0002134003400340034003400340034003458
:1007E00000340034003400340034F0343F3410342A
:1007F0000134103401341034013410340134103415
:100800000134003400340034003400340034003447
:100810000034003400348034073460341834203419
:100820001034103420341034223410342234103474
:10083000223420341E3400340034003400340034B8
:10084000003400340034F0343F34003401340034D8
:1008500001340034013400340134003401340034F4
:100860000134F0343F3400340034003400340034B8
:1008700000340034003400340034003400341034C8
:100880002034F0343F341034203400340034003449
:1008900000340034003400340034003400340034B8
:1008A0000034003400340034003400342034103478
:1008B00020341034203410342034F0341F34003409
:1008C0000034003400340034003400340034003488
:1008D000003400340034F0343F3400340234003447
:1008E0000334803404344034083420341034103459
:1008F0002034003400340034003400340034003438
:1009000000340034003400340034F0343F34003418
:1009100020340034203400342034003420340034B7
:100920002034003400340034003400340034003407
:100930000034F0343F3430340034C03400340034F8
:10094000033400340C3400340334C0340034303405
:100950000034F0343F3400340034003400340034C8
:10096000003400340034F0343F3430340034C034C8
:1009700000340034013400340634003408340034C8
:100980003034F0343F340034003400340034003468
:100990000034803407346034183420341034103478
:1009A0002034103420341034203420341034603497
:1009B00018348034073400340034003400340034F8
:1009C000003400340034F0343F3410340234103436
:1009D0000234103402341034023420340134C03470
:1009E0000034003400340034003400340034003467
:1009F0000034803407346034183420341034103418
:100A00002034103420341034E03420341034603476
:100A10001834803407340034003400340034003497
:100A2000003400340034F0343F34103402341034D5
:100A300002341034023410340634E0340934003403
:100A400010340034203400340034003400340034D6
:100A5000003400340034E0341034103421341034C5
:100A60002134103421341034223410342234203410
:100A70001C340034003400340034003400340034BA
:100A80000034103400341034003410340034103486
:100A90000034F0343F341034003410340034103457
:100AA0000034103400340034003400340034003496
:100AB000003400340034F0340F3400341034003487
:100AC0002034003420340034203400342034003406
:100AD0001034F0340F340034003400340034003467
:100AE00000340034003430340034C0340134003475
:100AF0000E340034303400340E34C0340134303419
:100B00000034003400340034003400340034C03485
:100B1000033400341C340034303400340E34E034F8
:100B2000013410340034E034013400340E34003425
:100B3000303400341C34C0340334303400340034D6
:100B400000340034003410342034603418348034DD
:100B500004340034033480340434603418341034E2
:100B600020340034003400340034003400340034C5
:100B700000340034003410340034603400348034E5
:100B8000013400343E348034013460340034103495
:100B900000340034003400340034003400340034B5
:100BA000003400340034103430341034283410341D
:100BB00024341034233490342034503420343034EE
:100BC0002034003400340034003400340034003465
:100BD0000034003400340034003400340034F8347D
:100BE000FF3408340034083400340834003400344E
:100BF0000034003400340034003400340034003455
:100C0000003400340034003400340034003418342C
:100C10000034E03400340034073400343834003415
:100C2000C034003400340034003400340034003464
:100C3000003400340034003400340034003408340C
:100C400000340834003408340034F834FF340034FD
:100C500000340034003400340034003400340034F4
:100C60000034003400340034013480340034603403
:100C700000341034003410340034603400348034D4
:100C800000340034013400340034003400340034C3
:100C900000340034003400348034003480340034B4
:100CA00080340034803400348034003480340034A4
:100CB0008034003480340034003400340034003494
:100CC0000034003400340034003400340034003484
:100CD00000340C3400341034003400340034003458
:100CE0000034003400340034003400340034003464
:100CF00000340034003400340034003418348034BC
:100D00002434403422344034223440341234803489
:100D10003F340034003400340034003400340034F4
:100D2000003400340034F8343F348034203440340C
:100D300020344034203440342034803410340034A3
:100D40000F340034003400340034003400340034F4
:100D50000034003400340034003400340F34803464
:100D60001034403420344034203440342034803433
:100D700010340034003400340034003400340034C3
:100D800000340034003400340F34803410344034E4
:100D90002034403420344034203440341034F8348B
:100DA0003F34003400340034003400340034003464
:100DB0000034003400340034003400340F34803404
:100DC00012344034223440342234403422348034CB
:100DD0001334003400340034003400340034003460
:100DE0000034003400340034003400340034403423
:100DF0000034F0343F34483400344834003408348C
:100E00000034003400340034003400340034003442
:100E100000340034003400340F34803490344034D3
:100E20002034403420344034203440349034C034B2
:100E30007F34003400340034003400340034003493
:100E4000003400340034F8343F348034003440340B
:100E500000344034003440340034403400348034B2
:100E60003F340034003400340034003400340034A3
:100E700000340034003400340034003400340034D2
:100E80000034D0343F3400340034003400340034B3
:100E900000340034003400340034003400340034B2
:100EA0000034003400340034003400340034403462
:100EB000003440340034D034FF3400340034003483
:100EC0000034003400340034003400340034003482
:100ED00000340034003400340034F8343F3400343B
:100EE0000234003405348034083440341034003483
:100EF0002034003400340034003400340034003432
:100F00000034003400340034003400340034003441
:100F10000034F8343F3400340034003400340034FA
:100F20000034003400340034003400340034003421
:100F30000034C0343F348034003440340034403412
:100F4000003480343F348034003440340034403442
:100F5000003480343F340034003400340034003432
:100F6000003400340034C0343F3480340034403422
:100F70000034403400344034003440340034803491
:100F80003F34003400340034003400340034003482
:100F900000340034003400340F34803410344034D2
:100FA0002034403420344034203480341034003431
:100FB0000F34003400340034003400340034003482
:100FC000003400340034C034FF34803420344034E2
:100FD0002034403420344034203480341034003401
:100FE0000F34003400340034003400340034003452
:100FF00000340034003400340F3480341034403472
:101000002034403420344034203440341034C03450
:10101000FF34003400340034003400340034003431
:101020000034003400340034003400340034C03460
:101030003F348034003440340034403400340034D1
:101040000034003400340034003400340034003400
:10105000003400340034003400348034113440341F
:101060002234403422344034243480341834003460
:1010700000340034003400340034003400340034D0
:101080000034003400340034003400340034403480
:101090000034F0341F3440342034403420344034A1
:1010A0002034003400340034003400340034003480
:1010B000003400340034C0341F3400342034003491
:1010C0002034003420340034203400341034C03450
:1010D0003F34003400340034003400340034003431
:1010E000003400340034C03400340034033400349D
:1010F0000C340034303400340C3400340334C03445
:10110000003400340034003400340034003400343F
:101110000034C034003400340F3400343034003430
:101120000F34C034003400340F3400343034003411
:101130000F34C03400340034003400340034003440
:10114000003400340034403420348034103400340F
:101150000934003406340034093480341034403407
:1011600020340034003400340034003400340034BF
:10117000003400340034C03400340034033400340C
:101180008C340034703400340C3400340334C034F4
:1011900000340034003400340034003400340034AF
:1011A00000340034003400340034403430344034EF
:1011B00028344034263440342134C03420340034C0
:1011C000003400340034003400340034003400347F
:1011D000003400340034003400340034023400346D
:1011E0000234F034FD340834003408340034003460
:1011F000003400340034003400340034003400344F
:10120000003400340034003400340034003400343E
:10121000003400340034F834FF3400340034003437
:10122000003400340034003400340034003400341E
:101230000034003400340034003400340034083406
:10124000003408340034F034FD3400340234003407
:1012500002340034003400340034003400340034EC
:1012600000340034003400340734803400348034D7
:1012700000340034013400340234003404340034C7
:101280000434803403340034003400340034003437
:1012900000340034003400340034003400340034AE
:1012A000003400340034003400340034003400349E
:1012B000003400340034003400340034003400348E
:1012C000003400340034003400340034003400347E
:1012D0000034F03437340034003400340034003447
:1012E000003400340034003400340034003400345E
:1012F00000340034003400340034003400347834D6
:1013000000340034003400340034783400340034C5
:10131000003400340034003400340034003400342D
:101320000034003400340034043480343C34C0349D
:101330000734B034043480343C34C0340734B0341F
:101340000434803400340034003400340034003479
:1013500000340034003400340034C03411342034FC
:10136000223420342234F834FF3420342234403400
:101370001C34003400340034003400340034E034D1
:101380000134103402341034023410342234E03486
:101390001934003406348034013460341E3410347F
:1013A0002134003421340034213400341E3400341C
:1013B000003400340034E0341E341034213410344E
:1013C00021341034233490342434603418340034FD
:1013D0001734003420340034003400340034003436
:1013E000003400340034003400340034003400345D
:1013F00000340034003478340034003400340034D5
:10140000003400340034003400340034003400343C
:10141000003400340034003400340034003400342C
:10142000003480341F346034603410348034083425
:10143000003400340034003400340034003400340C
:1014400000340034003400340034003400340834F4
:101450000034103480346034603480341F340034FD
:1014600000340034003400340034003400340234DA
:101470000034C5340F34E2341F34F8343F34F834C8
:101480003F343C3478341C3470341C3470341C3495
:1014900070341C3470343834383400342834003418
:1014A0000034003400340034023400340234003498
:1014B0000234C0341F3400340234003402340034A7
:1014C000023400340034003400340034003400347A
:1014D000003400340034003400340034003400346C
:1014E000003400348034003470340034003400346C
:1014F000003400340034003400340034003400344C
:10150000003400340034003400340034003400343B
:101510000234003402340034023400340234003423
:10152000003400340034003400340034003400341B
:10153000003400340034003400340034003400340B
:1015400000340034303400340034003400340034CB
:1015500000340034003400340034003400340034EB
:1015600000340034003400340034003400340034DB
:10157000C0340034383400340734E03400341834D4
:1015800000340034003400340034003400340034BB
:10159000003400340034C0340F342034103410349C
:1015A0002034103420341034203420341034C0342B
:1015B0000F3400340034003400340034003400347C
:1015C000003400340034003400340034003420345B
:1015D000203420342034F0343F34003420340034BC
:1015E000203400340034003400340034003400343B
:1015F00000340034003400340034203430341034EB
:101600002834103424341034223410342134E0349B
:10161000203400340034003400340034003400340A
:1016200000340034003400340034203410341034DA
:101630002034103421341034213410342134E03477
:101640001E340034003400340034003400340034DC
:10165000003400340034003406340034053480345F
:1016600004344034043420340434F0343F3400343F
:1016700004340034003400340034003400340034C6
:1016800000340034003400340034F03411341034A9
:1016900021341034213410342134103421341034E6
:1016A0001E3400340034003400340034003400347C
:1016B00000340034003480340F346034113420346A
:1016C00021341034213410342134103412340034D5
:1016D0000C3400340034003400340034003400345E
:1016E000003400340034003400341034003410343A
:1016F00020341034183410340634D03401343034EB
:101700000034003400340034003400340034003439
:10171000003400340034E0341E34103421341034EA
:101720002134103421341034213410342134E03485
:101730001E340034003400340034003400340034EB
:10174000003400340034C0340034203421341034E8
:101750002234103422341034123420341A34C03479
:1017600007340034003400340034003400340034D2
:1017700000340034003400340034003400340034C9
:10178000003400340034C0343034003400340034C9
:1017900000340034003400340034003400340034A9
:1017A0000034003400340034003400340034003499
:1017B000003400348034C0347034003400340034D9
:1017C0000034003400340034003400340034003479
:1017D0000034003400340034023400340234003465
:1017E00005340034053480340834803408344034FF
:1017F0001034003400340034003400340034003439
:101800000034003400340034093400340934003426
:101810000934003409340034093400340934003404
:101820000934003409340034003400340034003406
:1018300000340034003440341034803408348034B0
:1018400008340034053400340534003402340034E4
:1018500002340034003400340034003400340234E4
:101860000034C5340F34E2341F34F8343F34F834D4
:101870003F343C3478341C3470341C3470341C34A1
:1018800070341C3470343834383400342834003424
:101890000F34C03430342034403420344E341034CB
:1018A0009134903490349034903490349034903417
:1018B0009F34203410344034103480340F340034DA
:1018C0000034003400340034303400340E34E0345A
:1018D000053410340434E034053400340E3400345C
:1018E0003034003400340034003400340034003428
:1018F000003400340034F0343F34103421341034D8
:1019000021341034213410342134E03412340034C2
:101910000C3400340034003400340034003400341B
:1019200000340034003480340734603418342034F8
:101930001034103420341034203410342034103457
:1019400020342034103400340034003400340034A7
:101950000034F0343F341034203410342034103448
:1019600020341034203410342034203410346034C7
:101970001834803407340034003400340034003428
:10198000003400340034F0343F3410342134103447
:1019900021341034213410342134103421341034E3
:1019A0002134003400340034003400340034003476
:1019B00000340034003400340034F0343F34103448
:1019C0000134103401341034013410340134103433
:1019D0000134003400340034003400340034003466
:1019E0000034003400348034073460341834203438
:1019F0001034103420341034223410342234103493
:101A0000223420341E3400340034003400340034D6
:101A1000003400340034F0343F34003401340034F6
:101A20000134003401340034013400340134003412
:101A30000134F0343F3400340034003400340034D6
:101A400000340034003400340034003400341034E6
:101A50002034F0343F341034203400340034003467
:101A600000340034003400340034003400340034D6
:101A70000034003400340034003400342034103496
:101A800020341034203410342034F0341F34003427
:101A900000340034003400340034003400340034A6
:101AA000003400340034F0343F3400340234003465
:101AB0000334803404344034083420341034103477
:101AC0002034003400340034003400340034003456
:101AD00000340034003400340034F0343F34003437
:101AE00020340034203400342034003420340034D6
:101AF0002034003400340034003400340034003426
:101B00000034F0343F3430340034C0340034003416
:101B1000033400340C3400340334C0340034303423
:101B20000034F0343F3400340034003400340034E6
:101B3000003400340034F0343F3430340034C034E6
:101B400000340034013400340634003408340034E6
:101B50003034F0343F340034003400340034003486
:101B60000034803407346034183420341034103496
:101B700020341034203410342034203410346034B5
:101B80001834803407340034003400340034003416
:101B9000003400340034F0343F3410340234103454
:101BA0000234103402341034023420340134C0348E
:101BB0000034003400340034003400340034003485
:101BC0000034803407346034183420341034103436
:101BD0002034103420341034E03420341034603495
:101BE00018348034073400340034003400340034B6
:101BF000003400340034F0343F34103402341034F4
:101C000002341034023410340634E0340934003421
:101C100010340034203400340034003400340034F4
:101C2000003400340034E0341034103421341034E3
:101C3000213410342134103422341034223420342E
:101C40001C340034003400340034003400340034D8
:101C500000341034003410340034103400341034A4
:101C60000034F0343F341034003410340034103475
:101C700000341034003400340034003400340034B4
:101C8000003400340034F0340F34003410340034A5
:101C90002034003420340034203400342034003424
:101CA0001034F0340F340034003400340034003485
:101CB00000340034003430340034C0340134003493
:101CC0000E340034303400340E34C0340134303437
:101CD0000034003400340034003400340034C034A4
:101CE000033400341C340034303400340E34E03417
:101CF000013410340034E034013400340E34003444
:101D0000303400341C34C0340334303400340034F4
:101D100000340034003410342034603418348034FB
:101D20000434003403348034043460341834103400
:101D300020340034003400340034003400340034E3
:101D40000034003400341034003460340034803403
:101D5000013400343E3480340134603400341034B3
:101D600000340034003400340034003400340034D3
:101D7000003400340034103430341034283410343B
:101D8000243410342334903420345034203430340C
:101D90002034003400340034003400340034003483
:101DA0000034003400340034003400340034F8349B
:101DB000FF3408340034083400340834003400346C
:101DC0000034003400340034003400340034003473
:101DD000003400340034003400340034003418344B
:101DE0000034E03400340034073400343834003434
:101DF000C034003400340034003400340034003483
:101E0000003400340034003400340034003408342A
:101E100000340834003408340034F834FF3400341B
:101E20000034003400340034003400340034003412
:101E30000034003400340034013480340034603421
:101E400000341034003410340034603400348034F2
:101E500000340034013400340034003400340034E1
:101E600000340034003400348034003480340034D2
:101E700080340034803400348034003480340034C2
:101E800080340034803400340034003400340034B2
:101E900000340034003400340034003400340034A2
:101EA00000340C3400341034003400340034003476
:101EB0000034003400340034003400340034003482
:101EC00000340034003400340034003418348034DA
:101ED00024344034223440342234403412348034A8
:101EE0003F34003400340034003400340034003413
:101EF000003400340034F8343F348034203440342B
:101F000020344034203440342034803410340034C1
:101F10000F34003400340034003400340034003412
:101F20000034003400340034003400340F34803482
:101F30001034403420344034203440342034803451
:101F400010340034003400340034003400340034E1
:101F500000340034003400340F3480341034403402
:101F60002034403420344034203440341034F834A9
:101F70003F34003400340034003400340034003482
:101F80000034003400340034003400340F34803422
:101F900012344034223440342234403422348034E9
:101FA000133400340034003400340034003400347E
:101FB0000034003400340034003400340034403441
:101FC0000034F0343F3448340034483400340834AA
:101FD0000034003400340034003400340034003461
:101FE00000340034003400340F34803490344034F2
:101FF0002034403420344034203440349034C034D1
:102000007F340034003400340034003400340034B1
:10201000003400340034F8343F3480340034403429
:1020200000344034003440340034403400348034D0
:102030003F340034003400340034003400340034C1
:1020400000340034003400340034003400340034F0
:102050000034D0343F3400340034003400340034D1
:1020600000340034003400340034003400340034D0
:102070000034003400340034003400340034403480
:10208000003440340034D034FF34003400340034A1
:1020900000340034003400340034003400340034A0
:1020A00000340034003400340034F8343F34003459
:1020B00002340034053480340834403410340034A1
:1020C0002034003400340034003400340034003450
:1020D0000034003400340034003400340034003460
:1020E0000034F8343F340034003400340034003419
:1020F0000034003400340034003400340034003440
:102100000034C0343F348034003440340034403430
:10211000003480343F348034003440340034403460
:10212000003480343F340034003400340034003450
:10213000003400340034C0343F3480340034403440
:1021400000344034003440340034403400348034AF
:102150003F340034003400340034003400340034A0
:1021600000340034003400340F34803410344034F0
:10217000203440342034403420348034103400344F
:102180000F340034003400340034003400340034A0
:10219000003400340034C034FF3480342034403400
:1021A000203440342034403420348034103400341F
:1021B0000F34003400340034003400340034003470
:1021C00000340034003400340F3480341034403490
:1021D0002034403420344034203440341034C0346F
:1021E000FF34003400340034003400340034003450
:1021F0000034003400340034003400340034C0347F
:102200003F348034003440340034403400340034EF
:10221000003400340034003400340034003400341E
:10222000003400340034003400348034113440343D
:10223000223440342234403424348034183400347E
:1022400000340034003400340034003400340034EE
:10225000003400340034003400340034003440349E
:102260000034F0341F3440342034403420344034BF
:10227000203400340034003400340034003400349E
:10228000003400340034C0341F34003420340034AF
:102290002034003420340034203400341034C0346E
:1022A0003F3400340034003400340034003400344F
:1022B000003400340034C0340034003403340034BB
:1022C0000C340034303400340C3400340334C03463
:1022D000003400340034003400340034003400345E
:1022E0000034C034003400340F340034303400344F
:1022F0000F34C034003400340F3400343034003430
:102300000F34C0340034003400340034003400345E
:10231000003400340034403420348034103400342D
:102320000934003406340034093480341034403425
:1023300020340034003400340034003400340034DD
:10234000003400340034C03400340034033400342A
:102350008C340034703400340C3400340334C03412
:1023600000340034003400340034003400340034CD
:10237000003400340034003400344034303440340D
:1023800028344034263440342134C03420340034DE
:10239000003400340034003400340034003400349D
:1023A000003400340034003400340034023400348B
:1023B0000234F034FD34083400340834003400347E
:1023C000003400340034003400340034003400346D
:1023D000003400340034003400340034003400345D
:1023E000003400340034F834FF3400340034003456
:1023F000003400340034003400340034003400343D
:102400000034003400340034003400340034083424
:10241000003408340034F034FD3400340234003425
:10242000023400340034003400340034003400340A
:1024300000340034003400340734803400348034F5
:1024400000340034013400340234003404340034E5
:102450000434803403340034003400340034F03069
:102460002000A0002530A100AC31E5240800BE0109
:102470003E08A900AA01A935AA0D2808AB00AC01A5
:102480002B08A0002C08A1001830A2000030A300E7
:10249000AA31692292314730AD008630AE00200863
:1024A0002D07AF0021082E3DB0002F08290784001A
:1024B00030082A3D85000008B1003E08B200B30193
:1024C0002708B5002608B4000730B435B50D890BD0
:1024D000652AF030B6002530B70034083607B8005A
:1024E0003508373DB90032083807BA003308393D9E
:1024F000BB0024083A07BC0025083B3DBD003C0852
:1025000086003D088700310881003E08A900AA0125
:10251000A935AA0D2808AB00AC012B08A0002C0897
:10252000A1001830A2000030A300AA316922923124
:102530004830AD008630AE0020082D07AF002108DE
:102540002E3DB0002F082907840030082A3D850061
:102550000008B1003E08B200B3012708B500260804
:10256000B4000730B435B50D890BB22A7030B6000F
:102570002630B70034083607B8003508373DB900B3
:1025800032083807BA003308393DBB0024083A073F
:10259000BC0025083B3DBD003C0886003D08870087
:1025A000310881000130A9002908BE070C303E0225
:1025B00003180800382AAE3102269231E900690872
:1025C000ED006D03031DF42A0130E9006908CB0713
:1025D000CA0100302902973003192802031CF42A8B
:1025E0000A30A8020030A93B10306D06031D192BDC
:1025F00004304B06031D072B02304A06031D072B30
:1026000046030319062BC601C60A072BC601043070
:102610004B06031D172B04304A06031D172B4908D0
:102620000319142BC901172BC901C90AC801CA0112
:10263000CB0102306D06031D342B0130E90069081F
:10264000CA074908031D302B01302902C230031983
:1026500028020318342B0A30A8070030A93D342B78
:102660000130E9006908C80720306D06031D3A2BC8
:10267000C701C70A4903031D6C2C0130E900690832
:10268000B20704303206031D492B0230A931CA219A
:102690009231063032060319792B952B22000E1049
:1026A000712B22000E14712B22000E148E102100AB
:1026B0008E14652B22000E148E1021008E10742BA8
:1026C00022000E148E1021008E1022000E11210007
:1026D0000E11952B22000E102100C901C801952B67
:1026E00022008E1021008E1422000E1121000E15E2
:1026F000952B4808E900EA016A08003A0319812B82
:10270000702B6908003A03194E2B013A0319512B1B
:10271000033A0319542B013A03195A2B073A0319A8
:10272000602B013A03196A2B702B32303202031CE2
:102730000800B20122000E1021003108F500300817
:10274000F400A931F121923175082100AD0074081F
:10275000AC002F08F5002E08F400B731DE279231C7
:1027600075082100AB007408AA00AA314F229231EB
:1027700016302100D700B830D8000A302000A4005D
:102780000030A50021002B082000A70021002A0806
:102790002000A600A0310720923125082100DA0090
:1027A000200024082100D9000A302000A0000030B9
:1027B000A10021002B082000A30021002A082000EE
:1027C000A200AB312923923121082100DC00200036
:1027D00020082100DB003830AB3102239231003079
:1027E0002000A400A5000030A600A7003830A800F3
:1027F0000130A900A0313B20923121004808E900B6
:10280000EA0169082000A00021006A082000A10058
:102810000A30A2000030A300AA31692292312108B7
:102820002100EC00200020082100EB006B30D700D5
:10283000B830D8006C08DA006B08D9003830AB31FA
:102840000223923140302000A4000030A500003067
:10285000A600A7003830A8000130A900A0313B2015
:10286000923170302100D700B830D8003830AB3109
:102870000223923100302000A400A5000230A600FF
:102880000030A7003830A8000130A900A0313B205B
:102890009231013021002D02F43003192C02031C67
:1028A000052E6130D700B830D8003830AB31022364
:1028B000923140302000A4000030A5000230A60074
:1028C0000030A7003830A8000130A900A0313B201B
:1028D000923192312F2208000130E9006908B207D5
:1028E00003303206031D782C0230A931CA219231FF
:1028F00004303206031D072D3108F5003008F400BE
:10290000A931F121923175082100AD007408AC00A5
:102910004C35A03E8600013087002C08C03F2D08B2
:10292000C13F0130E9006908CC0708304C020318A8
:10293000CC01A601A701C201083042020318B22C43
:102940004235A03E860001308700403FE900413F0C
:10295000EA006908A6076A08A73D0130E90069088E
:10296000C2079C2C2D08A7002C08A600D42CCB2C29
:1029700022008E1021008E14C62C22008E10210001
:102980008E10CF2C22008E1021008E1022000E11EE
:1029900021000E11EA2C22008E1021008E1422003C
:1029A0000E1121000E15EA2C4408E900EA016A081C
:1029B000003A0319DC2CCB2C6908013A0319B72C17
:1029C000033A0319B82C013A0319BD2C073A03192D
:1029D000C22CCB2C29082D02031DF02C28082C0218
:1029E0000318FB2C22000E1421003408E9006908AA
:1029F000B300B401FD2C22000E1001302100E900CB
:102A00006908B40701302200AA070030AB3D6430EA
:102A100021003202031C0800B20101302200A80785
:102A20000030A93D013029022C3003192802031C73
:102A30004B2DA801A90101302100E9006908D20746
:102A4000322DD2014B2D02305202031C4B2DC701F7
:102A5000C70A212D0530242D0A30242D0F30242DB6
:102A60001E30242D4308E900EA016A08003A0319E0
:102A70003A2D302D6908003A0319212D013A031926
:102A8000232D033A03192A2D013A03192C2D073A55
:102A900003192E2D302D01302100E9006908B507FA
:102AA00022000E1021002F08F5002E08F400B73187
:102AB000DE27923175082100AB007408AA00460396
:102AC000031D0E2EAA314F22923116302100D7005D
:102AD000B830D8000A302000A4000030A500210042
:102AE0002B082000A70021002A082000A600A03102
:102AF0000720923125082100DA0020002408210057
:102B0000D9000A302000A0000030A10021002B08CD
:102B10002000A30021002A082000A200AB312923B5
:102B2000923121082100DC00200020082100DB0078
:102B30003830AB310223923100302000A400A500D0
:102B40000030A600A7003830A8000130A900A0314D
:102B50003B20923121004408E900EA016908200085
:102B6000A00021006A082000A1000A30A200003065
:102B7000A300AA316922923121082100EC00200033
:102B800020082100EB006B30D700B830D8006C086B
:102B9000DA006B08D9003830AB3102239231403073
:102BA0002000A4000030A5000030A600A7003830A7
:102BB000A8000130A900A0313B20923175302100DE
:102BC000D700B830D8003308E900EA016908D90015
:102BD0006A08DA003830AB3102239231003020002D
:102BE000A400A5000230A6000030A7003830A800DD
:102BF0000130A900A0313B209231013021002D028B
:102C0000F43003192C020318512C4830D700B83087
:102C1000D8002D08DA002C08D900552C4608031DD1
:102C20000800AA314F229231013021002D02EB30F1
:102C300003192C02031C592E00302000A400A5000B
:102C40000130A6000030A7000C30A8000030A90019
:102C5000A331BF2392313230A4000030A5000130EF
:102C6000A6000030A7001230A8000030A900A33150
:102C7000BF2392314130A4000030A5000130A600EE
:102C80000030A7001330A8000030A900A331BF23F3
:102C900092315030A4000030A5000130A600003071
:102CA000A7001430A8000030A900A331BF2392313F
:102CB0003E2F0F3035020318B5012808E23EE90027
:102CC000FF30293DEA006A082702031D692E6908C2
:102CD00026020318802E053035020318842E143086
:102CE0002000A4000030A5000130A6000030A7009D
:102CF0001730A8000030A900A331BF239231842EE1
:102D00002908A7002808A60064302000A40000308D
:102D1000A500210027082000A70021002608200088
:102D2000A600A0310720923124082100E90069089B
:102D3000B8000A302000A4000030A50021002708B8
:102D40002000A300210026082000A2006430A0007B
:102D50000030A100AB31292392312108A7002008BF
:102D6000A600A0310720923124082100E90069085B
:102D7000B7000A302000A0000030A1002100270881
:102D80002000A300210026082000A200AB31292347
:102D9000923120082100E9006908B60000302000C7
:102DA000A400A5000130A6000030A7000C30A80048
:102DB0000030A900A331BF23923121003808031944
:102DC000FA2E28302000A4000030A5000130A60013
:102DD0000030A70021003808E900EA016908200056
:102DE000A80021006A082000A900A331BF23923166
:102DF0003730FF2E37080319162F37302000A40074
:102E00000030A5000130A6000030A70021003708DF
:102E1000E900EA0169082000A80021006A082000F2
:102E2000A900A331BF2392314630182F463020002D
:102E3000A4000030A5000130A6000030A70021004A
:102E40003608E900EA0169082000A80021006A08A4
:102E50002000A900A331BF2392315730A4000030D5
:102E6000A5000130A6000030A7003F302100E90096
:102E700069082000A8009231372292317030A400F6
:102E80000030A5000130A6000030A7000B30A800DC
:102E90000030A900A331BF23923100302100290264
:102EA000973003192802031C742F7530D700B830EF
:102EB000D8002808F63ED900FF30293DDA00383026
:102EC000AB310223923101302000B4000030B50054
:102ED0000030B600B70038302100E9006908200052
:102EE000B800AD314125923121004408E900EA01E2
:102EF00069082000A00021006A082000A1000A3013
:102F0000A2000030A300AA316922923121082100D9
:102F1000EC00200020082100EB000030D700B83082
:102F2000D8006C08DA006B08D9000A302000A40031
:102F30000030A50021002B082000A70021002A084E
:102F40002000A600A0310720923125082100DC00D6
:102F5000200024082100DB000A302000A0000030FF
:102F6000A10021002B082000A30021002A08200036
:102F7000A200AB312923923121082100DE0020007C
:102F800020082100DD003830AB3102239231283097
:102F90002000B4000030B5000030B600B700383073
:102FA0002100E90069082000B800AD3141259231C7
:102FB000013021002902C230031928020318692CAC
:102FC0007530D700B830D80028080A3ED900003044
:102FD000293DDA003830AB310223923171302000C4
:102FE000B4000030B5000030B600B7003830210022
:102FF000E90069082000B800AD3141259231692C03
:103000000034003400340034003400340034FF3421
:1030100001348034FF340334C034FF340734E034E7
:10302000FF340F34E03401340F34E03400340E3414
:10303000E03401340F34E034FF340F34C034FF3453
:1030400007348034FF3403340034FF340134003457
:1030500000340034003400340034003400340034D0
:10306000003400340034003400340034803403343D
:103070000E34803403340E34803403340E34E034A0
:10308000FF340F34E034FF340F34E034FF340F34B6
:10309000E034FF340F34003400340E340034003494
:1030A0000E34003400340E34003400340034003464
:1030B0000034003400340034003400340034003470
:1030C000C03401340E34E03401340F34E0340034C1
:1030D0000F34E03480340F34E034C0340F34E03443
:1030E000E0340F34E034F1340E34E0347F340E3405
:1030F000C0343F340E34C0341F340E3480340F34A7
:103100000E34003400340E34003400340034003403
:1031100000340034003400340034C0340134073447
:10312000E03401340F34E03400340E34E034383409
:103130000E34E03438340E34E03438340E34E034B5
:103140003C340F34E034FF340F34C034EF340734F0
:10315000C034EF3407348034C734033400340034CF
:1031600000340034003400340034003400340034BF
:10317000003400340034F03400340034F8340034C7
:103180000034FC3400340034E73400348034E33459
:103190000034C034E1340034E034FF340F34E03420
:1031A000FF340F34E034FF340F34E034FF340F3495
:1031B0000034E03400340034E034003400340034AF
:1031C000003400340034003400340034003400345F
:1031D00000340734E0341F340E34E0341F340E342E
:1031E000E0341F340E34E0341F340E34E0341C3429
:1031F0000E34E0343C340F34E034FC340F34E0342B
:10320000FC340734E034F8340334E034F03401346F
:10321000003400340034003400340034003400340E
:1032200000340034003400340034FC340134003401
:10323000FF3403348034FF340734C034FF340F3498
:10324000E0341B340F34E0341D340E34E0341C34CD
:103250000E34E034FC340F34E034FC340734E03412
:10326000F83407340034F0340134003400340034CE
:1032700000340034003400340034003400340034AE
:103280000034E03400340834E03400340E34E034E8
:1032900080340F34E034C0340F34E034F0340F3471
:1032A000E034FC340334E034FF340034E0347F3461
:1032B0000034E0341F340034E03407340034E034A8
:1032C000013400340034003400340034003400345D
:1032D0000034003400340034003400348034C73407
:1032E0000334C034EF340734C034FF340734E034DF
:1032F000FF340F34E0341C340E34E03438340E34F0
:10330000E03438340E34E034FF340F34E034FF342A
:103310000734C034E73407348034C3340334003412
:1033200000340034003400340034003400340034FD
:1033300000340034003400341F340034C0343F34CF
:103340000E34C0347F340E34E0347F340E34E03435
:1033500070340E34E03470340F34E034B1340F3450
:10336000E034FF340734C034FF3403348034FF3496
:10337000013400347F34003400340034003400342D
:10338000003400341C340034003414347C340034F1
:103390001C34FF3401348034FF340334C034C73468
:1033A0000734C03400340634603400340C34203424
:1033B0000034083420340034083420340034083415
:1033C000203400340834603400340834403400348D
:1033D0000434C03401340434E0340334023400349F
:1033E000803400340034C03400340034E03400341D
:1033F0000034F03400340034F83400340034FC3449
:1034000000340034FE3400340034FF34003400341F
:10341000FE3400340034FC3400340034F83400341A
:103420000034F03400340034E03400340034C0346C
:10343000003400348034003400340134003400346B
:103440000334003400340734003400340F340034C3
:1034500000341F34003400343F34003400347F34EF
:1034600000340034FF34003400347F34003400343E
:103470003F34003400341F34003400340F3400343F
:103480000034073400340034033400340034013491
:103490000034003400340034003480340F340034FD
:1034A000603430340034203460340034003440342C
:1034B00000340034C0340034003480340034FE342E
:1034C000803400340034803400340034C03400349C
:1034D00000344034003420346034003460343034FC
:1034E000003480340F34003400340034003430347D
:1034F000C03400347034E0340034E03470340034CC
:10350000C23418340034EE340E340034FC340D343C
:103510000034F83403340034803407340034203469
:103520000F34003470341E34003478343C340034AA
:103530003C34783400341E34F03400340C346034BD
:1035400000340034003400348034033400348034D8
:1035500003340034803403340034803403340034C2
:103560008034033400348034033400348034033432
:103570000034D03417340034F8343F340034F83495
:103580003F340034F0341F340034E0340F3400345E
:10359000C034073400348034033400340034013440
:1035A0000034FE3400348034FF340334C034FF343C
:1035B0000734C034FF340734E03483340F34E0344C
:1035C00000340E34E03400340E34E03400340E3471
:1035D000E03400340E34E03483340F34C034FF342C
:1035E0000734C034FF3407348034FF3403340034EC
:1035F000FE3400340034003400340034003400342D
:10360000003400340034E034FF340F34E034FF344D
:103610000F34E034FF340F34E034FF340F34E0343F
:1036200038340034E03438340034E0343834003492
:10363000E03438340034E03438340034E0343834A2
:103640000034E034383400340034003400340034C2
:1036500000340034003400340034E03400340034EA
:10366000E03400340034E03400340034E03400341A
:103670000034E034FF340F34E034FF340F34E034EE
:10368000FF340F34E034FF340F34E03400340034BE
:10369000E03400340034E03400340034E0340034EA
:1036A000003400340034003400340034003400347A
:1036B000003400340034003400340034003400346A
:1036C000E03400340E34E03400340E34E034FF349F
:1036D0000F34E034FF340F34E034FF340F34E0347F
:1036E000FF340F34E03400340E34E03400340E3450
:1036F000003400340034003400340034003400342A
:103700000034003400340034003400340034003419
:1037100000340034E034FF340F34E034FF340F342D
:10372000E034FF340F34E034FF340F34E0347034CD
:103730000034E03470340034E03470340034E03469
:1037400079340034E0347F340034C0343F34003402
:10375000C0341F34003480340F340034003400345B
:103760000034003480347F340034C034C03400343A
:103770004034C03400344034C03400344034C634A3
:1037800000340034CC3400340034D8340034FC34F9
:10379000DF3400340034D83400344034CC340034C6
:1037A0004034C63400344034C03400344034C03473
:1037B0000034C0347F34003480343F34003400346B
:1037C00000340034803407340034F0341F340034C3
:1037D0003834383400341C34603400340C346034F1
:1037E0000034C434C63400348434C33400348434E4
:1037F000C3340034C434C63400340C346034003470
:103800001C3460340034383438340034F0341F341D
:103810000034803407340034003400340034203461
:10382000003400347C34003400347F34C034C0347D
:103830007F34F034F0347F347E34FC34FF341F3472
:10384000FF34FF340F34FF34FF340734FF34FF34C8
:103850000134FF34FF3400347F347E3400343F348D
:103860001E3400340F340E34003402340434003477
:1038700024001419382C16081F39031908003B2C92
:10388000C5003A08CE003B08CF003C08D0003D08F8
:10389000D1003E08D2003F08D3004008D4004108C0
:1038A000D5004E30860000308700473FC200C21F5F
:1038B0005B2C01305C2C00302000C300C4014308A5
:1038C000CC004408CD004C084D040319852CCE09CA
:1038D000CF09D009D109D209D309D409D509CE0A13
:1038E000031D852CCF0A031D852CD00A031D852CB2
:1038F000D10A031D852CD20A031D852CD30A031D72
:10390000852CD40A031D852CD50A2100A31B8C2CE1
:10391000FD30A405FF30A5052308803A2000C20031
:1039200080304202031D972C01302100220203182F
:103930009F2C01302000C8000030C900A72C2100B6
:1039400023082000C900210022082000C80021000F
:1039500021082000CB00210020082000CA004C08CC
:103960004D04031DB62C2100241DBB2CFF3020006C
:10397000CA07FF30CB3D1F302000D6000030D700F3
:103980002300DF014F2D20004E084F045004510446
:103990005204530454045504031DE82C4908803A8A
:1039A000C20080304202031DD72C013048020318A8
:1039B000E82C20004B08803AC20080304202031DF0
:1039C000E32C01304A02031C5B2D2100A41C5B2D5B
:1039D000FF302000D607FF30D73D0A30A000A101FC
:1039E000A201A301A401A501A601A7014E08A800F8
:1039F0004F08A9005008AA005108AB005208AC00BB
:103A00005308AD005408AE005508AF00A031F620B1
:103A10009C312108B3002008B200AA311F229C313A
:103A200020003208303EC2005608C03E86000130F9
:103A3000870042088100FF30C807FF30C93DFF30D2
:103A4000CA07FF30CB3D0A30A000A101A201A301AB
:103A5000A401A501A601A7014E08A8004F08A900CE
:103A60005008AA005108AB005208AC005308AD0042
:103A70005408AE005508AF00A131D3219C31200875
:103A8000CE002108CF002208D0002308D10024084E
:103A9000D2002508D3002608D4002708D50020002E
:103AA0005708803AC20080304202031D592D013070
:103AB00056020318C32C20004C084D04031D632D2F
:103AC0002100241D7B2DFF302000D607FF30D73D7D
:103AD0004C084D04031D6E2D2B306F2D2D30C6006C
:103AE0000030C7004608C2005608C03E86000130BC
:103AF00087004208810020005608C03EC2004208EC
:103B0000AF004B08B1004A08B0004508AC3197241B
:103B10003008BB002F08BA000800AE3102269D31E4
:103B2000E9006908ED0020306D06031DE92FAA3178
:103B30004F229D311430A4000030A5000130A600B2
:103B40000030A7004D30A800B830A900A0313B20BC
:103B50009D3192312F222100B901C701C70A080007
:103B6000AA314F229D311430A4000030A50000304E
:103B7000A600A7005B30A800B830A900A0313B2008
:103B80009D3121004508E900EA0169082000A000F4
:103B900021006A082000A1000A30A2000030A30022
:103BA000AA3169229D3121082100EC002000200863
:103BB0002100EB004630D700B830D8006C08DA009E
:103BC0006B08D9003830AB3102239D31143020000E
:103BD000A4000030A5000230A6000030A700383055
:103BE000A8000130A900A0313B209D310030A40085
:103BF000A5000030A600A7000F30A8000030A900E3
:103C0000A331BF239D316830A4000030A5000030EF
:103C1000A600A7001630A8000030A900A331BF23DA
:103C20009D3192312F222100B901B90A08001030CC
:103C30006D06031D842EAA314F229D311430A4003D
:103C40000030A5000030A600A7005B30A800B83007
:103C5000A900A0313B209D3121004408E900EA0180
:103C600069082000A00021006A082000A1000A3095
:103C7000A2000030A300AA3169229D312108210051
:103C8000EC00200020082100EB005430D700B830B1
:103C9000D8006C08DA006B08D9003830AB31022349
:103CA0009D3114302000A4000030A5000230A60091
:103CB0000030A7003830A8000130A900A0313B2017
:103CC0009D310030A400A5000030A600A7000F30F1
:103CD000A8000030A900A331BF239D316830A400A3
:103CE0000030A5000030A600A7001630A800003064
:103CF000A900A331BF239D3192312F220230210030
:103D0000E9006908B90008006D03031DC42E1030D6
:103D10004502031C08000130C5024508E900EA011C
:103D200069082000A00021006A082000A1000A30D4
:103D3000A2000030A300AA3169229D312108210090
:103D4000EC00200020082100EB004630D700B830FE
:103D5000D8006C08DA006B08D9003830AB31022388
:103D60009D3114302000A4000030A5000230A600D0
:103D70000030A7003830A8000130A900A0313B2056
:103D80009D3192312F22080002306D06031D08007C
:103D90002B304502031808000130E9006908C50707
:103DA0008D2E10306D06031D482FAA314F229D31F4
:103DB0001430A4000030A5000030A600A7005B303E
:103DC000A800B830A900A0313B209D310030A400EC
:103DD000A5000030A600A7001530A8000030A900FB
:103DE000A331BF239D316830A4000030A50000300E
:103DF000A600A7001630A8000030A900A331BF23F9
:103E00009D3121004308031D092F0E30D700B83023
:103E10002B2F4303031D102F2E30D700B8302B2F2C
:103E200002304306031D182F3630D700B8302B2F31
:103E300003304306031D202F1E30D700B8302B2F30
:103E400004304306031D282F3E30D700B8302B2FF7
:103E50002630D700B830D8003830AB3102239D313E
:103E600014302000A4000030A5000230A60000306D
:103E7000A7003830A8000130A900A0313B209D31B7
:103E800092312F2203302100E9006908B9000800AF
:103E90006D03031D522F02304402031C0800013041
:103EA000C4025E2F02306D06031D08000430440278
:103EB000031808000130E9006908C4074408E90054
:103EC000EA0169082000A00021006A082000A10082
:103ED0000A30A2000030A300AA3169229D312108D6
:103EE0002100EC00200020082100EB005430D70016
:103EF000B830A82E10306D06031DA72F4408E90026
:103F00006908F4000030AA31BD229D312100450826
:103F1000E9006908F4000130AA31BD229D31210079
:103F20004308E9006908F4000230AA31BD229D313E
:103F3000AA314F229D311430A4000030A500013079
:103F4000A6000030A7006630A800B830A52D6D038C
:103F5000031DB02F4308031908000130C302BC2F12
:103F600002306D06031D08000430430203180800E8
:103F70000130E9006908C3074308031DC32F0E3051
:103F8000D700B830E52F4303031DCA2F2E30D700CA
:103F9000B830E52F02304306031DD22F3630D7004C
:103FA000B830E52F03304306031DDA2F1E30D7004B
:103FB000B830E52F04304306031DE22F3E30D70012
:103FC000B830E52F2630D700B830D800AD2EB90173
:103FD00008003908E900EA016A08003A0319F12FDC
:103FE000E72F6908003A0319B02D013A0319172E7B
:103FF000033A0319D12E013A03197A2FE72F08004B
:104000009C313824A0311615161D08000428A9017A
:10401000AA012408250403193628AB01AB0AA51B05
:104020001B280130A435A50D890B12280130A800EA
:104030002808AB070F280130A935AA0D890B1C28C9
:1040400025082702031D262824082602031C2D28E4
:104050002408A6022508A73B29140130A536A40C84
:10406000890B2E280130AB02031D1B282A08A5004E
:104070002908A400080028088400290885001200E7
:1040800003190800BF013F08AA00AB01AA35AB0D18
:1040900028088400290885000008AC00AD012C0820
:1040A000A0002D08A1001830A2000030A300AA3102
:1040B0006922A0314730AE008630AF0020082E07BD
:1040C000B00021082F3DB10030082A0784003108D4
:1040D0002B3D85000008B2003F08B300B40127085B
:1040E000B6002608B5000730B535B60D890B742823
:1040F000F030B7002530B80035083707B90036086A
:10410000383DBA0033083907BB0034083A3DBC00DB
:1041100024083B07BD0025083C3DBE003D08860045
:104120003E088700320881003F08AA00AB01AA358B
:10413000AB0D28088400290885000008AC00AD01FB
:104140002C08A0002D08A1001830A2000030A30008
:10415000AA316922A0314830AE008630AF00200875
:104160002E07B00021082F3DB10030082A07840037
:1041700031082B3D85000008B2003F08B300B401B0
:104180002708B6002608B5000730B535B60D890BEF
:10419000C5287030B7002630B80035083707B90099
:1041A0003608383DBA0033083907BB0034083A3DB9
:1041B000BC0024083B07BD0025083C3DBE003D086F
:1041C00086003E088700320881000130AA002A08D4
:1041D000BF070C303F02031C43280C30A4070030FB
:1041E000A53D0130A8070030A93D3B28B10128308A
:1041F000860000308700473FF400F41F212920008B
:10420000A809A909AA09AB09AC09AD09AE09AF090A
:10421000A80A031D1E29A90A031D1E29AA0A031D97
:104220001E29AB0A031D1E29AC0A031D1E29AD0A57
:10423000031D1E29AE0A031D1E29AF0A2000B1016D
:10424000B10A2030860000308700473FF400F41F99
:1042500048292000A009A109A209A309A409A509C8
:10426000A609A709A00A031D4829A10A031D482978
:10427000A20A031D4829A30A031D4829A40A031DF5
:104280004829A50A031D4829A60A031D4829A70A8B
:1042900020002008210422042304240425042604E9
:1042A00027040319A029B001B00AA71B6429A0356F
:1042B000A10DA20DA30DA40DA50DA60DA70D0130F6
:1042C000F4007408B007552927082F02031D82291E
:1042D00026082E02031D822925082D02031D82298E
:1042E00024082C02031D822923082B02031D822986
:1042F00022082A02031D822921082902031D82297E
:1043000020082802031C94292008A8022108A93BA0
:104310002208AA3B2308AB3B2408AC3B2508AD3B55
:104320002608AE3B2708AF3BA736A60CA50CA40C6D
:10433000A30CA20CA10CA00C0130B002031D642937
:1043400031080319C129A809A909AA09AB09AC09AF
:10435000AD09AE09AF09A80A031DC129A90A031DA9
:10436000C129AA0A031DC129AB0A031DC129AC0A30
:10437000031DC129AD0A031DC129AE0A031DC129B0
:10438000AF0A20002808A0002908A1002A08A200DE
:104390002B08A3002C08A4002D08A5002E08A600B9
:1043A0002F08A7000800B1012030860000308700E8
:1043B000473FF400F41FFE292000A009A109A2092B
:1043C000A309A409A509A609A709A00A031DFB2999
:1043D000A10A031DFB29A20A031DFB29A30A031D31
:1043E000FB29A40A031DFB29A50A031DFB29A60A14
:1043F000031DFB29A70A2000B101B10A283086005D
:1044000000308700473FF400F41F2A2A2000A80943
:10441000A909AA09AB09AC09AD09AE09AF09A80AF7
:10442000031D252AA90A031D252AAA0A031D252AD8
:10443000AB0A031D252AAC0A031D252AAD0A031D5C
:10444000252AAE0A031D252AAF0A0130F40074089C
:104450002000B10632308600003087000830F400BA
:1044600000301E00F40B312A200020082104220411
:10447000230424042504260427040319952AB001E3
:10448000B00AA71B502AA035A10DA20DA30DA40DA3
:10449000A50DA60DA70D0130F4007408B007412A40
:1044A000B235B30DB40DB50DB60DB70DB80DB90DD0
:1044B00027082F02031D762A26082E02031D762ABE
:1044C00025082D02031D762A24082C02031D762AB6
:1044D00023082B02031D762A22082A02031D762AAE
:1044E00021082902031D762A20082802031C892A94
:1044F0002008A8022108A93B2208AA3B2308AB3BBD
:104500002408AC3B2508AD3B2608AE3B2708AF3B53
:104510003214A736A60CA50CA40CA30CA20CA10C5B
:10452000A00C0130B002031D502A31080319B62A2D
:10453000B209B309B409B509B609B709B809B90987
:10454000B20A031DB62AB30A031DB62AB40A031D14
:10455000B62AB50A031DB62AB60A031DB62AB70A3B
:10456000031DB62AB80A031DB62AB90A200032086C
:10457000A0003308A1003408A2003508A3003608C3
:10458000A4003708A5003808A6003908A7000800CD
:10459000AE310226A231E9006908ED0001302200A7
:1045A000A4070030A53D103021006D06031DE02A50
:1045B0000230E9006908C7002200A401A501F12A20
:1045C00002306D06031DED2A0330E9006908C700BB
:1045D000D2012200A801A901DC2A20306D060319AE
:1045E000E42A013022002502F43003192402031CBE
:1045F000080021002F08F5002E08F400B731DE274F
:10460000A23175082100AB007408AA002200A401A1
:10461000A501AA314F22A2310030A400A50000302C
:10462000A600A7000E30A8000030A900A331BF23C8
:10463000A2312830A4000030A5000130A6000030CF
:10464000A7001030A8000030A900A331BF23A23179
:104650003730A4000030A5000130A6000030A700CC
:104660001130A8000030A900A331BF23A231463089
:10467000A4000030A5000130A6000030A7001130D2
:10468000A8000030A900A331BF23A2317030A400DC
:104690000030A5000030A600A7000D30A8000030B3
:1046A000A900A331BF23A23121004408E900EA0197
:1046B00069082000A00021006A082000A1000A303B
:1046C000A2000030A300AA316922A23121082100F2
:1046D000EC00200020082100EB000030D700B830AB
:1046E000D8006C08DA006B08D9000A302000A4005A
:1046F0000030A50021002B082000A70021002A0877
:104700002000A600A0310720A23125082100DC00EE
:10471000200024082100DB000A302000A000003027
:10472000A10021002B082000A30021002A0820005E
:10473000A200AB312923A23121082100DE00200094
:1047400020082100DD003830AB310223A2312830AF
:104750002000B4000030B5000030B600B70038309B
:104760002100E90069082000B800AD314125A231DF
:1047700092312F22A2310230A931CA210800BD0195
:104780002908A1002808A0002D30A2000030A300B5
:10479000AA316922A3310030AA009830AB0020086A
:1047A0002A07AC0021082B3DAD003D08AE00AF014B
:1047B0002E08A0002F08A1000330A2000030A300A3
:1047C000AA316922A3312C08200784002D08213D3D
:1047D00085000008B0003D08B100B2012708B40010
:1047E0002608B3000730B335B40D890BF32BF03036
:1047F000B5002530B60033083507B7003408363D1C
:10480000B80031083707B9003208383DBA0024082B
:104810003907BB0025083A3DBC003B0886003C0830
:104820008700300881002908A1002808A0002D3049
:10483000A2000030A300AA316922A3310130AA00EE
:104840009830AB0020082A07AC0021082B3DAD00B2
:104850003D08AE00AF012E08A0002F08A1000330D4
:10486000A2000030A300AA316922A3312C0820073E
:1048700084002D08213D85000008B0003D08B100EE
:10488000B2012708B4002608B3000730B335B40DD1
:10489000890B462C7030B5002630B600330835073A
:1048A000B7003408363DB80031083707B900320880
:1048B000383DBA0024083907BB0025083A3DBC0042
:1048C0003B0886003C088700300881002908A100C9
:1048D0002808A0002D30A2000030A300AA316922D0
:1048E000A3310230AA009830AB0020082A07AC00A0
:1048F00021082B3DAD003D08AE00AF012E08A00001
:104900002F08A1000330A2000030A300AA316922C1
:10491000A3312C08200784002D08213D85000008C4
:10492000B0003D08B100B2012708B4002608B3006A
:104930000730B335B40D890B992CF030B500263013
:10494000B60033083507B7003408363DB8003108E3
:104950003707B9003208383DBA0024083907BB00D0
:1049600025083A3DBC003B0886003C08870030081B
:1049700081000130AA002A08BD070F303D0203184C
:104980000800C02B2000EA00580886008701403F3D
:10499000DA00413FDB005A0884005B088500120002
:1049A000253A031DDD2D5808860087010130810757
:1049B00041310318810A2100A001A101A401A50130
:1049C000FF30A200FF30A3002000580886008701B6
:1049D000403FDA00413FDB005A0884005B08850055
:1049E00012002A3A031D122D580886008701013053
:1049F000810741310318810A59088600870101089F
:104A00008400850102308107003F2100A000013FA2
:104A1000A100A11F532D2414A009A109A00A031964
:104A2000A10A532D580886008701403FA400413F4A
:104A3000A500AF316127A43125082100A100200085
:104A400024082100A0002C2D580886008701013081
:104A5000810741310318810A200058088600870128
:104A6000403FDA00413FDB005A0884005B088500C4
:104A70000008D03EDC00FF3003180030DD000030BD
:104A80005D020A3003195C020318482D0130492DDC
:104A90000030DE00DF015E08E8005F08E90068081A
:104AA0006904031D242D2000580886008701403F1B
:104AB000DA00413FDB005A0884005B0885001200E1
:104AC000643A0319722D580886008701403FDA00C6
:104AD000413FDB005A0884005B0885001200693AF8
:104AE000031DAB2D58088600870101308107413135
:104AF0000318810A5908860087010108840085018E
:104B000002308107003FDA00013FDB005A08E00075
:104B10005B08E100890D893B8909E200E300E400BC
:104B2000E500E600E7006008BA006108BB00620823
:104B3000BC006308BD006408BE006508BF006608CD
:104B4000C0006708C1006A089C3140243B08D900B6
:104B50003A08D8000800580886008701403FDA006C
:104B6000413FDB005A0884005B0885001200253AAB
:104B7000031DD22D5808860087010130810741317D
:104B80000318810A2530A0000030A1006A08DA006D
:104B90005A08A200AB31BD2301302000D8000030FC
:104BA000D90008005808860087010130810741318B
:104BB0000318810AD801D901080058088600870126
:104BC000403FDA00413FDB005A0884005B08850063
:104BD0000008DC00DD015C08A0005D08A1006A0897
:104BE000DE005E08A200AB31BD23A43120005808CE
:104BF000860087010130810741310318810ACC2DDD
:104C0000003400340034003400340034C034003444
:104C100000340034003400340034003400340034F4
:104C200000340034003400340034003400340034E4
:104C300000340034003400340034003400340034D4
:104C40000034003400340034003400348034C03484
:104C5000C034C03440346034603460342034303484
:104C600030343034103418341834183408340C34D8
:104C70000C340C34043406340634063406340C3454
:104C80000C347834F034C0341C34FC34F834C03480
:104C90001C347C34703400341C341C340034003434
:104CA0000034003400340034003400340034003464
:104CB0000034003400340034003400340034003454
:104CC0000034003400340034003400340034003444
:104CD0000034003400340034003400340034003434
:104CE0000034003400340034003400340034003424
:104CF0000034003400340034003400340034003414
:104D0000003400343034C83434340B34C4342134E7
:104D1000503426341E34003400340034003400345F
:104D200000340034003400340034003400340034E3
:104D30000034003400340034003400347E34FF3456
:104D4000FF34FF34FF34FF34FE34FF34F934C03411
:104D500000340034003400340034003400340034B3
:104D600000340034003400340034003400340034A3
:104D70000034003400340034003400340034803413
:104D80008034C034E3347F341E34003403340334BD
:104D90000134003400340034003400340034003472
:104DA0000034003400340034003400340034003463
:104DB0000034003400340034003400340034003453
:104DC0000034003400340034003400340034003443
:104DD0000034003400340034003400340034003433
:104DE0000034003400340034003400340034003423
:104DF0000034003400340034003400340034003413
:104E000000340034073409340E341F342434793428
:104E10000034003400340034003480348034803472
:104E2000C034C034C0346034603460343034303422
:104E300010341834183488348C34CC34C634C73425
:104E40007F347F34FF34FF34FF34FF34FF34FF34CA
:104E5000FE34F034803400342034303430341834AC
:104E600098349834C034C0346034603430343034D2
:104E7000183418340C340C3406340234033401343E
:104E80000134003404340E34FC34FE34FE34FE3479
:104E90001E340434003400340034003400348434CC
:104EA000CE34CE34EE34E634E034EE34EE34CE3468
:104EB000CE34043460346034F034F834F834FC34E4
:104EC000F834603460342034F834FC34FC34EE348C
:104ED000CE34DE349C340834C434EC34EE34EE3456
:104EE000E434003400346034E034E034E034E0345E
:104EF000E034E0348034E034E034603400340034B2
:104F000000340034003400346034603470343034A1
:104F100028342C343E343F343B343134313419346A
:104F2000183418340C340C340C340634063402347F
:104F300003340334013401340134003400340034C8
:104F40000034003403340F341F341F341F341F3433
:104F50001F340F3403340334023402340334033473
:104F6000013401340034003400340034003400349F
:104F70000034003400340034003400340034003491
:104F800000340034203470347F347F347F347F34F5
:104F9000783470347034703478343C3408341F34CE
:104FA0003F347F347F347C34703477343F343F3443
:104FB0001F340F34003400341F343F347F347F34C7
:104FC0007F3470343034103421347F347F347F3474
:104FD0007F347F342134003470347F347F347F3425
:104FE0007F3470340034603470347D340F340F34C7
:104FF0007F347F347F347F3478346034003400343D
:105000000134003401345E34033406340034063491
:10501000053428347C3428347C3428340534243452
:105020002A347F342A34103403346234183446343A
:10503000053430344C345A3424345034013406347A
:1050400002343C344234023442343C340534283493
:1050500010347C3410342834033410343834103491
:105060000134C0340334103410341034013440346B
:10507000033460341834063404343C34423442344B
:105080003C34033444347E34403404344434623495
:1050900052344C3403344A344A34343404341E34E5
:1050A00010347C34103403344E344A3432340434F3
:1050B0003C344A344A3430340334623412340E34CB
:1050C000043434344A344A34343404340C345234DE
:1050D00052343C340134483402348034683403346C
:1050E0001034283444340334283428342834033426
:1050F0004434283410340334023452340C3405342C
:105100003C34423452342A343C3404347C34123437
:1051100012347C3404347E344A344A343434043413
:105120003C3442344234243404347E3442344234F5
:105130003C3403347E344A344A3403347E340A34F3
:105140000A3404343C3442345234343404347E342B
:10515000083408347E34033442347E344234033419
:10516000423442343E3404347E34083414346234DD
:1051700003347E344034403405347E3404340834FF
:1051800004347E3405347E340434183420347E34C0
:1051900004343C34423442343C3404347E341234DB
:1051A00012340C3404343C3442344234BC340434BD
:1051B0007E34123412346C34043444344A344A3465
:1051C0003034033402347E34023404343E34403408
:1051D00040343E3405340634183460341834063410
:1051E00005343E3440343E3440343E340534423499
:1051F000243418342434423404349E34A034A0348B
:105200007E340434623452344A34463402347E34B8
:1052100042340334063418346034023442347E3469
:105220000334203410342034043480348034803407
:105230008034023404340834043420345434543474
:10524000783404347E3444344434383404343834C8
:1052500044344434283404343834443444347E34BC
:105260000434383454345434583402347C340A34DA
:1052700004349834A434A4347C3404347E340434A8
:105280000434783401347A34023440343A34043407
:105290007E3410342834443401347E3405347C3474
:1052A000043478340434783404347C3404340434DE
:1052B0007834043438344434443438340434FC34DA
:1052C0002434243418340434183424342434FC347E
:1052D00002347C3404340434483454345434203498
:1052E000033404343E34443404343C3440344034D5
:1052F0003C3405340C343034403430340C34053410
:105300003C3440343C3440343C3405344434283458
:1053100010342834443404349C34A034A0347C3415
:105320000334643454344C34033408343634413454
:105330000134FF3403344134363408340434203427
:065340001034203410348B
:10534A00AB315523A931B7318527A931B7314E275A
:10535A00A931B7315427A931AA318422A931B731E9
:10536A00B4270800F500B7317427A9317830B7316E
:10537A00C127A9310030B731C127A9317508B73122
:10538A00C127A931A03100200800F5007508F400F2
:10539A00F40DF40D21001D087406833974069D006E
:1053AA001D144230890BD729003221009D140800B0
:1053BA00111022003108F1003008F000B731CF2770
:1053CA00A93122002E082F04031908002F088A0089
:1053DA002E080A00A931080075082000A3007408E5
:1053EA00A2002308A1002208A000A136A00CA13621
:1053FA00A00CA136A00C2008143EF4000030213D78
:10540A00F50008007408D03E2000A000FF30753D6A
:10541A00A100003021020A30031920020318172ABA
:10542A000130182A0030A200A3012208F400230840
:10543A00F50008003308803AB40080303402031DB6
:10544A00282A013032020318080020003209B40069
:10545A003309B500B40A0319B50A3408B20035088D
:10546A00B3000800A2002208A0002008A100220818
:10547A0086000130870001080319482A0130A0007C
:10548A002008A2073C2A21082202F400F501F41B95
:10549A00F50308002000A001A101F030F400253036
:1054AA00F5002008740786002108753D87008101F0
:1054BA000130A0070030A13D02302102003003195B
:1054CA00200203180800522AF401F501201C712A4F
:1054DA002208F4072308F53D0130A235A30D890BF4
:1054EA00722A0130A136A00C890B772A20082104E0
:1054FA00031D6B2A7508A1007408A000080001307A
:10550A0020009900F83097003030960017082200E2
:10551A00B100200016082200B0002000111021005E
:10552A0011140230F4000030F500B7316E27313023
:10553A002000980008002000A201A20A2030740668
:10554A0075040319B52A7408F73EA000FF30753DAB
:10555A00A100003021020530031920020318A2011C
:10556A002208A000A1012008F4002108F500080083
:10557A002000A000200823009100740893009513CE
:10558A001513151500308B1B01302000A1008B1359
:10559A00553023009600AA30960095149518D32A00
:1055AA0015112000210C031C8B1303188B170800FC
:1055BA00AE00AC01AD012C082E07A8002808860011
:1055CA00013087000108A9002908AB002B0803193C
:1055DA0008002B08A800A9012808A0002908A10092
:1055EA007408AA002A08A200AB31BD23AA310130EF
:1055FA002000AC070030AD3DE02AE800D930DF00DA
:10560A005F08E2006808DF005F08E300E401E501E3
:10561A00E601E70158082000EC00210057082000A5
:10562A00EB00E2302100DF005F082000ED00E330EC
:10563A00AB318923210064086807DF005F08860010
:10564A000130870081010800200821040319502B2A
:10565A00F501F50AA11B3B2B0130A035A10D890BE1
:10566A00322B0130F4007408F5072F2B210823028E
:10567A00031D412B20082202031C472B2008A202EB
:10568A002108A33B0130A136A00C890B482B01301D
:10569A00F502031D3B2B2308A1002208A0000800E5
:1056AA0022008C011A308D008E01083021009000F2
:1056BA007D308C00CB308D00FE308E0023008E01B1
:1056CA0040308D003E308C002400900101308D0066
:1056DA0040308C008E012100951325008C018D012C
:1056EA008E0126008C018D018E0122009D01013060
:1056FA009C0027001310121411100030F40000301F
:10570A00F500B731682708002100D40020006C0892
:10571A002100D60020006B082100D5002200A0013C
:10572A00A1012100550884005608850012000319BA
:10573A00B42BD5302000EE006E08D8006D08EF00BB
:10574A006F08D90021005408A431C224AB3158088B
:10575A002200A007200059082200A13D962B220012
:10576A0021082000EC00220020082000EB0008009D
:10577A002208031D2208031DC62B2008803103209E
:10578A0008002208033E8600870116000104031957
:10579A00E92B2208033E86008701403FA300413FD0
:1057AA00A400220A86008701403FA500413FA600C7
:1057BA002608803AA7002408803A2702031DE72B0F
:1057CA00230825020318080020002008A300220845
:1057DA0086008701220A8400850100080107A400C7
:1057EA00240886000130870023088100220A8600E7
:1057FA0087010130810741310318810A0800230813
:10580A00A7002208A6000730A635A70D890B092C88
:10581A0020082607B1002108273DB200B301250858
:10582A0085002408840000308407A830853D0008DC
:10583A003302031808003308A600A7010130A800A4
:10584A00A830A90026082807AA002708293DAB0086
:10585A002A08240784002B08253D85000008AC008F
:10586A003308F03EAD00AE012530AE3D31082D07BC
:10587A00AF0032082E3DB0002F088600300887009E
:10588A002C0881000130A6002608B307142CD10188
:10589A00C601C901B7317B27AC31AD319E25AC3188
:1058AA002100CC01C7010030B7319027AC3120006C
:1058BA00A00020082100C4000130B7319027AC3184
:1058CA002000A00020082100C5000230B73190272F
:1058DA00AC312000A00020082100C300053044029A
:1058EA00031C7D2C04302000A00020082100C400E5
:1058FA004408031D822CC401C40A2E304502031C2D
:10590A008C2C23302000A00020082100C50005307F
:10591A004302031C080004302000A00020082100D4
:10592A00C3000800B7002100241CA42C200037085B
:10593A00B2003208F4002F08AA31DD22AC3120006F
:10594A00B11BAC2C3108B6003008B500AE2CB5013D
:10595A00B601B301B4013408803AB2003608803A7D
:10596A003202031DBA2C350833020318CE2C20301C
:10597A002000A0000030A1003708B2003208A200BF
:10598A00AB31BD23AC3101302000B3070030B43D48
:10599A00B02C21002418DA2C20003708B200320873
:1059AA00F4002F08AA31DD22AC3120002F08AA31D9
:1059BA00372235087407AF003608753DB000080075
:1059CA002130A931B721AC310030A931B721AC312E
:1059DA007F30A931B721AC312230A931B721AC319E
:1059EA000030A931B721AC310730A931B721AC3128
:1059FA002000A801B7317427AC317830B731C127FC
:105A0A00AC314030B731C127AC312000A901290897
:105A1A00A200A3012808A400A501A40EA50EF03037
:105A2A00A50524080F39A504F030A4052408200789
:105A3A00A6002508213DA70022082607860023087C
:105A4A00273D87000108B731C127AC31013020005A
:105A5A00A2002208A90710302902031C0C2DA0312C
:105A6A000020AC3101302000A2002208A807203013
:105A7A00280203180800FF2C380886000130870026
:105A8A00010803190800BB01BC01B901BA013808B1
:105A9A008600013087000108E03EF400FF30031859
:105AAA000030F50075083A02031D5D2D74083902AD
:105ABA000318772D3C0885003B08840000308407D2
:105ACA00A830853D0008013EF4000030031801307B
