:020000040000FA
:1000000080311C28080008007E1480310B1F1A283C
:100010002100111F12282000111F1228A6316B2663
:1000200080311A282100111C1A282000111C1A28BE
:10003000A131A6217E10090080311E2800308400E5
:100040009E308500F0308600253087000230FF00AA
:100050000030AF3169278031F601F701F801F9016D
:10006000A0308400003085003430FE000030FF00F6
:10007000AF315D2780312030840001308500503061
:10008000FE000030FF00AF315D278031A0308400DA
:10009000013085002030FE000030FF00AF315D27C9
:1000A000803120308400023085004030FE00003076
:1000B000FF00AF315D277E102000A531382D0034C0
:1000C0000034003400340034003400340034003490
:1000D0000034003400340034003400340034003480
:1000E0000034003400340034003400340034003470
:1000F0000034003400340034003400340034003460
:100100000034F03437340034003400340034003428
:10011000003400340034003400340034003400343F
:1001200000340034003400340034003400347834B7
:1001300000340034003400340034783400340034A7
:10014000003400340034003400340034003400340F
:100150000034003400340034043480343C34C0347F
:100160000734B034043480343C34C0340734B03401
:10017000043480340034003400340034003400345B
:1001800000340034003400340034C03411342034DE
:10019000223420342234F834FF34203422344034E2
:1001A0001C34003400340034003400340034E034B3
:1001B0000134103402341034023410342234E03468
:1001C0001934003406348034013460341E34103461
:1001D0002134003421340034213400341E340034FE
:1001E000003400340034E0341E3410342134103430
:1001F00021341034233490342434603418340034DF
:100200001734003420340034003400340034003417
:10021000003400340034003400340034003400343E
:1002200000340034003478340034003400340034B6
:10023000003400340034003400340034003400341E
:10024000003400340034003400340034003400340E
:10025000003480341F346034603410348034083407
:1002600000340034003400340034003400340034EE
:1002700000340034003400340034003400340834D6
:100280000034103480346034603480341F340034DF
:1002900000340034003400340034003400340234BC
:1002A0000034C5340F34E2341F34F8343F34F834AA
:1002B0003F343C3478341C3470341C3470341C3477
:1002C00070341C34703438343834003428340034FA
:1002D000003400340034003402340034023400347A
:1002E0000234C0341F340034023400340234003489
:1002F000023400340034003400340034003400345C
:10030000003400340034003400340034003400344D
:10031000003400348034003470340034003400344D
:10032000003400340034003400340034003400342D
:10033000003400340034003400340034003400341D
:100340000234003402340034023400340234003405
:1003500000340034003400340034003400340034FD
:1003600000340034003400340034003400340034ED
:1003700000340034303400340034003400340034AD
:1003800000340034003400340034003400340034CD
:1003900000340034003400340034003400340034BD
:1003A000C0340034383400340734E03400341834B6
:1003B000003400340034003400340034003400349D
:1003C000003400340034C0340F342034103410347E
:1003D0002034103420341034203420341034C0340D
:1003E0000F3400340034003400340034003400345E
:1003F000003400340034003400340034003420343D
:10040000203420342034F0343F340034203400349D
:10041000203400340034003400340034003400341C
:1004200000340034003400340034203430341034CC
:100430002834103424341034223410342134E0347D
:1004400020340034003400340034003400340034EC
:1004500000340034003400340034203410341034BC
:100460002034103421341034213410342134E03459
:100470001E340034003400340034003400340034BE
:100480000034003400340034063400340534803441
:1004900004344034043420340434F0343F34003421
:1004A00004340034003400340034003400340034A8
:1004B00000340034003400340034F034113410348B
:1004C00021341034213410342134103421341034C8
:1004D0001E3400340034003400340034003400345E
:1004E00000340034003480340F346034113420344C
:1004F00021341034213410342134103412340034B7
:100500000C3400340034003400340034003400343F
:10051000003400340034003400341034003410341B
:1005200020341034183410340634D03401343034CC
:10053000003400340034003400340034003400341B
:10054000003400340034E0341E34103421341034CC
:100550002134103421341034213410342134E03467
:100560001E340034003400340034003400340034CD
:10057000003400340034C0340034203421341034CA
:100580002234103422341034123420341A34C0345B
:1005900007340034003400340034003400340034B4
:1005A00000340034003400340034003400340034AB
:1005B000003400340034C0343034003400340034AB
:1005C000003400340034003400340034003400348B
:1005D000003400340034003400340034003400347B
:1005E000003400348034C0347034003400340034BB
:1005F000003400340034003400340034003400345B
:100600000034003400340034023400340234003446
:1006100005340034053480340834803408344034E0
:10062000103400340034003400340034003400341A
:100630000034003400340034093400340934003408
:1006400009340034093400340934003409340034E6
:1006500009340034093400340034003400340034E8
:100660000034003400344034103480340834803492
:1006700008340034053400340534003402340034C6
:1006800002340034003400340034003400340234C6
:100690000034C5340F34E2341F34F8343F34F834B6
:1006A0003F343C3478341C3470341C3470341C3483
:1006B00070341C3470343834383400342834003406
:1006C0000F34C03430342034403420344E341034AD
:1006D00091349034903490349034903490349034F9
:1006E0009F34203410344034103480340F340034BC
:1006F0000034003400340034303400340E34E0343C
:10070000053410340434E034053400340E3400343D
:100710003034003400340034003400340034003409
:10072000003400340034F0343F34103421341034B9
:1007300021341034213410342134E03412340034A4
:100740000C340034003400340034003400340034FD
:1007500000340034003480340734603418342034DA
:100760001034103420341034203410342034103439
:100770002034203410340034003400340034003489
:100780000034F0343F34103420341034203410342A
:1007900020341034203410342034203410346034A9
:1007A000183480340734003400340034003400340A
:1007B000003400340034F0343F3410342134103429
:1007C00021341034213410342134103421341034C5
:1007D0002134003400340034003400340034003458
:1007E00000340034003400340034F0343F3410342A
:1007F0000134103401341034013410340134103415
:100800000134003400340034003400340034003447
:100810000034003400348034073460341834203419
:100820001034103420341034223410342234103474
:10083000223420341E3400340034003400340034B8
:10084000003400340034F0343F34003401340034D8
:1008500001340034013400340134003401340034F4
:100860000134F0343F3400340034003400340034B8
:1008700000340034003400340034003400341034C8
:100880002034F0343F341034203400340034003449
:1008900000340034003400340034003400340034B8
:1008A0000034003400340034003400342034103478
:1008B00020341034203410342034F0341F34003409
:1008C0000034003400340034003400340034003488
:1008D000003400340034F0343F3400340234003447
:1008E0000334803404344034083420341034103459
:1008F0002034003400340034003400340034003438
:1009000000340034003400340034F0343F34003418
:1009100020340034203400342034003420340034B7
:100920002034003400340034003400340034003407
:100930000034F0343F3430340034C03400340034F8
:10094000033400340C3400340334C0340034303405
:100950000034F0343F3400340034003400340034C8
:10096000003400340034F0343F3430340034C034C8
:1009700000340034013400340634003408340034C8
:100980003034F0343F340034003400340034003468
:100990000034803407346034183420341034103478
:1009A0002034103420341034203420341034603497
:1009B00018348034073400340034003400340034F8
:1009C000003400340034F0343F3410340234103436
:1009D0000234103402341034023420340134C03470
:1009E0000034003400340034003400340034003467
:1009F0000034803407346034183420341034103418
:100A00002034103420341034E03420341034603476
:100A10001834803407340034003400340034003497
:100A2000003400340034F0343F34103402341034D5
:100A300002341034023410340634E0340934003403
:100A400010340034203400340034003400340034D6
:100A5000003400340034E0341034103421341034C5
:100A60002134103421341034223410342234203410
:100A70001C340034003400340034003400340034BA
:100A80000034103400341034003410340034103486
:100A90000034F0343F341034003410340034103457
:100AA0000034103400340034003400340034003496
:100AB000003400340034F0340F3400341034003487
:100AC0002034003420340034203400342034003406
:100AD0001034F0340F340034003400340034003467
:100AE00000340034003430340034C0340134003475
:100AF0000E340034303400340E34C0340134303419
:100B00000034003400340034003400340034C03485
:100B1000033400341C340034303400340E34E034F8
:100B2000013410340034E034013400340E34003425
:100B3000303400341C34C0340334303400340034D6
:100B400000340034003410342034603418348034DD
:100B500004340034033480340434603418341034E2
:100B600020340034003400340034003400340034C5
:100B700000340034003410340034603400348034E5
:100B8000013400343E348034013460340034103495
:100B900000340034003400340034003400340034B5
:100BA000003400340034103430341034283410341D
:100BB00024341034233490342034503420343034EE
:100BC0002034003400340034003400340034003465
:100BD0000034003400340034003400340034F8347D
:100BE000FF3408340034083400340834003400344E
:100BF0000034003400340034003400340034003455
:100C0000003400340034003400340034003418342C
:100C10000034E03400340034073400343834003415
:100C2000C034003400340034003400340034003464
:100C3000003400340034003400340034003408340C
:100C400000340834003408340034F834FF340034FD
:100C500000340034003400340034003400340034F4
:100C60000034003400340034013480340034603403
:100C700000341034003410340034603400348034D4
:100C800000340034013400340034003400340034C3
:100C900000340034003400348034003480340034B4
:100CA00080340034803400348034003480340034A4
:100CB0008034003480340034003400340034003494
:100CC0000034003400340034003400340034003484
:100CD00000340C3400341034003400340034003458
:100CE0000034003400340034003400340034003464
:100CF0000034003400340034003400340034003454
:100D00000034003400340034003400340034003443
:100D10000034003400340034003400340034003433
:100D20000034003400340034003400340034003423
:100D30000034F034373400340034003400340034EC
:100D40000034003400340034003400340034003403
:100D5000003400340034003400340034003478347B
:100D6000003400340034003400347834003400346B
:100D700000340034003400340034003400340034D3
:100D80000034003400340034043480343C34C03443
:100D90000734B034043480343C34C0340734B034C5
:100DA000043480340034003400340034003400341F
:100DB00000340034003400340034C03411342034A2
:100DC000223420342234F834FF34203422344034A6
:100DD0001C34003400340034003400340034E03477
:100DE0000134103402341034023410342234E0342C
:100DF0001934003406348034013460341E34103425
:100E00002134003421340034213400341E340034C1
:100E1000003400340034E0341E34103421341034F3
:100E200021341034233490342434603418340034A2
:100E300017340034203400340034003400340034DB
:100E40000034003400340034003400340034003402
:100E5000003400340034783400340034003400347A
:100E600000340034003400340034003400340034E2
:100E700000340034003400340034003400340034D2
:100E8000003480341F3460346034103480340834CB
:100E900000340034003400340034003400340034B2
:100EA000003400340034003400340034003408349A
:100EB0000034103480346034603480341F340034A3
:100EC0000034003400340034003400340034023480
:100ED0000034C5340F34E2341F34F8343F34F8346E
:100EE0003F343C3478341C3470341C3470341C343B
:100EF00070341C34703438343834003428340034BE
:100F0000003400340034003402340034023400343D
:100F10000234C0341F34003402340034023400344C
:100F2000023400340034003400340034003400341F
:100F30000034003400340034003400340034003411
:100F40000034003480340034703400340034003411
:100F500000340034003400340034003400340034F1
:100F600000340034003400340034003400340034E1
:100F700002340034023400340234003402340034C9
:100F800000340034003400340034003400340034C1
:100F900000340034003400340034003400340034B1
:100FA0000034003430340034003400340034003471
:100FB0000034003400340034003400340034003491
:100FC0000034003400340034003400340034003481
:100FD000C0340034383400340734E034003418347A
:100FE0000034003400340034003400340034003461
:100FF000003400340034C0340F3420341034103442
:101000002034103420341034203420341034C034D0
:101010000F34003400340034003400340034003421
:101020000034003400340034003400340034203400
:10103000203420342034F0343F3400342034003461
:1010400020340034003400340034003400340034E0
:101050000034003400340034003420343034103490
:101060002834103424341034223410342134E03441
:1010700020340034003400340034003400340034B0
:101080000034003400340034003420341034103480
:101090002034103421341034213410342134E0341D
:1010A0001E34003400340034003400340034003482
:1010B0000034003400340034063400340534803405
:1010C00004344034043420340434F0343F340034E5
:1010D000043400340034003400340034003400346C
:1010E00000340034003400340034F034113410344F
:1010F000213410342134103421341034213410348C
:101100001E34003400340034003400340034003421
:1011100000340034003480340F346034113420340F
:10112000213410342134103421341034123400347A
:101130000C34003400340034003400340034003403
:1011400000340034003400340034103400341034DF
:1011500020341034183410340634D0340134303490
:1011600000340034003400340034003400340034DF
:10117000003400340034E0341E3410342134103490
:101180002134103421341034213410342134E0342B
:101190001E34003400340034003400340034003491
:1011A000003400340034C03400342034213410348E
:1011B0002234103422341034123420341A34C0341F
:1011C0000734003400340034003400340034003478
:1011D000003400340034003400340034003400346F
:1011E000003400340034C03430340034003400346F
:1011F000003400340034003400340034003400344F
:10120000003400340034003400340034003400343E
:10121000003400348034C03470340034003400347E
:10122000003400340034003400340034003400341E
:10123000003400340034003402340034023400340A
:1012400005340034053480340834803408344034A4
:1012500010340034003400340034003400340034DE
:1012600000340034003400340934003409340034CC
:1012700009340034093400340934003409340034AA
:1012800009340034093400340034003400340034AC
:101290000034003400344034103480340834803456
:1012A000083400340534003405340034023400348A
:1012B000023400340034003400340034003402348A
:1012C0000034C5340F34E2341F34F8343F34F8347A
:1012D0003F343C3478341C3470341C3470341C3447
:1012E00070341C34703438343834003428340034CA
:1012F0000F34C03430342034403420344E34103471
:1013000091349034903490349034903490349034BC
:101310009F34203410344034103480340F3400347F
:101320000034003400340034303400340E34E034FF
:10133000053410340434E034053400340E34003401
:1013400030340034003400340034003400340034CD
:10135000003400340034F0343F341034213410347D
:1013600021341034213410342134E0341234003468
:101370000C340034003400340034003400340034C1
:10138000003400340034803407346034183420349E
:1013900010341034203410342034103420341034FD
:1013A000203420341034003400340034003400344D
:1013B0000034F0343F3410342034103420341034EE
:1013C000203410342034103420342034103460346D
:1013D00018348034073400340034003400340034CE
:1013E000003400340034F0343F34103421341034ED
:1013F0002134103421341034213410342134103489
:10140000213400340034003400340034003400341B
:1014100000340034003400340034F0343F341034ED
:1014200001341034013410340134103401341034D8
:10143000013400340034003400340034003400340B
:1014400000340034003480340734603418342034DD
:101450001034103420341034223410342234103438
:10146000223420341E34003400340034003400347C
:10147000003400340034F0343F340034013400349C
:1014800001340034013400340134003401340034B8
:101490000134F0343F34003400340034003400347C
:1014A000003400340034003400340034003410348C
:1014B0002034F0343F34103420340034003400340D
:1014C000003400340034003400340034003400347C
:1014D000003400340034003400340034203410343C
:1014E00020341034203410342034F0341F340034CD
:1014F000003400340034003400340034003400344C
:10150000003400340034F0343F340034023400340A
:10151000033480340434403408342034103410341C
:1015200020340034003400340034003400340034FB
:1015300000340034003400340034F0343F340034DC
:10154000203400342034003420340034203400347B
:1015500020340034003400340034003400340034CB
:101560000034F0343F3430340034C03400340034BC
:10157000033400340C3400340334C03400343034C9
:101580000034F0343F34003400340034003400348C
:10159000003400340034F0343F3430340034C0348C
:1015A000003400340134003406340034083400348C
:1015B0003034F0343F34003400340034003400342C
:1015C000003480340734603418342034103410343C
:1015D000203410342034103420342034103460345B
:1015E00018348034073400340034003400340034BC
:1015F000003400340034F0343F34103402341034FA
:101600000234103402341034023420340134C03433
:10161000003400340034003400340034003400342A
:1016200000348034073460341834203410341034DB
:101630002034103420341034E0342034103460343A
:10164000183480340734003400340034003400345B
:10165000003400340034F0343F3410340234103499
:1016600002341034023410340634E03409340034C7
:10167000103400342034003400340034003400349A
:10168000003400340034E034103410342134103489
:1016900021341034213410342234103422342034D4
:1016A0001C3400340034003400340034003400347E
:1016B000003410340034103400341034003410344A
:1016C0000034F0343F34103400341034003410341B
:1016D000003410340034003400340034003400345A
:1016E000003400340034F0340F340034103400344B
:1016F00020340034203400342034003420340034CA
:101700001034F0340F34003400340034003400342A
:1017100000340034003430340034C0340134003438
:101720000E340034303400340E34C03401343034DC
:101730000034003400340034003400340034C03449
:10174000033400341C340034303400340E34E034BC
:10175000013410340034E034013400340E340034E9
:10176000303400341C34C03403343034003400349A
:1017700000340034003410342034603418348034A1
:1017800004340034033480340434603418341034A6
:101790002034003400340034003400340034003489
:1017A00000340034003410340034603400348034A9
:1017B000013400343E348034013460340034103459
:1017C0000034003400340034003400340034003479
:1017D00000340034003410343034103428341034E1
:1017E00024341034233490342034503420343034B2
:1017F0002034003400340034003400340034003429
:101800000034003400340034003400340034F83440
:10181000FF34083400340834003408340034003411
:101820000034003400340034003400340034003418
:1018300000340034003400340034003400341834F0
:101840000034E034003400340734003438340034D9
:10185000C034003400340034003400340034003428
:1018600000340034003400340034003400340834D0
:1018700000340834003408340034F834FF340034C1
:1018800000340034003400340034003400340034B8
:1018900000340034003400340134803400346034C7
:1018A0000034103400341034003460340034803498
:1018B0000034003401340034003400340034003487
:1018C0000034003400340034803400348034003478
:1018D0008034003480340034803400348034003468
:1018E0008034003480340034003400340034003458
:1018F0000034003400340034003400340034003448
:1019000000340C340034103400340034003400341B
:101910000034003400340034003400340034003427
:10192000003400340034003400340034FF34013417
:101930008034FF340334C034FF340734E034FF34E0
:101940000F34E03401340F34E03400340E34E0342A
:1019500001340F34E034FF340F34C034FF34073423
:101960008034FF3403340034FF3401340034003455
:1019700000340034003400340034003400340034C7
:1019800000340034003400340034803403340E3426
:10199000803403340E34803403340E34E034FF34A6
:1019A0000F34E034FF340F34E034FF340F34E034CC
:1019B000FF340F34003400340E34003400340E345D
:1019C000003400340E340034003400340034003469
:1019D0000034003400340034003400340034C034A7
:1019E00001340E34E03401340F34E03400340F3469
:1019F000E03480340F34E034C0340F34E034E03469
:101A00000F34E034F1340E34E0347F340E34C0341B
:101A10003F340E34C0341F340E3480340F340E344F
:101A2000003400340E340034003400340034003408
:101A30000034003400340034C03401340734E0345E
:101A400001340F34E03400340E34E03438340E34D2
:101A5000E03438340E34E03438340E34E0343C347E
:101A60000F34E034FF340F34C034EF340734C03463
:101A7000EF3407348034C734033400340034003486
:101A800000340034003400340034003400340034B6
:101A900000340034F03400340034F83400340034BE
:101AA000FC3400340034E73400348034E334003450
:101AB000C034E1340034E034FF340F34E034FF3418
:101AC0000F34E034FF340F34E034FF340F3400348B
:101AD000E03400340034E0340034003400340034A6
:101AE0000034003400340034003400340034003456
:101AF0000734E0341F340E34E0341F340E34E03445
:101B00001F340E34E0341F340E34E0341C340E34F1
:101B1000E0343C340F34E034FC340F34E034FC3433
:101B20000734E034F8340334E034F0340134003462
:101B30000034003400340034003400340034003405
:101B40000034003400340034FC3401340034FF34F9
:101B500003348034FF340734C034FF340F34E034AE
:101B60001B340F34E0341D340E34E0341C340E3496
:101B7000E034FC340F34E034FC340734E034F8341F
:101B800007340034F03401340034003400340034BD
:101B900000340034003400340034003400340034A5
:101BA000E03400340834E03400340E34E03480345F
:101BB0000F34E034C0340F34E034F0340F34E03408
:101BC000FC340334E034FF340034E0347F34003438
:101BD000E0341F340034E03407340034E03401349E
:101BE0000034003400340034003400340034003455
:101BF000003400340034003400348034C7340334FB
:101C0000C034EF340734C034FF340734E034FF34D9
:101C10000F34E0341C340E34E03438340E34E03405
:101C200038340E34E034FF340F34E034FF340734FA
:101C3000C034E73407348034C33403340034003410
:101C400000340034003400340034003400340034F4
:101C50000034003400341F340034C0343F340E34B8
:101C6000C0347F340E34E0347F340E34E0347034CA
:101C70000E34E03470340F34E034B1340F34E034D7
:101C8000FF340734C034FF3403348034FF3401346C
:101C900000347F3400340034003400340034003425
:101CA00000341C340034003414347C3400341C34CC
:101CB000FF3401348034FF340334C034C734073474
:101CC000C03400340634603400340C342034003422
:101CD00008342034003408342034003408342034EC
:101CE00000340834603400340834403400340434A0
:101CF000C03401340434E03403340234003480341A
:101D000000340034C03400340034E0340034003493
:101D1000F03400340034F83400340034FC3400343F
:101D20000034FE3400340034FF3400340034FE3418
:101D300000340034FC3400340034F834003400340F
:101D4000F03400340034E03400340034C034003463
:101D5000003480340034003401340034003403345F
:101D6000003400340734003400340F3400340034BD
:101D70001F34003400343F34003400347F340034E6
:101D80000034FF34003400347F34003400343F34F6
:101D9000003400341F34003400340F340034003475
:101DA0000734003400340334003400340134003488
:101DB000003400340034003480340F340034603494
:101DC0003034003420346034003400344034003483
:101DD0000034C0340034003480340034FE348034A5
:101DE00000340034803400340034C0340034003413
:101DF00040340034203460340034603430340034F3
:101E000080340F3400340034003400343034C034B3
:101E100000347034E0340034E03470340034C234C0
:101E200018340034EE340E340034FC340D340034F5
:101E3000F8340334003480340734003420340F3451
:101E4000003470341E34003478343C3400343C3474
:101E5000783400341E34F03400340C3460340034F0
:101E600000340034003480340334003480340334CC
:101E7000003480340334003480340334003480343C
:101E800003340034803403340034803403340034A9
:101E9000D03417340034F8343F340034F8343F344D
:101EA0000034F0341F340034E0340F340034C034D4
:101EB00007340034803403340034003401340034F7
:101EC000FE3400348034FF340334C034FF3407342C
:101ED000C034FF340734E03483340F34E03400344A
:101EE0000E34E03400340E34E03400340E34E03488
:101EF00000340E34E03483340F34C034FF340734FC
:101F0000C034FF3407348034FF3403340034FE34EB
:101F10000034003400340034003400340034003421
:101F200000340034E034FF340F34E034FF340F3435
:101F3000E034FF340F34E034FF340F34E03438340D
:101F40000034E03438340034E03438340034E034E1
:101F500038340034E03438340034E0343834003479
:101F6000E0343834003400340034003400340034B9
:101F70000034003400340034E03400340034E03401
:101F800000340034E03400340034E03400340034F1
:101F9000E034FF340F34E034FF340F34E034FF34E6
:101FA0000F34E034FF340F34E03400340034E034D4
:101FB00000340034E03400340034E03400340034C1
:101FC0000034003400340034003400340034003471
:101FD0000034003400340034003400340034E03481
:101FE00000340E34E03400340E34E034FF340F3467
:101FF000E034FF340F34E034FF340F34E034FF3486
:102000000F34E03400340E34E03400340E34003445
:102010000034003400340034003400340034003420
:102020000034003400340034003400340034003410
:102030000034E034FF340F34E034FF340F34E03444
:10204000FF340F34E034FF340F34E03470340034A4
:10205000E03470340034E03470340034E0347934E7
:102060000034E0347F340034C0343F340034C034B2
:102070001F34003480340F34003400340034003412
:10208000003480347F340034C034C03400344034F1
:10209000C03400344034C03400344034C6340034DA
:1020A0000034CC3400340034D8340034FC34DF3411
:1020B00000340034D83400344034CC34003440345C
:1020C000C63400344034C03400344034C0340034AA
:1020D000C0347F34003480343F3400340034003462
:1020E0000034803407340034F0341F340034383482
:1020F000383400341C34603400340C346034003420
:10210000C434C63400348434C33400348434C33417
:102110000034C434C63400340C34603400341C340D
:1021200060340034383438340034F0341F34003430
:102130008034073400340034003400342034003458
:1021400000347C34003400347F34C034C0347F34F5
:10215000F034F0347F347E34FC34FF341F34FF34E9
:10216000FF340F34FF34FF340734FF34FF340134BD
:10217000FF34FF3400347F347E3400343F341E3467
:1021800000340F340E340034023404340034750843
:102190002000A3007408A2002308A1002208A000C8
:1021A000A136A00CA136A00CA136A00C2008F4008A
:1021B0002108F5000800BD012908A1002808A00099
:1021C0002D30A2000030A300A231042290318F30C4
:1021D000AA008C30AB0020082A07AC0021082B3D58
:1021E000AD003D08AE00AF012E08A0002F08A100F1
:1021F0000330A2000030A300A231042290312C0849
:10220000200784002D08213D85000008B0003D080E
:10221000B100B2012708B4002608B3000730B33577
:10222000B40D890B0F29F030B5002530B600330806
:102230003507B7003408363DB80031083707B90014
:102240003208383DBA0024083907BB0025083A3D5A
:10225000BC003B0886003C08870030088100290844
:10226000A1002808A0002D30A2000030A300A23158
:10227000042290319030AA008C30AB0020082A074D
:10228000AC0021082B3DAD003D08AE00AF012E088B
:10229000A0002F08A1000330A2000030A300A2314B
:1022A000042290312C08200784002D08213D850050
:1022B0000008B0003D08B100B2012708B4002608AC
:1022C000B3000730B335B40D890B62297030B50007
:1022D0002630B60033083507B7003408363DB8005D
:1022E00031083707B9003208383DBA0024083907E9
:1022F000BB0025083A3DBC003B0886003C0887002F
:10230000300881002908A1002808A0002D30A20073
:102310000030A300A231042290319130AA008C3009
:10232000AB0020082A07AC0021082B3DAD003D087A
:10233000AE00AF012E08A0002F08A1000330A200BC
:102340000030A300A231042290312C082007840021
:102350002D08213D85000008B0003D08B100B20104
:102360002708B4002608B3000730B335B40D890B35
:10237000B529F030B5002630B60033083507B70070
:102380003408363DB80031083707B9003208383D07
:10239000BA0024083907BB0025083A3DBC003B08B9
:1023A00086003C088700300881000130AA002A0816
:1023B000BD070F303D0203180800DC28A531FE25BB
:1023C0009131E9006908ED0020306D06031DF22B04
:1023D000A131EA2191311430A4000030A500013070
:1023E000A6000030A7004B30A800B030A9009831FB
:1023F000E8209131AF3134272100B701C601C60A68
:102400000800A131EA2191311430A4000030A50068
:102410000030A600A7005930A800B030A9009831BC
:10242000E820913121004308E900EA016908200011
:10243000A00021006A082000A1000A30A20000309C
:10244000A300A2310422913121082100EC002000D8
:1024500020082100EB004430D700B030D8006C08D1
:10246000DA006B08D9005230A2319D22913114302C
:102470002000A4000030A5000230A6000030A70014
:102480005230A8000130A9009831E8209131003085
:10249000A400A5000130A6000030A7000F30A8005E
:1024A0000030A9009031DB2091316830A400003069
:1024B000A5000130A6000030A7001630A8000030AB
:1024C000A9009031DB209131AF3134272100B701D1
:1024D000B70A080010306D06031DD92AA131EA2180
:1024E00091311430A4000030A5000030A600A700F0
:1024F0005930A800B030A9009831E820913121006E
:102500004208E900EA0169082000A00021006A08E9
:102510002000A1000A30A2000030A300A231042252
:10252000913121082100EC00200020082100EB005F
:102530005230D700B030D8006C08DA006B08D900F0
:102540005230A2319D22913114302000A40000307D
:10255000A5000230A6000030A7005230A8000130CC
:10256000A9009831E82091310030A400A500013085
:10257000A6000030A7001530A8000030A900903157
:10258000DB2091316830A4000030A5000130A600A6
:102590000030A7001630A8000030A9009031DB20E1
:1025A0009131AF31342702302100E9006908B700CA
:1025B00008006D03031D192B10304302031C080093
:1025C0000130C3024308E900EA0169082000A000C5
:1025D00021006A082000A1000A30A2000030A300F8
:1025E000A2310422913121082100EC0020002008B2
:1025F0002100EB004430D700B030D8006C08DA007E
:102600006B08D9005230A2319D2291311430200044
:10261000A4000030A5000230A6000030A700523010
:10262000A8000130A9009831E8209131AF3134275A
:10263000080002306D06031D08002B30430203180A
:1026400008000130E9006908C307E22A10306D066E
:10265000031D5D2BA131EA21913121004108031DA9
:10266000352B3130D700B0304B2B4103031D3C2BB1
:102670002630D700B0304B2B023041060319442BD3
:1026800002304106031D482B0E30D700B0304B2BD3
:102690001A30D700B030D8005230A2319D2291318B
:1026A00014302000A4000030A5000130A600003046
:1026B000A7005230A8000130F6296D03031D672BD7
:1026C00002304202031C08000130C202732B0230A8
:1026D0006D06031D08000430420203180800013093
:1026E000E9006908C2074208E900EA016908200018
:1026F000A00021006A082000A1000A30A2000030DA
:10270000A300A2310422913121082100EC00200015
:1027100020082100EB005230D700B030FD2A1030E5
:102720006D06031DBC2B4208E9006908F400003067
:10273000A2315822913121004308E9006908F400D0
:102740000130A2315822913121004108E900690885
:10275000F4000230A23158229131A131EA219131A5
:102760001430A4000030A5000130A6000030A700FE
:102770006430A800B030F6296D03031DC52B410855
:10278000031908000130C102D12B02306D06031D70
:10279000080003304102031808000130E90069080D
:1027A000C1074108031DD82B3130D700B030EE2BC4
:1027B0004103031DDF2B2630D700B030EE2B023053
:1027C00041060319E72B02304106031DEB2B0E30A7
:1027D000D700B030EE2B1A30D700B030D800022B23
:1027E000B70108003708E900EA016A08003A03194E
:1027F000FA2BF02B6908003A0319012A013A031950
:102800006A2A033A0319262B013A03198F2BF02B5E
:102810000800A531FE259431E9006908EB006B033F
:10282000031D182C10304302031C182C0130C30266
:1028300010306B06031D232C44030319222CC40102
:10284000C40A232CC40102306B06031D2F2C2D302B
:10285000430203182F2C0130E9006908C307203018
:102860006B06031D352CC601C60A4308E900EA01C0
:1028700069082000A00021006A082000A1000A3099
:10288000A2000030A300A2310422943121082100CB
:10289000A900200020082100A8000130E9006908F3
:1028A000B20703303206031D592C0230AF31C32763
:1028B000943104303206031DDF2C3108F500300856
:1028C000F4009031C720943175082100AD007408E0
:1028D000AC004735203E8600013087002C08C03F01
:1028E0002D08C13F0130E9006908C70708304702D9
:1028F0000318C701A601A701C0014035203E86008C
:1029000001308700403FE900413FEA006908A6071F
:102910006A08A73D0130E9006908C0070830400295
:10292000031C7D2C2D08A7002C08A600B42CAB2C72
:1029300022008E1021008E14A62C22008E10210061
:102940008E10AF2C22008E1021008E1022000E114E
:1029500021000E11CA2C22008E1021008E1422009C
:102960000E1121000E15CA2C4208E900EA016A087E
:10297000003A0319BC2CAB2C6908013A0319972CB7
:10298000033A0319982C013A03199D2C073A0319AD
:10299000A22CAB2C29082D02031DD02C28082C02B8
:1029A0000318D92C01302200CC070030CD3D0E1485
:1029B000DB2C22000E100130CA070030CB3D643002
:1029C00021003202031C0800B20101302200C807B6
:1029D0000030C93D013049022C3003194802031C64
:1029E0001E2DC801C90101302100E9006908D20784
:1029F000082DD2011E2D05305202031C1E2DC601CA
:102A0000C60AF92C0A30FC2C0F30FC2C1E30FC2C92
:102A10004108E900EA016A08003A0319102D062D61
:102A20006908003A0319F92C013A0319FB2C033AFF
:102A30000319022D013A0319042D062D013021003E
:102A4000E9006908B30722000E1021002F08F500E5
:102A50002E08F40098310020943175082100AB0055
:102A60007408AA004403031DED2DA131EA2194311D
:102A7000003022004B02323003194A02031C482D59
:102A80004D08C3004C08C200CA01CB01CC01CD01E6
:102A90003C302100D700B030D8000A302000A4001C
:102AA0000030A50021002B082000A70021002A08E3
:102AB0002000A60098311020943125082100DA006A
:102AC000200024082100D9000A302000A000003096
:102AD000A10021002B082000A30021002A082000CB
:102AE000A200A231C422943121082100DC00200080
:102AF00020082100DB005230A2319D2294310030A9
:102B00002000A400A5000030A600A7005230A800B5
:102B10000130A9009831E820943121004208E900F1
:102B2000EA0169082000A00021006A082000A10035
:102B30000A30A2000030A300A231042294312108FF
:102B40002100ED00200020082100EC006930D700B2
:102B5000B030D8006D08DA006C08D9005230A231CC
:102B60009D22943140302000A4000030A5000030A8
:102B7000A600A7005230A8000130A9009831E82033
:102B80009431013021002D02F43003192C02031876
:102B9000D22D4630D700B030D8002D08DA002C08EE
:102BA000D900D62D5F30D700B030D8005230A231D6
:102BB0009D22943140302000A4000030A500023056
:102BC000A6000030A7005230A8000130A9009831BB
:102BD000E8209431AF31342708004408031D080071
:102BE000A131EA219431013021002D02EB3003198B
:102BF0002C02031C382E00302000A400A500013058
:102C0000A6000030A7000C30A8000030A9009031C9
:102C1000DB2094313230A4000030A5000130A60042
:102C20000030A7001230A8000030A9009031DB204E
:102C300094314130A4000030A5000130A6000030DE
:102C4000A7001330A8000030A9009031DB20943198
:102C50005030A4000030A5000130A6000030A700CD
:102C60001430A8000030A9009031DB2094311D2FD2
:102C70000F3033020318B3012808E23EE900FF30A9
:102C8000293DEA006A082702031D482E690826022A
:102C900003185F2E053033020318632E1430200012
:102CA000A4000030A5000130A6000030A7001730B6
:102CB000A8000030A9009031DB209431632E290850
:102CC000A7002808A60064302000A4000030A5005A
:102CD000210027082000A700210026082000A600C8
:102CE00098311020943124082100E9006908B600C9
:102CF0000A302000A4000030A50021002708200091
:102D0000A300210026082000A2006430A0000030AB
:102D1000A100A231C42294312108A7002008A600F6
:102D200098311020943124082100E9006908B50089
:102D30000A302000A0000030A10021002708200058
:102D4000A300210026082000A200A231C422943151
:102D500020082100E9006908B40000302000A40028
:102D6000A5000130A6000030A7000C30A8000030FC
:102D7000A9009031DB209431210036080319D92EA7
:102D800028302000A4000030A5000130A60000304B
:102D9000A70021003608E900EA0169082000A80020
:102DA00021006A082000A9009031DB2094313730DF
:102DB000DE2E35080319F52E37302000A400003030
:102DC000A5000130A6000030A70021003508E90069
:102DD000EA0169082000A80021006A082000A90073
:102DE0009031DB2094314630F72E46302000A4008D
:102DF0000030A5000130A6000030A70021003408F3
:102E0000E900EA0169082000A80021006A08200002
:102E1000A9009031DB2094315730A4000030A50088
:102E20000130A6000030A7003F302100E90069080A
:102E30002000A8009831442094317030A400003064
:102E4000A5000130A6000030A7000B30A80000301C
:102E5000A9009031DB209431103021004302031C83
:102E6000632F4308FF3E2000A000FF30031800300E
:102E7000A1000A30A2000030A300A2310422943144
:102E800021082100ED00200020082100EC006E3018
:102E9000D700B030D8006D08DA006C08D900523085
:102EA000A2319D22943100302000B400B5000030E2
:102EB000B600B70052302100E90069082000B800D0
:102EC000A431DB24943121004208E900EA016908B9
:102ED0002000A00021006A082000A1000A30A20002
:102EE0000030A300A2310422943121082100ED001A
:102EF000200020082100EC000030D700B030D800BE
:102F00006D08DA006C08D9000A302000A4000030F7
:102F1000A50021002B082000A70021002A0820007E
:102F2000A60098311020943125082100DC002000F3
:102F300024082100DB000A302000A0000030A1009E
:102F400021002B082000A30021002A082000A20055
:102F5000A231C422943121082100DE002000200883
:102F60002100DD005230A2319D2294312830200012
:102F7000B4000030B5000030B600B7005230210078
:102F8000E90069082000B800A431DB2494312D3019
:102F9000210043020318EA2D4308013E2000A0004F
:102FA000003003180130A1000A30A2000030A30055
:102FB000A2310422943121082100ED0020002008D4
:102FC0002100EC006E30D700B030D8006D08DA0078
:102FD0006C08D9005230A2319D2294316C3020000F
:102FE000B4000030B5000030B600B7005230210008
:102FF000E90069082000B800A431DB249431EA2DEF
:1030000075082000A1007408A000A136A00CA1360C
:10301000A00CA136A00C2008F4002108F50008003F
:10302000A901AA012408250403193F28AB01AB0A12
:10303000A51B24280130A435A50D890B1B280130C0
:10304000A8002808AB0718280130A935AA0D890B5C
:10305000252825082702031D2F2824082602031CE3
:1030600036282408A6022508A73B29140130A536D6
:10307000A40C890B37280130AB02031D24282A0831
:10308000A5002908A4000800BE013E08A900AA0165
:10309000A935AA0D2808AB00AC012B08A0002C080C
:1030A000A1001830A2000030A300A2310422983100
:1030B0007730AD008330AE0020082D07AF00210827
:1030C0002E3DB0002F082907840030082A3D8500D6
:1030D0000008B1003E08B200B3012708B500260879
:1030E000B4000730B435B50D890B7228F030B60046
:1030F0002530B70034083607B8003508373DB90029
:1031000032083807BA003308393DBB0024083A07B3
:10311000BC0025083B3DBD003C0886003D088700FB
:10312000310881003E08A900AA01A935AA0D280886
:10313000AB00AC012B08A0002C08A1001830A200A5
:103140000030A300A231042298317830AD008330E2
:10315000AE0020082D07AF0021082E3DB0002F083B
:103160002907840030082A3D85000008B1003E0888
:10317000B200B3012708B5002608B4000730B43503
:10318000B50D890BBF287030B6002630B700340863
:103190003607B8003508373DB90032083807BA009D
:1031A0003308393DBB0024083A07BC0025083B3DE5
:1031B000BD003C0886003D088700310881000130D1
:1031C000A9002908BE070C303E0203180800452854
:1031D0002808840029088500120003190800BF018F
:1031E0003F08AA00AB01AA35AB0D280884002908C6
:1031F00085000008AC00AD012C08A0002D08A1003E
:103200001830A2000030A300A23104229831773098
:10321000AE008330AF0020082E07B00021082F3DFC
:10322000B10030082A07840031082B3D85000008D2
:10323000B2003F08B300B4012708B6002608B50065
:103240000730B535B60D890B2129F030B700253090
:10325000B80035083707B9003608383DBA003308DA
:103260003907BB0034083A3DBC0024083B07BD00C9
:1032700025083C3DBE003D0886003E088700320818
:1032800081003F08AA00AB01AA35AB0D28088400D5
:10329000290885000008AC00AD012C08A0002D080D
:1032A000A1001830A2000030A300A23104229831FE
:1032B0007830AE008330AF0020082E07B000210820
:1032C0002F3DB10030082A07840031082B3D8500CE
:1032D0000008B2003F08B300B4012708B600260872
:1032E000B5000730B535B60D890B72297030B700BF
:1032F0002630B80035083707B9003608383DBA001F
:1033000033083907BB0034083A3DBC0024083B07AA
:10331000BD0025083C3DBE003D0886003E088700F4
:10332000320881000130AA002A08BF070C303F0292
:10333000031CF0280C30A4070030A53D0130A8077D
:103340000030A93DE828B101283086000030870010
:10335000473FF400F41FCE292000A809A909AA09B3
:10336000AB09AC09AD09AE09AF09A80A031DCB2909
:10337000A90A031DCB29AA0A031DCB29AB0A031DE9
:10338000CB29AC0A031DCB29AD0A031DCB29AE0AFC
:10339000031DCB29AF0A2000B101B10A20308600FD
:1033A00000308700473FF400F41FF5292000A009F2
:1033B000A109A209A309A409A509A609A709A00AA8
:1033C000031DF529A10A031DF529A20A031DF529EC
:1033D000A30A031DF529A40A031DF529A50A031D47
:1033E000F529A60A031DF529A70A200020082104B3
:1033F00022042304240425042604270403194D2A47
:10340000B001B00AA71B112AA035A10DA20DA30D72
:10341000A40DA50DA60DA70D0130F4007408B0078A
:10342000022A27082F02031D2F2A26082E02031D19
:103430002F2A25082D02031D2F2A24082C02031DE4
:103440002F2A23082B02031D2F2A22082A02031DDC
:103450002F2A21082902031D2F2A20082802031CD5
:10346000412A2008A8022108A93B2208AA3B2308D8
:10347000AB3B2408AC3B2508AD3B2608AE3B2708F8
:10348000AF3BA736A60CA50CA40CA30CA20CA10C58
:10349000A00C0130B002031D112A310803196E2A55
:1034A000A809A909AA09AB09AC09AD09AE09AF0978
:1034B000A80A031D6E2AA90A031D6E2AAA0A031D63
:1034C0006E2AAB0A031D6E2AAC0A031D6E2AAD0AD2
:1034D000031D6E2AAE0A031D6E2AAF0A20002808BB
:1034E000A0002908A1002A08A2002B08A3002C088C
:1034F000A4002D08A5002E08A6002F08A70008008C
:10350000B1012030860000308700473FF400F41FEF
:10351000AB2A2000A009A109A209A309A409A509B1
:10352000A609A709A00A031DA82AA10A031DA82A03
:10353000A20A031DA82AA30A031DA82AA40A031D80
:10354000A82AA50A031DA82AA60A031DA82AA70AB5
:103550002000B101B10A2830860000308700473FC3
:10356000F400F41FD72A2000A809A909AA09AB0969
:10357000AC09AD09AE09AF09A80A031DD22AA90AF0
:10358000031DD22AAA0A031DD22AAB0A031DD22A7E
:10359000AC0A031DD22AAD0A031DD22AAE0A031DAE
:1035A000D22AAF0A0130F40074082000B10632308C
:1035B0008600003087000830F40000301E00F40B55
:1035C000DE2A2000200821042204230424042504E8
:1035D000260427040319422BB001B00AA71BFD2AB9
:1035E000A035A10DA20DA30DA40DA50DA60DA70D2F
:1035F0000130F4007408B007EE2AB235B30DB40DF3
:10360000B50DB60DB70DB80DB90D27082F02031D66
:10361000232B26082E02031D232B25082D02031D14
:10362000232B24082C02031D232B23082B02031D0C
:10363000232B22082A02031D232B21082902031D04
:10364000232B20082802031C362B2008A80221085F
:10365000A93B2208AA3B2308AB3B2408AC3B250826
:10366000AD3B2608AE3B2708AF3B3214A736A60C6D
:10367000A50CA40CA30CA20CA10CA00C0130B00250
:10368000031DFD2A31080319632BB209B309B409DC
:10369000B509B609B709B809B909B20A031D632B00
:1036A000B30A031D632BB40A031D632BB50A031D64
:1036B000632BB60A031D632BB70A031D632BB80ADD
:1036C000031D632BB90A20003208A0003308A100B3
:1036D0003408A2003508A3003608A4003708A50066
:1036E0003808A6003908A70008002000EA0058089A
:1036F00086008701403FDA00413FDB005A08840022
:103700005B0885001200253A031D902C580886009E
:1037100087010130810741310318810A2100A0018E
:10372000A101A401A501FF30A200FF30A3002000E9
:10373000580886008701403FDA00413FDB005A0805
:1037400084005B08850012002A3A031DC52B580827
:10375000860087010130810741310318810A590829
:103760008600870101088400850102308107003F3F
:103770002100A000013FA100A11F062C2414A009D4
:10378000A109A00A0319A10A062C5808860087017E
:10379000403FA400413FA500A73161279B31250888
:1037A0002100A100200024082100A000DF2B5808E0
:1037B000860087010130810741310318810A20000A
:1037C000580886008701403FDA00413FDB005A0875
:1037D00084005B0885000008D03EDC00FF30031841
:1037E0000030DD0000305D020A3003195C0203186E
:1037F000FB2B0130FC2B0030DE00DF015E08E8000F
:103800005F08E90068086904031DD72B20005808E9
:1038100086008701403FDA00413FDB005A08840000
:103820005B0885001200643A0319252C58088600AD
:103830008701403FDA00413FDB005A0884005B0803
:1038400085001200693A031D5E2C58088600870126
:103850000130810741310318810A59088600870128
:1038600001088400850102308107003FDA00013F32
:10387000DB005A08E0005B08E100890D893B8909FB
:10388000E200E300E400E500E600E7006008BA00BB
:103890006108BB006208BC006308BD006408BE008C
:1038A0006508BF006608C0006708C1006A089C314F
:1038B000B3243B08D9003A08D8000800580886000D
:1038C0008701403FDA00413FDB005A0884005B0873
:1038D00085001200253A031D852C580886008701B3
:1038E0000130810741310318810A2530A0000030E2
:1038F000A1006A08DA005A08A200A3315823013057
:103900002000D8000030D900080058088600870140
:103910000130810741310318810AD801D90108001B
:10392000580886008701403FDA00413FDB005A0813
:1039300084005B0885000008DC00DD015C08A00055
:103940005D08A1006A08DE005E08A200A3315823CA
:103950009B312000580886008701013081074131E2
:103960000318810A7F2CC5003A08CE003B08CF001F
:103970003C08D0003D08D1003E08D2003F08D300EB
:103980004008D4004108D5004E3086000030870042
:10399000473FC200C21FCE2C0130CF2C0030200088
:1039A000C300C4014308CC004408CD004C084D04BA
:1039B0000319F82CCE09CF09D009D109D209D309AE
:1039C000D409D509CE0A031DF82CCF0A031DF82C03
:1039D000D00A031DF82CD10A031DF82CD20A031DAE
:1039E000F82CD30A031DF82CD40A031DF82CD50A91
:1039F0002100A31BFF2CFD30A405FF30A5052308E3
:103A0000803A2000C20080304202031D0A2D01309E
:103A1000210022020318122D01302000C8000030BE
:103A2000C9001A2D210023082000C9002100220806
:103A30002000C800210021082000CB002100200820
:103A40002000CA004C084D04031D292D2100241D0F
:103A50002E2DFF302000CA07FF30CB3D1F30200045
:103A6000D6000030D7002300BF01C22D20004E0831
:103A70004F04500451045204530454045504031DCC
:103A80005B2D4908803AC20080304202031D4A2D56
:103A90000130480203185B2D20004B08803AC20019
:103AA00080304202031D562D01304A02031CCE2DE8
:103AB0002100A41CCE2DFF302000D607FF30D73DBB
:103AC0000A30A000A101A201A301A401A501A60141
:103AD000A7014E08A8004F08A9005008AA005108E5
:103AE000AB005208AC005308AD005408AE005508B6
:103AF000AF009931A3219C312108B3002008B20006
:103B0000A131BA219C3120003208303EC200560853
:103B1000A03E86000130870042088100FF30C807C0
:103B2000FF30C93DFF30CA07FF30CB3D0A30A0004F
:103B3000A101A201A301A401A501A601A7014E08AC
:103B4000A8004F08A9005008AA005108AB0052086D
:103B5000AC005308AD005408AE005508AF009A31D0
:103B600080229C312008CE002108CF002208D000FE
:103B70002308D1002408D2002508D3002608D40049
:103B80002708D50020005708803AC2008030420242
:103B9000031DCC2D013056020318362D20004C0891
:103BA0004D04031DD62D2100241DEE2DFF302000D5
:103BB000D607FF30D73D4C084D04031DE12D2B30B7
:103BC000E22D2D30C6000030C7004608C20056085E
:103BD000A03E860001308700420881002000560880
:103BE000A03EC2004208AF004B08B1004A08B00036
:103BF0004508A43131243008BB002F08BA00080062
:103C0000003400340034003400340034C034003454
:103C10000034003400340034003400340034003404
:103C200000340034003400340034003400340034F4
:103C300000340034003400340034003400340034E4
:103C40000034003400340034003400348034C03494
:103C5000C034C03440346034603460342034303494
:103C600030343034103418341834183408340C34E8
:103C70000C340C34043406340634063406340C3464
:103C80000C347834F034C0341C34FC34F834C03490
:103C90001C347C34703400341C341C340034003444
:103CA0000034003400340034003400340034003474
:103CB0000034003400340034003400340034003464
:103CC0000034003400340034003400340034003454
:103CD0000034003400340034003400340034003444
:103CE0000034003400340034003400340034003434
:103CF0000034003400340034003400340034003424
:103D0000003400343034C83434340B34C4342134F7
:103D1000503426341E34003400340034003400346F
:103D200000340034003400340034003400340034F3
:103D30000034003400340034003400347E34FF3466
:103D4000FF34FF34FF34FF34FE34FF34F934C03421
:103D500000340034003400340034003400340034C3
:103D600000340034003400340034003400340034B3
:103D70000034003400340034003400340034803423
:103D80008034C034E3347F341E34003403340334CD
:103D90000134003400340034003400340034003482
:103DA0000034003400340034003400340034003473
:103DB0000034003400340034003400340034003463
:103DC0000034003400340034003400340034003453
:103DD0000034003400340034003400340034003443
:103DE0000034003400340034003400340034003433
:103DF0000034003400340034003400340034003423
:103E000000340034073409340E341F342434793438
:103E10000034003400340034003480348034803482
:103E2000C034C034C0346034603460343034303432
:103E300010341834183488348C34CC34C634C73435
:103E40007F347F34FF34FF34FF34FF34FF34FF34DA
:103E5000FE34F034803400342034303430341834BC
:103E600098349834C034C0346034603430343034E2
:103E7000183418340C340C3406340234033401344E
:103E80000134003404340E34FC34FE34FE34FE3489
:103E90001E340434003400340034003400348434DC
:103EA000CE34CE34EE34E634E034EE34EE34CE3478
:103EB000CE34043460346034F034F834F834FC34F4
:103EC000F834603460342034F834FC34FC34EE349C
:103ED000CE34DE349C340834C434EC34EE34EE3466
:103EE000E434003400346034E034E034E034E0346E
:103EF000E034E0348034E034E034603400340034C2
:103F000000340034003400346034603470343034B1
:103F100028342C343E343F343B343134313419347A
:103F2000183418340C340C340C340634063402348F
:103F300003340334013401340134003400340034D8
:103F40000034003403340F341F341F341F341F3443
:103F50001F340F3403340334023402340334033483
:103F600001340134003400340034003400340034AF
:103F700000340034003400340034003400340034A1
:103F800000340034203470347F347F347F347F3405
:103F9000783470347034703478343C3408341F34DE
:103FA0003F347F347F347C34703477343F343F3453
:103FB0001F340F34003400341F343F347F347F34D7
:103FC0007F3470343034103421347F347F347F3484
:103FD0007F347F342134003470347F347F347F3435
:103FE0007F3470340034603470347D340F340F34D7
:103FF0007F347F347F347F3478346034003400344D
:104000000134003401345E340334063400340634A1
:10401000053428347C3428347C3428340534243462
:104020002A347F342A34103403346234183446344A
:10403000053430344C345A3424345034013406348A
:1040400002343C344234023442343C3405342834A3
:1040500010347C34103428340334103438341034A1
:104060000134C0340334103410341034013440347B
:10407000033460341834063404343C34423442345B
:104080003C34033444347E344034043444346234A5
:1040900052344C3403344A344A34343404341E34F5
:1040A00010347C34103403344E344A343234043403
:1040B0003C344A344A3430340334623412340E34DB
:1040C000043434344A344A34343404340C345234EE
:1040D00052343C340134483402348034683403347C
:1040E0001034283444340334283428342834033436
:1040F0004434283410340334023452340C3405343C
:104100003C34423452342A343C3404347C34123447
:1041100012347C3404347E344A344A343434043423
:104120003C3442344234243404347E344234423405
:104130003C3403347E344A344A3403347E340A3403
:104140000A3404343C3442345234343404347E343B
:10415000083408347E34033442347E344234033429
:10416000423442343E3404347E34083414346234ED
:1041700003347E344034403405347E34043408340F
:1041800004347E3405347E340434183420347E34D0
:1041900004343C34423442343C3404347E341234EB
:1041A00012340C3404343C3442344234BC340434CD
:1041B0007E34123412346C34043444344A344A3475
:1041C0003034033402347E34023404343E34403418
:1041D00040343E3405340634183460341834063420
:1041E00005343E3440343E3440343E3405344234A9
:1041F000243418342434423404349E34A034A0349B
:104200007E340434623452344A34463402347E34C8
:1042100042340334063418346034023442347E3479
:104220000334203410342034043480348034803417
:104230008034023404340834043420345434543484
:10424000783404347E3444344434383404343834D8
:1042500044344434283404343834443444347E34CC
:104260000434383454345434583402347C340A34EA
:1042700004349834A434A4347C3404347E340434B8
:104280000434783401347A34023440343A34043417
:104290007E3410342834443401347E3405347C3484
:1042A000043478340434783404347C3404340434EE
:1042B0007834043438344434443438340434FC34EA
:1042C0002434243418340434183424342434FC348E
:1042D00002347C34043404344834543454342034A8
:1042E000033404343E34443404343C3440344034E5
:1042F0003C3405340C343034403430340C34053420
:104300003C3440343C3440343C3405344434283468
:1043100010342834443404349C34A034A0347C3425
:104320000334643454344C34033408343634413464
:104330000134FF3403344134363408340434203437
:1043400010342034103420001814080011102200FA
:104350005108F1005008F000AF319027A131220040
:104360004E084F04031908004F088A004E080A003F
:10437000A13108003308803AB40080303402031DB4
:10438000C329013032020318080020003209B400AA
:104390003309B500B40A0319B50A3408B200350868
:1043A000B3000800A2002208A0002008A1002208F3
:1043B00086000130870001080319E3290130A000BD
:1043C0002008A207D72921082202F400F501F41BD6
:1043D000F50308002000A001A101F030F400253011
:1043E000F5002008740786002108753D87008101CB
:1043F0000130A0070030A13D023021020030031936
:10440000200203180800ED29F401F501201C0C2AF4
:104410002208F4072308F53D0130A235A30D890BCE
:104420000D2A0130A136A00C890B122A2008210484
:10443000031D062A7508A1007408A00008000130B9
:1044400020009900F83097003030960017082200BD
:10445000D100200016082200D000200011102100F9
:1044600011140230F4000030F500AF31182731305C
:104470002000980008002000A201A20A2030740643
:1044800075040319502A7408F73EA000FF30753DEB
:10449000A100003021020530031920020318A201F7
:1044A0002208A000A1012008F4002108F50008005E
:1044B0002000A000200823009100740893009513A9
:1044C0001513151500308B1B01302000A1008B1334
:1044D000553023009600AA309600951495186E2A40
:1044E00015112000210C031C8B1303188B170800D7
:1044F000AE00AC01AD012C082E07A80028088600EC
:10450000013087000108A9002908AB002B08031916
:1045100008002B08A800A9012808A0002908A1006C
:104520007408AA002A08A200A3315823A23101303E
:104530002000AC070030AD3D7B2AE800D930DF0019
:104540005F08E2006808DF005F08E300E401E501BE
:10455000E601E70158082000EC0021005708200080
:10456000EB00E2302100DF005F082000ED00E330C7
:10457000A3312423210064086807DF005F08860058
:104580000130870081010800200821040319EB2A6B
:10459000F501F50AA11BD62A0130A035A10D890B22
:1045A000CD2A0130F4007408F507CA2A2108230235
:1045B000031DDC2A20082202031CE22A2008A20292
:1045C0002108A33B0130A136A00C890BE32A01305E
:1045D000F502031DD62A2308A1002208A000080026
:1045E00022008C011A308D008E01083021009000CD
:1045F0007D308C00CB308D00FE308E0023008E018C
:1046000040308D003E308C002400900101308D0040
:1046100040308C008E012100951325008C018D0106
:104620008E0126008C018D018E0122009D0101303A
:104630009C0027001310121411100030F4000030F9
:10464000F500AF31122708002100D40020006C08CB
:104650002100D60020006B082100D5002200C001F7
:10466000C101210055088400560885001200031975
:104670004F2BD5302000EE006E08D8006D08EF00FB
:104680006F08D900210054089B317523A3315808C5
:104690002200C007200059082200C13D312B220012
:1046A00041082000EC00220040082000EB00080038
:1046B0002208031D2208031D612B200880310320DE
:1046C00008002208033E8600870116000104031932
:1046D000842B2208033E86008701403FA300413F10
:1046E000A400220A86008701403FA500413FA600A2
:1046F0002608803AA7002408803A2702031D822B4F
:10470000230825020318080020002008A30022081F
:1047100086008701220A8400850100080107A400A1
:10472000240886000130870023088100220A8600C1
:1047300087010130810741310318810A08002308ED
:10474000A7002208A6000730A635A70D890BA42BC9
:1047500020082607B1002108273DB200B301250833
:1047600085002408840000308407A030853D0008BF
:104770003302031808003308A600A7010130A8007F
:10478000A030A90026082807AA002708293DAB0069
:104790002A08240784002B08253D85000008AC006A
:1047A0003308F03EAD00AE012530AE3D31082D0797
:1047B000AF0032082E3DB0002F0886003008870079
:1047C0002C0881000130A6002608B307AF2BD101C9
:1047D000C401AF313C27A331A5319A25A331210073
:1047E000C701C6010030AF315127A3312000A0001E
:1047F00020082100C2000130AF315127A331200031
:10480000A00020082100C3000230AF315127A3319E
:104810002000A00020082100C10005304202031C36
:10482000172C04302000A00020082100C2004208FC
:10483000031D1C2CC201C20A2E304302031C262C6D
:1048400023302000A00020082100C30004304102D2
:10485000031C080003302000A00020082100C10034
:104860000800B7002100241C3E2C20003708B200AD
:104870003208F4002F08A2317822A4312000B11BA5
:10488000462C3108B6003008B500482CB501B601F9
:10489000B301B4013408803AB2003608803A3202DB
:1048A000031D542C350833020318682C20302000D7
:1048B000A0000030A1003708B2003208A200A331E6
:1048C0005823A43101302000B3070030B43D4A2CF6
:1048D00021002418742C20003708B2003208F4009C
:1048E0002F08A2317822A43120002F08A131D22133
:1048F00035087407AF003608753DB0000800213058
:10490000AF31D527A4310030AF31D527A4317F3066
:10491000AF31D527A4312230AF31D527A4310030B3
:10492000AF31D527A4310730AF31D527A4312000CE
:10493000A801AF311E27A4317830AF318227A431CE
:104940004030AF318227A4312000A9012908A200FC
:10495000A3012808A400A501A40EA50EF030A5050A
:1049600024080F39A504F030A40524082007A60068
:104970002508213DA7002208260786002308273D99
:1049800087000108AF318227A43101302000A20046
:104990002208A90710302902031CA62CAF312527B5
:1049A000A43101302000A2002208A80720302802EC
:1049B00003180800992C3808860001308700010888
:1049C00003190800BB01BC01B901BA01380886000F
:1049D000013087000108E03EF400FF30031800308A
:1049E000F50075083A02031DF72C74083902031804
:1049F000112D3C0885003B08840000308407A0305E
:104A0000853D0008013EF400003003180130F50038
:104A10007408BB077508BC3D0130B9070030BA3DCA
:104A2000E62C3508A1003408A0003708A30036089A
:104A3000A2003C08A5003B08A400A3319F23A43199
:104A40003C0885003B08840000308407A030853D89
:104A50000008013EF400003003180130F50074082E
:104A6000B4077508B53D0130F4007408B807DB2CB5
:104A7000AF31B127A5318B170B17A331E723A53130
:104A80000C30F4002F30F500AF311827A531A131DB
:104A9000A321A53121000E10AF313427A5315230AA
:104AA0002100EF002B30EE000030890B552DEE0B6E
:104AB000552DEF0B552D0000792DA531FE25A53183
:104AC000003A0319652DC601C60AC601C60A792D2A
:104AD00022000E10A631E326A531792D9431092448
:104AE000A531792D22000E109131DE21A531792DCD
:104AF000C60121004F084E060319792D0130EE0042
:104B00006E08CF074608EE00EF016F08003A031960
:104B10008A2D782D6E08003A03195D2D013A03198C
:104B2000682D033A0319722D013A03196E2D782D61
:104B300080311C28AE30AF31D527A531D530AF310B
:104B4000D527A5318030AF31D527A531A830AF3179
:104B5000D527A5311F30AF31D527A531D330AF319F
:104B6000D527A5310030AF31D527A5314030AF3141
:104B7000D527A5318D30AF31D527A5311430AF31D0
:104B8000D527A5312030AF31D527A5310030AF3141
:104B9000D527A531A130AF31D527A531C830AF31E8
:104BA000D527A531DA30AF31D527A5310230AF3165
:104BB000D527A5318130AF31D527A5318F30AF3121
:104BC000D527A531D930AF31D527A531F130AF3157
:104BD000D527A531DB30AF31D527A5314030AF31F6
:104BE000D527A531A430AF31D527A531A630AF31B7
:104BF000D527A531AF30AF31D5270800F5010030FA
:104C000020000C1B0130F70000300D180130F600B9
:104C10000130F40074082100B90732303902031C56
:104C2000402EB901B801B80A7708031D1C2E0130C7
:104C3000F4007408BD071D2EBD017608031D252E46
:104C40000130F4007408BC07262EBC010A303D0276
:104C5000031C332E3B08031D332E1030F400740860
:104C6000F500BB01BB0A0A303C02031C402E3A0887
:104C7000031D402E2030F4007408F500BA01BA0A72
:104C80007703031D4D2E3F08031D4D2E3B03031DCF
:104C90004B2EBB014D2EF501F50A7603031D5C2E4C
:104CA0003E08031D5C2E3A03031D582EBA015C2EEC
:104CB0000230F4007408F5007708F4007408BF00AF
:104CC0007608F4007408BE0038080319692E7508C8
:104CD000080000300800210053187C2EAF31022755
:104CE000A6317935203E8600023087007008C03F2B
:104CF0007108C13F0330DA2E531CE02EAF3102277A
:104D0000A6317935403E8600023087007008C03FEA
:104D10007108C13F0130F2007208F90708307902CA
:104D2000031CD92EF901D301B001B101AE01AF01CD
:104D3000F801083078020318BC2E7835203E860032
:104D400002308700403FF200413FF3007208B00795
:104D50007308B13D7835403E860002308700403F01
:104D6000F200413FF3007208AE077308AF3D013017
:104D7000F2007208F807992E3108F3003008F200AB
:104D8000F336F20CF336F20CF336F20C7208B00084
:104D90007308B1002F08F3002E08F200F336F20C6E
:104DA000F336F20CF336F20C7208AE007308AF0063
:104DB000E02E0230AF319F270130F2007208D30796
:104DC000200011130800A531FE25A6312000BE00E9
:104DD0003E08BF0001302200C4070030C53D10303E
:104DE00020003F06031DFD2E0230BE003E082100BC
:104DF000C6002200C401C501072F02303F06031D73
:104E0000032F0330F52E20303F060319012F013008
:104E100022004502F43003194402031C0800C401B7
:104E2000C501A131EA21A6310030A400A50001305E
:104E3000A6000030A7000E30A8000030A900903175
:104E4000DB20A6312830A4000030A5000130A600E8
:104E50000030A7001030A8000030A9009031DB20FE
:104E6000A6313730A4000030A5000130A600003084
:104E7000A7001130A8000030A9009031DB20A63136
:104E80004630A4000030A5000130A6000030A70085
:104E90001130A8000030A9009031DB20A63170301D
:104EA000A4000030A5000130A6000030A7000D309E
:104EB000A8000030A9009031DB20A631AF313427A3
:104EC0000800B101B201AA01AB01B001B00A240887
:104ED0008400250885001200203A0319812F240838
:104EE0008400250885000008F73EA600FF3003185F
:104EF0000030A700003027020530031926020318EE
:104F0000B0013008A600A7012608AC002708AD00B4
:104F10002C082D040319962F0130A4070030A53D5D
:104F2000652F0130AA000030AB00C82F2408840090
:104F3000250885000008A600A7012708003A0319E4
:104F4000A22FCC2F26082B3A0319C82F063A031993
:104F5000912FCC2F24088400250885000008A60086
:104F60003208A1003108A0000A30A2000030A300DE
:104F7000A2310422A7312108A80026082002A70098
:104F8000031CA8032708303EB1000030283DB200C2
:104F90000130A4070030A53D2408840025088500C1
:104FA0000008D03EA600FF3003180030A7000030F4
:104FB00027020A30031926020318E02F0130E12FDF
:104FC0000030A800A9012808AE002908AF002E086B
:104FD0002F04031DAA2F2A082B04031DFB2F3109C0
:104FE000A6003209A700A60A0319A70A2608A400EA
:104FF0002708A50008003208A5003108A400080011
:105DF60016309700080082302200970008001C0821
:105E0600F1001B08F00008002000911D072F9111DA
:105E160008000130F00070082100CE070800750860
:105E26002300C1007408C000080075082200CF00D6
:105E36007408CE000800AF312C27AF311614161C9B
:105E46000800222FAF312C27AF311615161D08007A
:105E5600292F240014192C2F16081F39031908009E
:105E66002F2FF0302000A0002530A100A4317F2480
:105E76000800240095151511951015109516133068
:105E86009200961208007030210099009A0198013C
:105E96002200960121001A1B08004D2FF4007408F9
:105EA600230091001513951315140000000023001C
:105EB600130808006400800101310130FE02003041
:105EC600FF3B7F087E04031900345E2FFE0012009C
:105ED6001E000130FE020030FF3B7F087E040319DE
:105EE60000346A2F013021009D00A3309E000F3040
:105EF6009F009C019B011117D301F9010800F400D2
:105F0600AF312C27AF312000911174082400910085
:105F1600AF3107272400160808002000181D9A2F05
:105F26001810710897007008960018140800710878
:105F36009700700896000800F1007108F000F00D57
:105F4600F00D1D087006833970069D001D14423041
:105F5600890BAB2F003221009D140800A231F022DC
:105F6600AF31AF314627AF31AE31FB26AF31AE315F
:105F7600FE26AF31A2311F22AF31AF31752708009F
:105F8600F5007508F400F40DF40D1D087406833948
:105F960074069D001D144230890BCF2F003221005C
:105FA6009D140800F500AF311E27AF317830AF31B0
:105FB6008227AF310030AF318227AF317508AF315C
:105FC6008227AF31AF31252708007408D03E200064
:105FD600A000FF30753DA100003021020A300319F0
:105FE60020020318F82F0130F92F0030A200A30178
:105FF6002208F4002308F5000800253432346434FE
:1060060057342F342534323464342C342534313427
:106016006434563400346F34663466343A3420348B
:106026003134303420346D3469346E3400346F3496
:10603600663466343A3420343334303420346D34A4
:1060460069346E3400346F34663466343A3420343E
:10605600353420346D3469346E3400346F3466342C
:1060660066343A3420346E346534763465347234AA
:1060760000342534323464342E34253464345634B2
:10608600003454343A3425343334643443340034DD
:10609600433441344E34433445344C340034503464
:1060A6003A34203425346434573400345334453478
:1060B6005434553450340034543449345034213433
:1060C60000345334413456344534003425343234A4
:0E60D6006434573400342534333464340034D9
:020000040001F9
:04000E00E43FFF3F8D
:10E0000002003500FF00FF00FF00FF00FF00FF00DF
:00000001FF
